{
	"lec27.sol": {
		"runner": {
			"abi": [
				{
					"anonymous": false,
					"inputs": [
						{
							"indexed": false,
							"internalType": "string",
							"name": "_name",
							"type": "string"
						},
						{
							"indexed": false,
							"internalType": "string",
							"name": "_err",
							"type": "string"
						}
					],
					"name": "catchErr",
					"type": "event"
				},
				{
					"anonymous": false,
					"inputs": [
						{
							"indexed": false,
							"internalType": "string",
							"name": "_name",
							"type": "string"
						},
						{
							"indexed": false,
							"internalType": "bytes",
							"name": "_err",
							"type": "bytes"
						}
					],
					"name": "catchLowLevelErr",
					"type": "event"
				},
				{
					"anonymous": false,
					"inputs": [
						{
							"indexed": false,
							"internalType": "string",
							"name": "_name",
							"type": "string"
						},
						{
							"indexed": false,
							"internalType": "uint256",
							"name": "_err",
							"type": "uint256"
						}
					],
					"name": "catchPanic",
					"type": "event"
				},
				{
					"inputs": [],
					"name": "mathInstance",
					"outputs": [
						{
							"internalType": "contract math",
							"name": "",
							"type": "address"
						}
					],
					"stateMutability": "view",
					"type": "function"
				},
				{
					"inputs": [
						{
							"internalType": "uint256",
							"name": "_num1",
							"type": "uint256"
						},
						{
							"internalType": "uint256",
							"name": "_num2",
							"type": "uint256"
						}
					],
					"name": "playTryCatch",
					"outputs": [
						{
							"internalType": "uint256",
							"name": "",
							"type": "uint256"
						},
						{
							"internalType": "bool",
							"name": "",
							"type": "bool"
						}
					],
					"stateMutability": "nonpayable",
					"type": "function"
				}
			],
			"devdoc": {
				"kind": "dev",
				"methods": {},
				"version": 1
			},
			"evm": {
				"assembly": "    /* \"lec27.sol\":2686:3583  contract runner{... */\n  mstore(0x40, 0x80)\n    /* \"lec27.sol\":2887:2897  new math() */\n  mload(0x40)\n  tag_1\n  swap1\n  tag_2\n  jump\t// in\ntag_1:\n  mload(0x40)\n  dup1\n  swap2\n  sub\n  swap1\n  0x00\n  create\n  dup1\n  iszero\n  dup1\n  iszero\n  tag_3\n  jumpi\n  returndatasize\n  0x00\n  dup1\n  returndatacopy\n  revert(0x00, returndatasize)\ntag_3:\n  pop\n    /* \"lec27.sol\":2860:2897  math public mathInstance = new math() */\n  0x00\n  dup1\n  0x0100\n  exp\n  dup2\n  sload\n  dup2\n  0xffffffffffffffffffffffffffffffffffffffff\n  mul\n  not\n  and\n  swap1\n  dup4\n  0xffffffffffffffffffffffffffffffffffffffff\n  and\n  mul\n  or\n  swap1\n  sstore\n  pop\n    /* \"lec27.sol\":2686:3583  contract runner{... */\n  callvalue\n  dup1\n  iszero\n  tag_4\n  jumpi\n  0x00\n  dup1\n  revert\ntag_4:\n  pop\n  jump(tag_5)\ntag_2:\n  dataSize(sub_1)\n  dup1\n  dataOffset(sub_1)\n  dup4\n  codecopy\n  add\n  swap1\n  jump\t// out\ntag_5:\n  dataSize(sub_0)\n  dup1\n  dataOffset(sub_0)\n  0x00\n  codecopy\n  0x00\n  return\nstop\n\nsub_0: assembly {\n        /* \"lec27.sol\":2686:3583  contract runner{... */\n      mstore(0x40, 0x80)\n      callvalue\n      dup1\n      iszero\n      tag_1\n      jumpi\n      0x00\n      dup1\n      revert\n    tag_1:\n      pop\n      jumpi(tag_2, lt(calldatasize, 0x04))\n      shr(0xe0, calldataload(0x00))\n      dup1\n      0x0fc6b51c\n      eq\n      tag_3\n      jumpi\n      dup1\n      0x90560610\n      eq\n      tag_4\n      jumpi\n    tag_2:\n      0x00\n      dup1\n      revert\n        /* \"lec27.sol\":2909:3580  function playTryCatch(uint256 _num1, uint256 _num2) public returns(uint256,bool){... */\n    tag_3:\n      tag_5\n      0x04\n      dup1\n      calldatasize\n      sub\n      dup2\n      add\n      swap1\n      tag_6\n      swap2\n      swap1\n      tag_7\n      jump\t// in\n    tag_6:\n      tag_8\n      jump\t// in\n    tag_5:\n      mload(0x40)\n      tag_9\n      swap3\n      swap2\n      swap1\n      tag_10\n      jump\t// in\n    tag_9:\n      mload(0x40)\n      dup1\n      swap2\n      sub\n      swap1\n      return\n        /* \"lec27.sol\":2860:2897  math public mathInstance = new math() */\n    tag_4:\n      tag_11\n      tag_12\n      jump\t// in\n    tag_11:\n      mload(0x40)\n      tag_13\n      swap2\n      swap1\n      tag_14\n      jump\t// in\n    tag_13:\n      mload(0x40)\n      dup1\n      swap2\n      sub\n      swap1\n      return\n        /* \"lec27.sol\":2909:3580  function playTryCatch(uint256 _num1, uint256 _num2) public returns(uint256,bool){... */\n    tag_8:\n        /* \"lec27.sol\":2976:2983  uint256 */\n      0x00\n        /* \"lec27.sol\":2984:2988  bool */\n      dup1\n        /* \"lec27.sol\":3012:3024  mathInstance */\n      0x00\n      dup1\n      sload\n      swap1\n      0x0100\n      exp\n      swap1\n      div\n      0xffffffffffffffffffffffffffffffffffffffff\n      and\n        /* \"lec27.sol\":3012:3033  mathInstance.division */\n      0xffffffffffffffffffffffffffffffffffffffff\n      and\n      0xe0068052\n        /* \"lec27.sol\":3034:3039  _num1 */\n      dup6\n        /* \"lec27.sol\":3041:3046  _num2 */\n      dup6\n        /* \"lec27.sol\":3012:3047  mathInstance.division(_num1, _num2) */\n      mload(0x40)\n      dup4\n      0xffffffff\n      and\n      0xe0\n      shl\n      dup2\n      mstore\n      0x04\n      add\n      tag_16\n      swap3\n      swap2\n      swap1\n      tag_17\n      jump\t// in\n    tag_16:\n      0x20\n      mload(0x40)\n      dup1\n      dup4\n      sub\n      dup2\n      dup7\n      gas\n      staticcall\n      swap3\n      pop\n      pop\n      pop\n      dup1\n      iszero\n      tag_18\n      jumpi\n      pop\n      mload(0x40)\n      returndatasize\n      not(0x1f)\n      0x1f\n      dup3\n      add\n      and\n      dup3\n      add\n      dup1\n      0x40\n      mstore\n      pop\n      dup2\n      add\n      swap1\n      tag_19\n      swap2\n      swap1\n      tag_20\n      jump\t// in\n    tag_19:\n      0x01\n    tag_18:\n        /* \"lec27.sol\":3008:3547  try mathInstance.division(_num1, _num2) returns(uint256 value){... */\n      tag_21\n      jumpi\n      tag_25\n      tag_26\n      jump\t// in\n    tag_25:\n      dup1\n      0x08c379a0\n      sub\n      tag_24\n      jumpi\n      pop\n      tag_27\n      tag_28\n      jump\t// in\n    tag_27:\n      dup1\n      tag_29\n      jumpi\n      pop\n      jump(tag_23)\n    tag_29:\n        /* \"lec27.sol\":3191:3222  catchErr(\"revert/require\",_err) */\n      0x1a105f82e7a73e98ff8b7e5e0479a23ba4df818edeafeec2e4bdfe52624b3ba1\n        /* \"lec27.sol\":3217:3221  _err */\n      dup2\n        /* \"lec27.sol\":3191:3222  catchErr(\"revert/require\",_err) */\n      mload(0x40)\n      tag_30\n      swap2\n      swap1\n      tag_31\n      jump\t// in\n    tag_30:\n      mload(0x40)\n      dup1\n      swap2\n      sub\n      swap1\n      log1\n        /* \"lec27.sol\":3243:3244  0 */\n      0x00\n        /* \"lec27.sol\":3245:3250  false */\n      dup1\n        /* \"lec27.sol\":3236:3251  return(0,false) */\n      swap3\n      pop\n      swap3\n      pop\n      pop\n      jump(tag_15)\n        /* \"lec27.sol\":3008:3547  try mathInstance.division(_num1, _num2) returns(uint256 value){... */\n    tag_24:\n      0x4e487b71\n      sub\n      tag_23\n      jumpi\n      tag_32\n      tag_33\n      jump\t// in\n    tag_32:\n      swap1\n      tag_34\n      jumpi\n      pop\n      jump(tag_23)\n    tag_34:\n        /* \"lec27.sol\":3328:3370  catchPanic(\"assertError/Panic\",_errorCode) */\n      0xa999f44f5ca01f1755a1d8c28c08bdb6b5bff8c080bb72cc38486ebae8c928a6\n        /* \"lec27.sol\":3359:3369  _errorCode */\n      dup2\n        /* \"lec27.sol\":3328:3370  catchPanic(\"assertError/Panic\",_errorCode) */\n      mload(0x40)\n      tag_35\n      swap2\n      swap1\n      tag_36\n      jump\t// in\n    tag_35:\n      mload(0x40)\n      dup1\n      swap2\n      sub\n      swap1\n      log1\n        /* \"lec27.sol\":3391:3392  0 */\n      0x00\n        /* \"lec27.sol\":3393:3398  false */\n      dup1\n        /* \"lec27.sol\":3384:3399  return(0,false) */\n      swap3\n      pop\n      swap3\n      pop\n      pop\n      jump(tag_15)\n        /* \"lec27.sol\":3008:3547  try mathInstance.division(_num1, _num2) returns(uint256 value){... */\n    tag_23:\n      returndatasize\n      dup1\n      0x00\n      dup2\n      eq\n      tag_38\n      jumpi\n      mload(0x40)\n      swap2\n      pop\n      and(add(returndatasize, 0x3f), not(0x1f))\n      dup3\n      add\n      0x40\n      mstore\n      returndatasize\n      dup3\n      mstore\n      returndatasize\n      0x00\n      0x20\n      dup5\n      add\n      returndatacopy\n      jump(tag_37)\n    tag_38:\n      0x60\n      swap2\n      pop\n    tag_37:\n      pop\n        /* \"lec27.sol\":3463:3507  catchLowLevelErr(\"LowlevelError\",_errorCode) */\n      0x0a38afcafc8effb8f0fe817fd60b9ca57e0fde5511f65c8ba69a3a3972154831\n        /* \"lec27.sol\":3496:3506  _errorCode */\n      dup2\n        /* \"lec27.sol\":3463:3507  catchLowLevelErr(\"LowlevelError\",_errorCode) */\n      mload(0x40)\n      tag_39\n      swap2\n      swap1\n      tag_40\n      jump\t// in\n    tag_39:\n      mload(0x40)\n      dup1\n      swap2\n      sub\n      swap1\n      log1\n        /* \"lec27.sol\":3528:3529  0 */\n      0x00\n        /* \"lec27.sol\":3530:3535  false */\n      dup1\n        /* \"lec27.sol\":3521:3536  return(0,false) */\n      swap3\n      pop\n      swap3\n      pop\n      pop\n      jump(tag_15)\n        /* \"lec27.sol\":3008:3547  try mathInstance.division(_num1, _num2) returns(uint256 value){... */\n    tag_21:\n        /* \"lec27.sol\":3091:3096  value */\n      dup1\n        /* \"lec27.sol\":3097:3101  true */\n      0x01\n        /* \"lec27.sol\":3084:3102  return(value,true) */\n      swap3\n      pop\n      swap3\n      pop\n      pop\n        /* \"lec27.sol\":2909:3580  function playTryCatch(uint256 _num1, uint256 _num2) public returns(uint256,bool){... */\n    tag_15:\n      swap3\n      pop\n      swap3\n      swap1\n      pop\n      jump\t// out\n        /* \"lec27.sol\":2860:2897  math public mathInstance = new math() */\n    tag_12:\n      0x00\n      dup1\n      sload\n      swap1\n      0x0100\n      exp\n      swap1\n      div\n      0xffffffffffffffffffffffffffffffffffffffff\n      and\n      dup2\n      jump\t// out\n        /* \"#utility.yul\":7:82   */\n    tag_42:\n        /* \"#utility.yul\":40:46   */\n      0x00\n        /* \"#utility.yul\":73:75   */\n      0x40\n        /* \"#utility.yul\":67:76   */\n      mload\n        /* \"#utility.yul\":57:76   */\n      swap1\n      pop\n        /* \"#utility.yul\":7:82   */\n      swap1\n      jump\t// out\n        /* \"#utility.yul\":88:205   */\n    tag_43:\n        /* \"#utility.yul\":197:198   */\n      0x00\n        /* \"#utility.yul\":194:195   */\n      dup1\n        /* \"#utility.yul\":187:199   */\n      revert\n        /* \"#utility.yul\":334:411   */\n    tag_45:\n        /* \"#utility.yul\":371:378   */\n      0x00\n        /* \"#utility.yul\":400:405   */\n      dup2\n        /* \"#utility.yul\":389:405   */\n      swap1\n      pop\n        /* \"#utility.yul\":334:411   */\n      swap2\n      swap1\n      pop\n      jump\t// out\n        /* \"#utility.yul\":417:539   */\n    tag_46:\n        /* \"#utility.yul\":490:514   */\n      tag_81\n        /* \"#utility.yul\":508:513   */\n      dup2\n        /* \"#utility.yul\":490:514   */\n      tag_45\n      jump\t// in\n    tag_81:\n        /* \"#utility.yul\":483:488   */\n      dup2\n        /* \"#utility.yul\":480:515   */\n      eq\n        /* \"#utility.yul\":470:533   */\n      tag_82\n      jumpi\n        /* \"#utility.yul\":529:530   */\n      0x00\n        /* \"#utility.yul\":526:527   */\n      dup1\n        /* \"#utility.yul\":519:531   */\n      revert\n        /* \"#utility.yul\":470:533   */\n    tag_82:\n        /* \"#utility.yul\":417:539   */\n      pop\n      jump\t// out\n        /* \"#utility.yul\":545:684   */\n    tag_47:\n        /* \"#utility.yul\":591:596   */\n      0x00\n        /* \"#utility.yul\":629:635   */\n      dup2\n        /* \"#utility.yul\":616:636   */\n      calldataload\n        /* \"#utility.yul\":607:636   */\n      swap1\n      pop\n        /* \"#utility.yul\":645:678   */\n      tag_84\n        /* \"#utility.yul\":672:677   */\n      dup2\n        /* \"#utility.yul\":645:678   */\n      tag_46\n      jump\t// in\n    tag_84:\n        /* \"#utility.yul\":545:684   */\n      swap3\n      swap2\n      pop\n      pop\n      jump\t// out\n        /* \"#utility.yul\":690:1164   */\n    tag_7:\n        /* \"#utility.yul\":758:764   */\n      0x00\n        /* \"#utility.yul\":766:772   */\n      dup1\n        /* \"#utility.yul\":815:817   */\n      0x40\n        /* \"#utility.yul\":803:812   */\n      dup4\n        /* \"#utility.yul\":794:801   */\n      dup6\n        /* \"#utility.yul\":790:813   */\n      sub\n        /* \"#utility.yul\":786:818   */\n      slt\n        /* \"#utility.yul\":783:902   */\n      iszero\n      tag_86\n      jumpi\n        /* \"#utility.yul\":821:900   */\n      tag_87\n      tag_43\n      jump\t// in\n    tag_87:\n        /* \"#utility.yul\":783:902   */\n    tag_86:\n        /* \"#utility.yul\":941:942   */\n      0x00\n        /* \"#utility.yul\":966:1019   */\n      tag_88\n        /* \"#utility.yul\":1011:1018   */\n      dup6\n        /* \"#utility.yul\":1002:1008   */\n      dup3\n        /* \"#utility.yul\":991:1000   */\n      dup7\n        /* \"#utility.yul\":987:1009   */\n      add\n        /* \"#utility.yul\":966:1019   */\n      tag_47\n      jump\t// in\n    tag_88:\n        /* \"#utility.yul\":956:1019   */\n      swap3\n      pop\n        /* \"#utility.yul\":912:1029   */\n      pop\n        /* \"#utility.yul\":1068:1070   */\n      0x20\n        /* \"#utility.yul\":1094:1147   */\n      tag_89\n        /* \"#utility.yul\":1139:1146   */\n      dup6\n        /* \"#utility.yul\":1130:1136   */\n      dup3\n        /* \"#utility.yul\":1119:1128   */\n      dup7\n        /* \"#utility.yul\":1115:1137   */\n      add\n        /* \"#utility.yul\":1094:1147   */\n      tag_47\n      jump\t// in\n    tag_89:\n        /* \"#utility.yul\":1084:1147   */\n      swap2\n      pop\n        /* \"#utility.yul\":1039:1157   */\n      pop\n        /* \"#utility.yul\":690:1164   */\n      swap3\n      pop\n      swap3\n      swap1\n      pop\n      jump\t// out\n        /* \"#utility.yul\":1170:1288   */\n    tag_48:\n        /* \"#utility.yul\":1257:1281   */\n      tag_91\n        /* \"#utility.yul\":1275:1280   */\n      dup2\n        /* \"#utility.yul\":1257:1281   */\n      tag_45\n      jump\t// in\n    tag_91:\n        /* \"#utility.yul\":1252:1255   */\n      dup3\n        /* \"#utility.yul\":1245:1282   */\n      mstore\n        /* \"#utility.yul\":1170:1288   */\n      pop\n      pop\n      jump\t// out\n        /* \"#utility.yul\":1294:1384   */\n    tag_49:\n        /* \"#utility.yul\":1328:1335   */\n      0x00\n        /* \"#utility.yul\":1371:1376   */\n      dup2\n        /* \"#utility.yul\":1364:1377   */\n      iszero\n        /* \"#utility.yul\":1357:1378   */\n      iszero\n        /* \"#utility.yul\":1346:1378   */\n      swap1\n      pop\n        /* \"#utility.yul\":1294:1384   */\n      swap2\n      swap1\n      pop\n      jump\t// out\n        /* \"#utility.yul\":1390:1499   */\n    tag_50:\n        /* \"#utility.yul\":1471:1492   */\n      tag_94\n        /* \"#utility.yul\":1486:1491   */\n      dup2\n        /* \"#utility.yul\":1471:1492   */\n      tag_49\n      jump\t// in\n    tag_94:\n        /* \"#utility.yul\":1466:1469   */\n      dup3\n        /* \"#utility.yul\":1459:1493   */\n      mstore\n        /* \"#utility.yul\":1390:1499   */\n      pop\n      pop\n      jump\t// out\n        /* \"#utility.yul\":1505:1825   */\n    tag_10:\n        /* \"#utility.yul\":1620:1624   */\n      0x00\n        /* \"#utility.yul\":1658:1660   */\n      0x40\n        /* \"#utility.yul\":1647:1656   */\n      dup3\n        /* \"#utility.yul\":1643:1661   */\n      add\n        /* \"#utility.yul\":1635:1661   */\n      swap1\n      pop\n        /* \"#utility.yul\":1671:1742   */\n      tag_96\n        /* \"#utility.yul\":1739:1740   */\n      0x00\n        /* \"#utility.yul\":1728:1737   */\n      dup4\n        /* \"#utility.yul\":1724:1741   */\n      add\n        /* \"#utility.yul\":1715:1721   */\n      dup6\n        /* \"#utility.yul\":1671:1742   */\n      tag_48\n      jump\t// in\n    tag_96:\n        /* \"#utility.yul\":1752:1818   */\n      tag_97\n        /* \"#utility.yul\":1814:1816   */\n      0x20\n        /* \"#utility.yul\":1803:1812   */\n      dup4\n        /* \"#utility.yul\":1799:1817   */\n      add\n        /* \"#utility.yul\":1790:1796   */\n      dup5\n        /* \"#utility.yul\":1752:1818   */\n      tag_50\n      jump\t// in\n    tag_97:\n        /* \"#utility.yul\":1505:1825   */\n      swap4\n      swap3\n      pop\n      pop\n      pop\n      jump\t// out\n        /* \"#utility.yul\":1831:1957   */\n    tag_51:\n        /* \"#utility.yul\":1868:1875   */\n      0x00\n        /* \"#utility.yul\":1908:1950   */\n      0xffffffffffffffffffffffffffffffffffffffff\n        /* \"#utility.yul\":1901:1906   */\n      dup3\n        /* \"#utility.yul\":1897:1951   */\n      and\n        /* \"#utility.yul\":1886:1951   */\n      swap1\n      pop\n        /* \"#utility.yul\":1831:1957   */\n      swap2\n      swap1\n      pop\n      jump\t// out\n        /* \"#utility.yul\":1963:2023   */\n    tag_52:\n        /* \"#utility.yul\":1991:1994   */\n      0x00\n        /* \"#utility.yul\":2012:2017   */\n      dup2\n        /* \"#utility.yul\":2005:2017   */\n      swap1\n      pop\n        /* \"#utility.yul\":1963:2023   */\n      swap2\n      swap1\n      pop\n      jump\t// out\n        /* \"#utility.yul\":2029:2171   */\n    tag_53:\n        /* \"#utility.yul\":2079:2088   */\n      0x00\n        /* \"#utility.yul\":2112:2165   */\n      tag_101\n        /* \"#utility.yul\":2130:2164   */\n      tag_102\n        /* \"#utility.yul\":2139:2163   */\n      tag_103\n        /* \"#utility.yul\":2157:2162   */\n      dup5\n        /* \"#utility.yul\":2139:2163   */\n      tag_51\n      jump\t// in\n    tag_103:\n        /* \"#utility.yul\":2130:2164   */\n      tag_52\n      jump\t// in\n    tag_102:\n        /* \"#utility.yul\":2112:2165   */\n      tag_51\n      jump\t// in\n    tag_101:\n        /* \"#utility.yul\":2099:2165   */\n      swap1\n      pop\n        /* \"#utility.yul\":2029:2171   */\n      swap2\n      swap1\n      pop\n      jump\t// out\n        /* \"#utility.yul\":2177:2303   */\n    tag_54:\n        /* \"#utility.yul\":2227:2236   */\n      0x00\n        /* \"#utility.yul\":2260:2297   */\n      tag_105\n        /* \"#utility.yul\":2291:2296   */\n      dup3\n        /* \"#utility.yul\":2260:2297   */\n      tag_53\n      jump\t// in\n    tag_105:\n        /* \"#utility.yul\":2247:2297   */\n      swap1\n      pop\n        /* \"#utility.yul\":2177:2303   */\n      swap2\n      swap1\n      pop\n      jump\t// out\n        /* \"#utility.yul\":2309:2446   */\n    tag_55:\n        /* \"#utility.yul\":2370:2379   */\n      0x00\n        /* \"#utility.yul\":2403:2440   */\n      tag_107\n        /* \"#utility.yul\":2434:2439   */\n      dup3\n        /* \"#utility.yul\":2403:2440   */\n      tag_54\n      jump\t// in\n    tag_107:\n        /* \"#utility.yul\":2390:2440   */\n      swap1\n      pop\n        /* \"#utility.yul\":2309:2446   */\n      swap2\n      swap1\n      pop\n      jump\t// out\n        /* \"#utility.yul\":2452:2605   */\n    tag_56:\n        /* \"#utility.yul\":2550:2598   */\n      tag_109\n        /* \"#utility.yul\":2592:2597   */\n      dup2\n        /* \"#utility.yul\":2550:2598   */\n      tag_55\n      jump\t// in\n    tag_109:\n        /* \"#utility.yul\":2545:2548   */\n      dup3\n        /* \"#utility.yul\":2538:2599   */\n      mstore\n        /* \"#utility.yul\":2452:2605   */\n      pop\n      pop\n      jump\t// out\n        /* \"#utility.yul\":2611:2855   */\n    tag_14:\n        /* \"#utility.yul\":2715:2719   */\n      0x00\n        /* \"#utility.yul\":2753:2755   */\n      0x20\n        /* \"#utility.yul\":2742:2751   */\n      dup3\n        /* \"#utility.yul\":2738:2756   */\n      add\n        /* \"#utility.yul\":2730:2756   */\n      swap1\n      pop\n        /* \"#utility.yul\":2766:2848   */\n      tag_111\n        /* \"#utility.yul\":2845:2846   */\n      0x00\n        /* \"#utility.yul\":2834:2843   */\n      dup4\n        /* \"#utility.yul\":2830:2847   */\n      add\n        /* \"#utility.yul\":2821:2827   */\n      dup5\n        /* \"#utility.yul\":2766:2848   */\n      tag_56\n      jump\t// in\n    tag_111:\n        /* \"#utility.yul\":2611:2855   */\n      swap3\n      swap2\n      pop\n      pop\n      jump\t// out\n        /* \"#utility.yul\":2861:3193   */\n    tag_17:\n        /* \"#utility.yul\":2982:2986   */\n      0x00\n        /* \"#utility.yul\":3020:3022   */\n      0x40\n        /* \"#utility.yul\":3009:3018   */\n      dup3\n        /* \"#utility.yul\":3005:3023   */\n      add\n        /* \"#utility.yul\":2997:3023   */\n      swap1\n      pop\n        /* \"#utility.yul\":3033:3104   */\n      tag_113\n        /* \"#utility.yul\":3101:3102   */\n      0x00\n        /* \"#utility.yul\":3090:3099   */\n      dup4\n        /* \"#utility.yul\":3086:3103   */\n      add\n        /* \"#utility.yul\":3077:3083   */\n      dup6\n        /* \"#utility.yul\":3033:3104   */\n      tag_48\n      jump\t// in\n    tag_113:\n        /* \"#utility.yul\":3114:3186   */\n      tag_114\n        /* \"#utility.yul\":3182:3184   */\n      0x20\n        /* \"#utility.yul\":3171:3180   */\n      dup4\n        /* \"#utility.yul\":3167:3185   */\n      add\n        /* \"#utility.yul\":3158:3164   */\n      dup5\n        /* \"#utility.yul\":3114:3186   */\n      tag_48\n      jump\t// in\n    tag_114:\n        /* \"#utility.yul\":2861:3193   */\n      swap4\n      swap3\n      pop\n      pop\n      pop\n      jump\t// out\n        /* \"#utility.yul\":3199:3342   */\n    tag_57:\n        /* \"#utility.yul\":3256:3261   */\n      0x00\n        /* \"#utility.yul\":3287:3293   */\n      dup2\n        /* \"#utility.yul\":3281:3294   */\n      mload\n        /* \"#utility.yul\":3272:3294   */\n      swap1\n      pop\n        /* \"#utility.yul\":3303:3336   */\n      tag_116\n        /* \"#utility.yul\":3330:3335   */\n      dup2\n        /* \"#utility.yul\":3303:3336   */\n      tag_46\n      jump\t// in\n    tag_116:\n        /* \"#utility.yul\":3199:3342   */\n      swap3\n      swap2\n      pop\n      pop\n      jump\t// out\n        /* \"#utility.yul\":3348:3699   */\n    tag_20:\n        /* \"#utility.yul\":3418:3424   */\n      0x00\n        /* \"#utility.yul\":3467:3469   */\n      0x20\n        /* \"#utility.yul\":3455:3464   */\n      dup3\n        /* \"#utility.yul\":3446:3453   */\n      dup5\n        /* \"#utility.yul\":3442:3465   */\n      sub\n        /* \"#utility.yul\":3438:3470   */\n      slt\n        /* \"#utility.yul\":3435:3554   */\n      iszero\n      tag_118\n      jumpi\n        /* \"#utility.yul\":3473:3552   */\n      tag_119\n      tag_43\n      jump\t// in\n    tag_119:\n        /* \"#utility.yul\":3435:3554   */\n    tag_118:\n        /* \"#utility.yul\":3593:3594   */\n      0x00\n        /* \"#utility.yul\":3618:3682   */\n      tag_120\n        /* \"#utility.yul\":3674:3681   */\n      dup5\n        /* \"#utility.yul\":3665:3671   */\n      dup3\n        /* \"#utility.yul\":3654:3663   */\n      dup6\n        /* \"#utility.yul\":3650:3672   */\n      add\n        /* \"#utility.yul\":3618:3682   */\n      tag_57\n      jump\t// in\n    tag_120:\n        /* \"#utility.yul\":3608:3682   */\n      swap2\n      pop\n        /* \"#utility.yul\":3564:3692   */\n      pop\n        /* \"#utility.yul\":3348:3699   */\n      swap3\n      swap2\n      pop\n      pop\n      jump\t// out\n        /* \"#utility.yul\":3705:3811   */\n    tag_58:\n        /* \"#utility.yul\":3749:3757   */\n      0x00\n        /* \"#utility.yul\":3798:3803   */\n      dup2\n        /* \"#utility.yul\":3793:3796   */\n      0xe0\n        /* \"#utility.yul\":3789:3804   */\n      shr\n        /* \"#utility.yul\":3768:3804   */\n      swap1\n      pop\n        /* \"#utility.yul\":3705:3811   */\n      swap2\n      swap1\n      pop\n      jump\t// out\n        /* \"#utility.yul\":3817:4000   */\n    tag_26:\n        /* \"#utility.yul\":3852:3855   */\n      0x00\n        /* \"#utility.yul\":3890:3891   */\n      0x03\n        /* \"#utility.yul\":3872:3888   */\n      returndatasize\n        /* \"#utility.yul\":3869:3892   */\n      gt\n        /* \"#utility.yul\":3866:3994   */\n      iszero\n      tag_123\n      jumpi\n        /* \"#utility.yul\":3928:3929   */\n      0x04\n        /* \"#utility.yul\":3925:3926   */\n      0x00\n        /* \"#utility.yul\":3922:3923   */\n      dup1\n        /* \"#utility.yul\":3907:3930   */\n      returndatacopy\n        /* \"#utility.yul\":3950:3984   */\n      tag_124\n        /* \"#utility.yul\":3981:3982   */\n      0x00\n        /* \"#utility.yul\":3975:3983   */\n      mload\n        /* \"#utility.yul\":3950:3984   */\n      tag_58\n      jump\t// in\n    tag_124:\n        /* \"#utility.yul\":3943:3984   */\n      swap1\n      pop\n        /* \"#utility.yul\":3866:3994   */\n    tag_123:\n        /* \"#utility.yul\":3817:4000   */\n      swap1\n      jump\t// out\n        /* \"#utility.yul\":4006:4108   */\n    tag_59:\n        /* \"#utility.yul\":4047:4053   */\n      0x00\n        /* \"#utility.yul\":4098:4100   */\n      0x1f\n        /* \"#utility.yul\":4094:4101   */\n      not\n        /* \"#utility.yul\":4089:4091   */\n      0x1f\n        /* \"#utility.yul\":4082:4087   */\n      dup4\n        /* \"#utility.yul\":4078:4092   */\n      add\n        /* \"#utility.yul\":4074:4102   */\n      and\n        /* \"#utility.yul\":4064:4102   */\n      swap1\n      pop\n        /* \"#utility.yul\":4006:4108   */\n      swap2\n      swap1\n      pop\n      jump\t// out\n        /* \"#utility.yul\":4114:4294   */\n    tag_60:\n        /* \"#utility.yul\":4162:4239   */\n      0x4e487b7100000000000000000000000000000000000000000000000000000000\n        /* \"#utility.yul\":4159:4160   */\n      0x00\n        /* \"#utility.yul\":4152:4240   */\n      mstore\n        /* \"#utility.yul\":4259:4263   */\n      0x41\n        /* \"#utility.yul\":4256:4257   */\n      0x04\n        /* \"#utility.yul\":4249:4264   */\n      mstore\n        /* \"#utility.yul\":4283:4287   */\n      0x24\n        /* \"#utility.yul\":4280:4281   */\n      0x00\n        /* \"#utility.yul\":4273:4288   */\n      revert\n        /* \"#utility.yul\":4300:4581   */\n    tag_61:\n        /* \"#utility.yul\":4383:4410   */\n      tag_128\n        /* \"#utility.yul\":4405:4409   */\n      dup3\n        /* \"#utility.yul\":4383:4410   */\n      tag_59\n      jump\t// in\n    tag_128:\n        /* \"#utility.yul\":4375:4381   */\n      dup2\n        /* \"#utility.yul\":4371:4411   */\n      add\n        /* \"#utility.yul\":4513:4519   */\n      dup2\n        /* \"#utility.yul\":4501:4511   */\n      dup2\n        /* \"#utility.yul\":4498:4520   */\n      lt\n        /* \"#utility.yul\":4477:4495   */\n      0xffffffffffffffff\n        /* \"#utility.yul\":4465:4475   */\n      dup3\n        /* \"#utility.yul\":4462:4496   */\n      gt\n        /* \"#utility.yul\":4459:4521   */\n      or\n        /* \"#utility.yul\":4456:4544   */\n      iszero\n      tag_129\n      jumpi\n        /* \"#utility.yul\":4524:4542   */\n      tag_130\n      tag_60\n      jump\t// in\n    tag_130:\n        /* \"#utility.yul\":4456:4544   */\n    tag_129:\n        /* \"#utility.yul\":4564:4574   */\n      dup1\n        /* \"#utility.yul\":4560:4562   */\n      0x40\n        /* \"#utility.yul\":4553:4575   */\n      mstore\n        /* \"#utility.yul\":4343:4581   */\n      pop\n        /* \"#utility.yul\":4300:4581   */\n      pop\n      pop\n      jump\t// out\n        /* \"#utility.yul\":4587:5298   */\n    tag_28:\n        /* \"#utility.yul\":4626:4629   */\n      0x00\n        /* \"#utility.yul\":4664:4668   */\n      0x44\n        /* \"#utility.yul\":4646:4662   */\n      returndatasize\n        /* \"#utility.yul\":4643:4669   */\n      lt\n        /* \"#utility.yul\":4672:4677   */\n      tag_131\n        /* \"#utility.yul\":4640:4679   */\n      jumpi\n        /* \"#utility.yul\":4701:4721   */\n      tag_133\n      tag_42\n      jump\t// in\n    tag_133:\n        /* \"#utility.yul\":4776:4777   */\n      0x04\n        /* \"#utility.yul\":4758:4774   */\n      returndatasize\n        /* \"#utility.yul\":4754:4778   */\n      sub\n        /* \"#utility.yul\":4751:4752   */\n      0x04\n        /* \"#utility.yul\":4745:4749   */\n      dup3\n        /* \"#utility.yul\":4730:4779   */\n      returndatacopy\n        /* \"#utility.yul\":4809:4813   */\n      dup1\n        /* \"#utility.yul\":4803:4814   */\n      mload\n        /* \"#utility.yul\":4908:4924   */\n      returndatasize\n        /* \"#utility.yul\":4901:4905   */\n      0x24\n        /* \"#utility.yul\":4893:4899   */\n      dup3\n        /* \"#utility.yul\":4889:4906   */\n      add\n        /* \"#utility.yul\":4886:4925   */\n      gt\n        /* \"#utility.yul\":4853:4871   */\n      0xffffffffffffffff\n        /* \"#utility.yul\":4845:4851   */\n      dup3\n        /* \"#utility.yul\":4842:4872   */\n      gt\n        /* \"#utility.yul\":4826:4939   */\n      or\n        /* \"#utility.yul\":4823:4969   */\n      iszero\n      tag_134\n      jumpi\n        /* \"#utility.yul\":4954:4959   */\n      pop\n      pop\n      jump(tag_131)\n        /* \"#utility.yul\":4823:4969   */\n    tag_134:\n        /* \"#utility.yul\":5000:5006   */\n      dup1\n        /* \"#utility.yul\":4994:4998   */\n      dup3\n        /* \"#utility.yul\":4990:5007   */\n      add\n        /* \"#utility.yul\":5036:5039   */\n      dup1\n        /* \"#utility.yul\":5030:5040   */\n      mload\n        /* \"#utility.yul\":5063:5081   */\n      0xffffffffffffffff\n        /* \"#utility.yul\":5055:5061   */\n      dup2\n        /* \"#utility.yul\":5052:5082   */\n      gt\n        /* \"#utility.yul\":5049:5092   */\n      iszero\n      tag_135\n      jumpi\n        /* \"#utility.yul\":5085:5090   */\n      pop\n      pop\n      pop\n      pop\n      jump(tag_131)\n        /* \"#utility.yul\":5049:5092   */\n    tag_135:\n        /* \"#utility.yul\":5133:5139   */\n      dup1\n        /* \"#utility.yul\":5126:5130   */\n      0x20\n        /* \"#utility.yul\":5121:5124   */\n      dup4\n        /* \"#utility.yul\":5117:5131   */\n      add\n        /* \"#utility.yul\":5113:5140   */\n      add\n        /* \"#utility.yul\":5192:5193   */\n      0x04\n        /* \"#utility.yul\":5174:5190   */\n      returndatasize\n        /* \"#utility.yul\":5170:5194   */\n      sub\n        /* \"#utility.yul\":5164:5168   */\n      dup6\n        /* \"#utility.yul\":5160:5195   */\n      add\n        /* \"#utility.yul\":5155:5158   */\n      dup2\n        /* \"#utility.yul\":5152:5196   */\n      gt\n        /* \"#utility.yul\":5149:5206   */\n      iszero\n      tag_136\n      jumpi\n        /* \"#utility.yul\":5199:5204   */\n      pop\n      pop\n      pop\n      pop\n      pop\n      jump(tag_131)\n        /* \"#utility.yul\":5149:5206   */\n    tag_136:\n        /* \"#utility.yul\":5216:5273   */\n      tag_137\n        /* \"#utility.yul\":5264:5270   */\n      dup3\n        /* \"#utility.yul\":5258:5262   */\n      0x20\n        /* \"#utility.yul\":5254:5271   */\n      add\n        /* \"#utility.yul\":5246:5252   */\n      dup6\n        /* \"#utility.yul\":5242:5272   */\n      add\n        /* \"#utility.yul\":5236:5240   */\n      dup7\n        /* \"#utility.yul\":5216:5273   */\n      tag_61\n      jump\t// in\n    tag_137:\n        /* \"#utility.yul\":5289:5292   */\n      dup3\n        /* \"#utility.yul\":5282:5292   */\n      swap6\n      pop\n        /* \"#utility.yul\":4630:5298   */\n      pop\n      pop\n      pop\n      pop\n      pop\n        /* \"#utility.yul\":4587:5298   */\n    tag_131:\n      swap1\n      jump\t// out\n        /* \"#utility.yul\":5304:5473   */\n    tag_62:\n        /* \"#utility.yul\":5388:5399   */\n      0x00\n        /* \"#utility.yul\":5422:5428   */\n      dup3\n        /* \"#utility.yul\":5417:5420   */\n      dup3\n        /* \"#utility.yul\":5410:5429   */\n      mstore\n        /* \"#utility.yul\":5462:5466   */\n      0x20\n        /* \"#utility.yul\":5457:5460   */\n      dup3\n        /* \"#utility.yul\":5453:5467   */\n      add\n        /* \"#utility.yul\":5438:5467   */\n      swap1\n      pop\n        /* \"#utility.yul\":5304:5473   */\n      swap3\n      swap2\n      pop\n      pop\n      jump\t// out\n        /* \"#utility.yul\":5479:5643   */\n    tag_63:\n        /* \"#utility.yul\":5619:5635   */\n      0x7265766572742f72657175697265000000000000000000000000000000000000\n        /* \"#utility.yul\":5615:5616   */\n      0x00\n        /* \"#utility.yul\":5607:5613   */\n      dup3\n        /* \"#utility.yul\":5603:5617   */\n      add\n        /* \"#utility.yul\":5596:5636   */\n      mstore\n        /* \"#utility.yul\":5479:5643   */\n      pop\n      jump\t// out\n        /* \"#utility.yul\":5649:6015   */\n    tag_64:\n        /* \"#utility.yul\":5791:5794   */\n      0x00\n        /* \"#utility.yul\":5812:5879   */\n      tag_141\n        /* \"#utility.yul\":5876:5878   */\n      0x0e\n        /* \"#utility.yul\":5871:5874   */\n      dup4\n        /* \"#utility.yul\":5812:5879   */\n      tag_62\n      jump\t// in\n    tag_141:\n        /* \"#utility.yul\":5805:5879   */\n      swap2\n      pop\n        /* \"#utility.yul\":5888:5981   */\n      tag_142\n        /* \"#utility.yul\":5977:5980   */\n      dup3\n        /* \"#utility.yul\":5888:5981   */\n      tag_63\n      jump\t// in\n    tag_142:\n        /* \"#utility.yul\":6006:6008   */\n      0x20\n        /* \"#utility.yul\":6001:6004   */\n      dup3\n        /* \"#utility.yul\":5997:6009   */\n      add\n        /* \"#utility.yul\":5990:6009   */\n      swap1\n      pop\n        /* \"#utility.yul\":5649:6015   */\n      swap2\n      swap1\n      pop\n      jump\t// out\n        /* \"#utility.yul\":6021:6120   */\n    tag_65:\n        /* \"#utility.yul\":6073:6079   */\n      0x00\n        /* \"#utility.yul\":6107:6112   */\n      dup2\n        /* \"#utility.yul\":6101:6113   */\n      mload\n        /* \"#utility.yul\":6091:6113   */\n      swap1\n      pop\n        /* \"#utility.yul\":6021:6120   */\n      swap2\n      swap1\n      pop\n      jump\t// out\n        /* \"#utility.yul\":6126:6265   */\n    tag_66:\n        /* \"#utility.yul\":6215:6221   */\n      dup3\n        /* \"#utility.yul\":6210:6213   */\n      dup2\n        /* \"#utility.yul\":6205:6208   */\n      dup4\n        /* \"#utility.yul\":6199:6222   */\n      mcopy\n        /* \"#utility.yul\":6256:6257   */\n      0x00\n        /* \"#utility.yul\":6247:6253   */\n      dup4\n        /* \"#utility.yul\":6242:6245   */\n      dup4\n        /* \"#utility.yul\":6238:6254   */\n      add\n        /* \"#utility.yul\":6231:6258   */\n      mstore\n        /* \"#utility.yul\":6126:6265   */\n      pop\n      pop\n      pop\n      jump\t// out\n        /* \"#utility.yul\":6271:6648   */\n    tag_67:\n        /* \"#utility.yul\":6359:6362   */\n      0x00\n        /* \"#utility.yul\":6387:6426   */\n      tag_146\n        /* \"#utility.yul\":6420:6425   */\n      dup3\n        /* \"#utility.yul\":6387:6426   */\n      tag_65\n      jump\t// in\n    tag_146:\n        /* \"#utility.yul\":6442:6513   */\n      tag_147\n        /* \"#utility.yul\":6506:6512   */\n      dup2\n        /* \"#utility.yul\":6501:6504   */\n      dup6\n        /* \"#utility.yul\":6442:6513   */\n      tag_62\n      jump\t// in\n    tag_147:\n        /* \"#utility.yul\":6435:6513   */\n      swap4\n      pop\n        /* \"#utility.yul\":6522:6587   */\n      tag_148\n        /* \"#utility.yul\":6580:6586   */\n      dup2\n        /* \"#utility.yul\":6575:6578   */\n      dup6\n        /* \"#utility.yul\":6568:6572   */\n      0x20\n        /* \"#utility.yul\":6561:6566   */\n      dup7\n        /* \"#utility.yul\":6557:6573   */\n      add\n        /* \"#utility.yul\":6522:6587   */\n      tag_66\n      jump\t// in\n    tag_148:\n        /* \"#utility.yul\":6612:6641   */\n      tag_149\n        /* \"#utility.yul\":6634:6640   */\n      dup2\n        /* \"#utility.yul\":6612:6641   */\n      tag_59\n      jump\t// in\n    tag_149:\n        /* \"#utility.yul\":6607:6610   */\n      dup5\n        /* \"#utility.yul\":6603:6642   */\n      add\n        /* \"#utility.yul\":6596:6642   */\n      swap2\n      pop\n        /* \"#utility.yul\":6363:6648   */\n      pop\n        /* \"#utility.yul\":6271:6648   */\n      swap3\n      swap2\n      pop\n      pop\n      jump\t// out\n        /* \"#utility.yul\":6654:7274   */\n    tag_31:\n        /* \"#utility.yul\":6868:6872   */\n      0x00\n        /* \"#utility.yul\":6906:6908   */\n      0x40\n        /* \"#utility.yul\":6895:6904   */\n      dup3\n        /* \"#utility.yul\":6891:6909   */\n      add\n        /* \"#utility.yul\":6883:6909   */\n      swap1\n      pop\n        /* \"#utility.yul\":6955:6964   */\n      dup2\n        /* \"#utility.yul\":6949:6953   */\n      dup2\n        /* \"#utility.yul\":6945:6965   */\n      sub\n        /* \"#utility.yul\":6941:6942   */\n      0x00\n        /* \"#utility.yul\":6930:6939   */\n      dup4\n        /* \"#utility.yul\":6926:6943   */\n      add\n        /* \"#utility.yul\":6919:6966   */\n      mstore\n        /* \"#utility.yul\":6983:7114   */\n      tag_151\n        /* \"#utility.yul\":7109:7113   */\n      dup2\n        /* \"#utility.yul\":6983:7114   */\n      tag_64\n      jump\t// in\n    tag_151:\n        /* \"#utility.yul\":6975:7114   */\n      swap1\n      pop\n        /* \"#utility.yul\":7161:7170   */\n      dup2\n        /* \"#utility.yul\":7155:7159   */\n      dup2\n        /* \"#utility.yul\":7151:7171   */\n      sub\n        /* \"#utility.yul\":7146:7148   */\n      0x20\n        /* \"#utility.yul\":7135:7144   */\n      dup4\n        /* \"#utility.yul\":7131:7149   */\n      add\n        /* \"#utility.yul\":7124:7172   */\n      mstore\n        /* \"#utility.yul\":7189:7267   */\n      tag_152\n        /* \"#utility.yul\":7262:7266   */\n      dup2\n        /* \"#utility.yul\":7253:7259   */\n      dup5\n        /* \"#utility.yul\":7189:7267   */\n      tag_67\n      jump\t// in\n    tag_152:\n        /* \"#utility.yul\":7181:7267   */\n      swap1\n      pop\n        /* \"#utility.yul\":6654:7274   */\n      swap3\n      swap2\n      pop\n      pop\n      jump\t// out\n        /* \"#utility.yul\":7280:7480   */\n    tag_33:\n        /* \"#utility.yul\":7316:7323   */\n      0x00\n        /* \"#utility.yul\":7325:7329   */\n      dup1\n        /* \"#utility.yul\":7364:7368   */\n      0x23\n        /* \"#utility.yul\":7346:7362   */\n      returndatasize\n        /* \"#utility.yul\":7343:7369   */\n      gt\n        /* \"#utility.yul\":7340:7474   */\n      iszero\n      tag_154\n      jumpi\n        /* \"#utility.yul\":7405:7409   */\n      0x20\n        /* \"#utility.yul\":7402:7403   */\n      0x04\n        /* \"#utility.yul\":7399:7400   */\n      0x00\n        /* \"#utility.yul\":7384:7410   */\n      returndatacopy\n        /* \"#utility.yul\":7434:7435   */\n      0x01\n        /* \"#utility.yul\":7423:7435   */\n      swap2\n      pop\n        /* \"#utility.yul\":7462:7463   */\n      0x00\n        /* \"#utility.yul\":7456:7464   */\n      mload\n        /* \"#utility.yul\":7448:7464   */\n      swap1\n      pop\n        /* \"#utility.yul\":7340:7474   */\n    tag_154:\n        /* \"#utility.yul\":7280:7480   */\n      swap1\n      swap2\n      jump\t// out\n        /* \"#utility.yul\":7486:7653   */\n    tag_68:\n        /* \"#utility.yul\":7626:7645   */\n      0x6173736572744572726f722f50616e6963000000000000000000000000000000\n        /* \"#utility.yul\":7622:7623   */\n      0x00\n        /* \"#utility.yul\":7614:7620   */\n      dup3\n        /* \"#utility.yul\":7610:7624   */\n      add\n        /* \"#utility.yul\":7603:7646   */\n      mstore\n        /* \"#utility.yul\":7486:7653   */\n      pop\n      jump\t// out\n        /* \"#utility.yul\":7659:8025   */\n    tag_69:\n        /* \"#utility.yul\":7801:7804   */\n      0x00\n        /* \"#utility.yul\":7822:7889   */\n      tag_157\n        /* \"#utility.yul\":7886:7888   */\n      0x11\n        /* \"#utility.yul\":7881:7884   */\n      dup4\n        /* \"#utility.yul\":7822:7889   */\n      tag_62\n      jump\t// in\n    tag_157:\n        /* \"#utility.yul\":7815:7889   */\n      swap2\n      pop\n        /* \"#utility.yul\":7898:7991   */\n      tag_158\n        /* \"#utility.yul\":7987:7990   */\n      dup3\n        /* \"#utility.yul\":7898:7991   */\n      tag_68\n      jump\t// in\n    tag_158:\n        /* \"#utility.yul\":8016:8018   */\n      0x20\n        /* \"#utility.yul\":8011:8014   */\n      dup3\n        /* \"#utility.yul\":8007:8019   */\n      add\n        /* \"#utility.yul\":8000:8019   */\n      swap1\n      pop\n        /* \"#utility.yul\":7659:8025   */\n      swap2\n      swap1\n      pop\n      jump\t// out\n        /* \"#utility.yul\":8031:8560   */\n    tag_36:\n        /* \"#utility.yul\":8225:8229   */\n      0x00\n        /* \"#utility.yul\":8263:8265   */\n      0x40\n        /* \"#utility.yul\":8252:8261   */\n      dup3\n        /* \"#utility.yul\":8248:8266   */\n      add\n        /* \"#utility.yul\":8240:8266   */\n      swap1\n      pop\n        /* \"#utility.yul\":8312:8321   */\n      dup2\n        /* \"#utility.yul\":8306:8310   */\n      dup2\n        /* \"#utility.yul\":8302:8322   */\n      sub\n        /* \"#utility.yul\":8298:8299   */\n      0x00\n        /* \"#utility.yul\":8287:8296   */\n      dup4\n        /* \"#utility.yul\":8283:8300   */\n      add\n        /* \"#utility.yul\":8276:8323   */\n      mstore\n        /* \"#utility.yul\":8340:8471   */\n      tag_160\n        /* \"#utility.yul\":8466:8470   */\n      dup2\n        /* \"#utility.yul\":8340:8471   */\n      tag_69\n      jump\t// in\n    tag_160:\n        /* \"#utility.yul\":8332:8471   */\n      swap1\n      pop\n        /* \"#utility.yul\":8481:8553   */\n      tag_161\n        /* \"#utility.yul\":8549:8551   */\n      0x20\n        /* \"#utility.yul\":8538:8547   */\n      dup4\n        /* \"#utility.yul\":8534:8552   */\n      add\n        /* \"#utility.yul\":8525:8531   */\n      dup5\n        /* \"#utility.yul\":8481:8553   */\n      tag_48\n      jump\t// in\n    tag_161:\n        /* \"#utility.yul\":8031:8560   */\n      swap3\n      swap2\n      pop\n      pop\n      jump\t// out\n        /* \"#utility.yul\":8566:8729   */\n    tag_70:\n        /* \"#utility.yul\":8706:8721   */\n      0x4c6f776c6576656c4572726f7200000000000000000000000000000000000000\n        /* \"#utility.yul\":8702:8703   */\n      0x00\n        /* \"#utility.yul\":8694:8700   */\n      dup3\n        /* \"#utility.yul\":8690:8704   */\n      add\n        /* \"#utility.yul\":8683:8722   */\n      mstore\n        /* \"#utility.yul\":8566:8729   */\n      pop\n      jump\t// out\n        /* \"#utility.yul\":8735:9101   */\n    tag_71:\n        /* \"#utility.yul\":8877:8880   */\n      0x00\n        /* \"#utility.yul\":8898:8965   */\n      tag_164\n        /* \"#utility.yul\":8962:8964   */\n      0x0d\n        /* \"#utility.yul\":8957:8960   */\n      dup4\n        /* \"#utility.yul\":8898:8965   */\n      tag_62\n      jump\t// in\n    tag_164:\n        /* \"#utility.yul\":8891:8965   */\n      swap2\n      pop\n        /* \"#utility.yul\":8974:9067   */\n      tag_165\n        /* \"#utility.yul\":9063:9066   */\n      dup3\n        /* \"#utility.yul\":8974:9067   */\n      tag_70\n      jump\t// in\n    tag_165:\n        /* \"#utility.yul\":9092:9094   */\n      0x20\n        /* \"#utility.yul\":9087:9090   */\n      dup3\n        /* \"#utility.yul\":9083:9095   */\n      add\n        /* \"#utility.yul\":9076:9095   */\n      swap1\n      pop\n        /* \"#utility.yul\":8735:9101   */\n      swap2\n      swap1\n      pop\n      jump\t// out\n        /* \"#utility.yul\":9107:9205   */\n    tag_72:\n        /* \"#utility.yul\":9158:9164   */\n      0x00\n        /* \"#utility.yul\":9192:9197   */\n      dup2\n        /* \"#utility.yul\":9186:9198   */\n      mload\n        /* \"#utility.yul\":9176:9198   */\n      swap1\n      pop\n        /* \"#utility.yul\":9107:9205   */\n      swap2\n      swap1\n      pop\n      jump\t// out\n        /* \"#utility.yul\":9211:9379   */\n    tag_73:\n        /* \"#utility.yul\":9294:9305   */\n      0x00\n        /* \"#utility.yul\":9328:9334   */\n      dup3\n        /* \"#utility.yul\":9323:9326   */\n      dup3\n        /* \"#utility.yul\":9316:9335   */\n      mstore\n        /* \"#utility.yul\":9368:9372   */\n      0x20\n        /* \"#utility.yul\":9363:9366   */\n      dup3\n        /* \"#utility.yul\":9359:9373   */\n      add\n        /* \"#utility.yul\":9344:9373   */\n      swap1\n      pop\n        /* \"#utility.yul\":9211:9379   */\n      swap3\n      swap2\n      pop\n      pop\n      jump\t// out\n        /* \"#utility.yul\":9385:9758   */\n    tag_74:\n        /* \"#utility.yul\":9471:9474   */\n      0x00\n        /* \"#utility.yul\":9499:9537   */\n      tag_169\n        /* \"#utility.yul\":9531:9536   */\n      dup3\n        /* \"#utility.yul\":9499:9537   */\n      tag_72\n      jump\t// in\n    tag_169:\n        /* \"#utility.yul\":9553:9623   */\n      tag_170\n        /* \"#utility.yul\":9616:9622   */\n      dup2\n        /* \"#utility.yul\":9611:9614   */\n      dup6\n        /* \"#utility.yul\":9553:9623   */\n      tag_73\n      jump\t// in\n    tag_170:\n        /* \"#utility.yul\":9546:9623   */\n      swap4\n      pop\n        /* \"#utility.yul\":9632:9697   */\n      tag_171\n        /* \"#utility.yul\":9690:9696   */\n      dup2\n        /* \"#utility.yul\":9685:9688   */\n      dup6\n        /* \"#utility.yul\":9678:9682   */\n      0x20\n        /* \"#utility.yul\":9671:9676   */\n      dup7\n        /* \"#utility.yul\":9667:9683   */\n      add\n        /* \"#utility.yul\":9632:9697   */\n      tag_66\n      jump\t// in\n    tag_171:\n        /* \"#utility.yul\":9722:9751   */\n      tag_172\n        /* \"#utility.yul\":9744:9750   */\n      dup2\n        /* \"#utility.yul\":9722:9751   */\n      tag_59\n      jump\t// in\n    tag_172:\n        /* \"#utility.yul\":9717:9720   */\n      dup5\n        /* \"#utility.yul\":9713:9752   */\n      add\n        /* \"#utility.yul\":9706:9752   */\n      swap2\n      pop\n        /* \"#utility.yul\":9475:9758   */\n      pop\n        /* \"#utility.yul\":9385:9758   */\n      swap3\n      swap2\n      pop\n      pop\n      jump\t// out\n        /* \"#utility.yul\":9764:10380   */\n    tag_40:\n        /* \"#utility.yul\":9976:9980   */\n      0x00\n        /* \"#utility.yul\":10014:10016   */\n      0x40\n        /* \"#utility.yul\":10003:10012   */\n      dup3\n        /* \"#utility.yul\":9999:10017   */\n      add\n        /* \"#utility.yul\":9991:10017   */\n      swap1\n      pop\n        /* \"#utility.yul\":10063:10072   */\n      dup2\n        /* \"#utility.yul\":10057:10061   */\n      dup2\n        /* \"#utility.yul\":10053:10073   */\n      sub\n        /* \"#utility.yul\":10049:10050   */\n      0x00\n        /* \"#utility.yul\":10038:10047   */\n      dup4\n        /* \"#utility.yul\":10034:10051   */\n      add\n        /* \"#utility.yul\":10027:10074   */\n      mstore\n        /* \"#utility.yul\":10091:10222   */\n      tag_174\n        /* \"#utility.yul\":10217:10221   */\n      dup2\n        /* \"#utility.yul\":10091:10222   */\n      tag_71\n      jump\t// in\n    tag_174:\n        /* \"#utility.yul\":10083:10222   */\n      swap1\n      pop\n        /* \"#utility.yul\":10269:10278   */\n      dup2\n        /* \"#utility.yul\":10263:10267   */\n      dup2\n        /* \"#utility.yul\":10259:10279   */\n      sub\n        /* \"#utility.yul\":10254:10256   */\n      0x20\n        /* \"#utility.yul\":10243:10252   */\n      dup4\n        /* \"#utility.yul\":10239:10257   */\n      add\n        /* \"#utility.yul\":10232:10280   */\n      mstore\n        /* \"#utility.yul\":10297:10373   */\n      tag_175\n        /* \"#utility.yul\":10368:10372   */\n      dup2\n        /* \"#utility.yul\":10359:10365   */\n      dup5\n        /* \"#utility.yul\":10297:10373   */\n      tag_74\n      jump\t// in\n    tag_175:\n        /* \"#utility.yul\":10289:10373   */\n      swap1\n      pop\n        /* \"#utility.yul\":9764:10380   */\n      swap3\n      swap2\n      pop\n      pop\n      jump\t// out\n\n    auxdata: 0xa2646970667358221220c5dece6052948cd5b347c05e897264f7af03c9969edd26c16dac4ddbf22336c864736f6c634300081a0033\n}\n\nsub_1: assembly {\n        /* \"lec27.sol\":2474:2684  contract math{... */\n      mstore(0x40, 0x80)\n      callvalue\n      dup1\n      iszero\n      tag_1\n      jumpi\n      0x00\n      dup1\n      revert\n    tag_1:\n      pop\n      dataSize(sub_0)\n      dup1\n      dataOffset(sub_0)\n      0x00\n      codecopy\n      0x00\n      return\n    stop\n\n    sub_0: assembly {\n            /* \"lec27.sol\":2474:2684  contract math{... */\n          mstore(0x40, 0x80)\n          callvalue\n          dup1\n          iszero\n          tag_1\n          jumpi\n          0x00\n          dup1\n          revert\n        tag_1:\n          pop\n          jumpi(tag_2, lt(calldatasize, 0x04))\n          shr(0xe0, calldataload(0x00))\n          dup1\n          0xe0068052\n          eq\n          tag_3\n          jumpi\n        tag_2:\n          0x00\n          dup1\n          revert\n            /* \"lec27.sol\":2498:2682  function division(uint256 _num1,uint256 _num2) public pure returns (uint256){... */\n        tag_3:\n          tag_4\n          0x04\n          dup1\n          calldatasize\n          sub\n          dup2\n          add\n          swap1\n          tag_5\n          swap2\n          swap1\n          tag_6\n          jump\t// in\n        tag_5:\n          tag_7\n          jump\t// in\n        tag_4:\n          mload(0x40)\n          tag_8\n          swap2\n          swap1\n          tag_9\n          jump\t// in\n        tag_8:\n          mload(0x40)\n          dup1\n          swap2\n          sub\n          swap1\n          return\n        tag_7:\n            /* \"lec27.sol\":2566:2573  uint256 */\n          0x00\n            /* \"lec27.sol\":2598:2600  10 */\n          0x0a\n            /* \"lec27.sol\":2592:2597  _num1 */\n          dup4\n            /* \"lec27.sol\":2592:2600  _num1<10 */\n          lt\n            /* \"lec27.sol\":2584:2634  require(_num1<10,\"num1 shoud not be more than 10\") */\n          tag_11\n          jumpi\n          mload(0x40)\n          0x08c379a000000000000000000000000000000000000000000000000000000000\n          dup2\n          mstore\n          0x04\n          add\n          tag_12\n          swap1\n          tag_13\n          jump\t// in\n        tag_12:\n          mload(0x40)\n          dup1\n          swap2\n          sub\n          swap1\n          revert\n        tag_11:\n            /* \"lec27.sol\":2659:2664  _num2 */\n          dup2\n            /* \"lec27.sol\":2653:2658  _num1 */\n          dup4\n            /* \"lec27.sol\":2653:2664  _num1/_num2 */\n          tag_14\n          swap2\n          swap1\n          tag_15\n          jump\t// in\n        tag_14:\n            /* \"lec27.sol\":2646:2664  return _num1/_num2 */\n          swap1\n          pop\n            /* \"lec27.sol\":2498:2682  function division(uint256 _num1,uint256 _num2) public pure returns (uint256){... */\n          swap3\n          swap2\n          pop\n          pop\n          jump\t// out\n            /* \"#utility.yul\":88:205   */\n        tag_17:\n            /* \"#utility.yul\":197:198   */\n          0x00\n            /* \"#utility.yul\":194:195   */\n          dup1\n            /* \"#utility.yul\":187:199   */\n          revert\n            /* \"#utility.yul\":334:411   */\n        tag_19:\n            /* \"#utility.yul\":371:378   */\n          0x00\n            /* \"#utility.yul\":400:405   */\n          dup2\n            /* \"#utility.yul\":389:405   */\n          swap1\n          pop\n            /* \"#utility.yul\":334:411   */\n          swap2\n          swap1\n          pop\n          jump\t// out\n            /* \"#utility.yul\":417:539   */\n        tag_20:\n            /* \"#utility.yul\":490:514   */\n          tag_34\n            /* \"#utility.yul\":508:513   */\n          dup2\n            /* \"#utility.yul\":490:514   */\n          tag_19\n          jump\t// in\n        tag_34:\n            /* \"#utility.yul\":483:488   */\n          dup2\n            /* \"#utility.yul\":480:515   */\n          eq\n            /* \"#utility.yul\":470:533   */\n          tag_35\n          jumpi\n            /* \"#utility.yul\":529:530   */\n          0x00\n            /* \"#utility.yul\":526:527   */\n          dup1\n            /* \"#utility.yul\":519:531   */\n          revert\n            /* \"#utility.yul\":470:533   */\n        tag_35:\n            /* \"#utility.yul\":417:539   */\n          pop\n          jump\t// out\n            /* \"#utility.yul\":545:684   */\n        tag_21:\n            /* \"#utility.yul\":591:596   */\n          0x00\n            /* \"#utility.yul\":629:635   */\n          dup2\n            /* \"#utility.yul\":616:636   */\n          calldataload\n            /* \"#utility.yul\":607:636   */\n          swap1\n          pop\n            /* \"#utility.yul\":645:678   */\n          tag_37\n            /* \"#utility.yul\":672:677   */\n          dup2\n            /* \"#utility.yul\":645:678   */\n          tag_20\n          jump\t// in\n        tag_37:\n            /* \"#utility.yul\":545:684   */\n          swap3\n          swap2\n          pop\n          pop\n          jump\t// out\n            /* \"#utility.yul\":690:1164   */\n        tag_6:\n            /* \"#utility.yul\":758:764   */\n          0x00\n            /* \"#utility.yul\":766:772   */\n          dup1\n            /* \"#utility.yul\":815:817   */\n          0x40\n            /* \"#utility.yul\":803:812   */\n          dup4\n            /* \"#utility.yul\":794:801   */\n          dup6\n            /* \"#utility.yul\":790:813   */\n          sub\n            /* \"#utility.yul\":786:818   */\n          slt\n            /* \"#utility.yul\":783:902   */\n          iszero\n          tag_39\n          jumpi\n            /* \"#utility.yul\":821:900   */\n          tag_40\n          tag_17\n          jump\t// in\n        tag_40:\n            /* \"#utility.yul\":783:902   */\n        tag_39:\n            /* \"#utility.yul\":941:942   */\n          0x00\n            /* \"#utility.yul\":966:1019   */\n          tag_41\n            /* \"#utility.yul\":1011:1018   */\n          dup6\n            /* \"#utility.yul\":1002:1008   */\n          dup3\n            /* \"#utility.yul\":991:1000   */\n          dup7\n            /* \"#utility.yul\":987:1009   */\n          add\n            /* \"#utility.yul\":966:1019   */\n          tag_21\n          jump\t// in\n        tag_41:\n            /* \"#utility.yul\":956:1019   */\n          swap3\n          pop\n            /* \"#utility.yul\":912:1029   */\n          pop\n            /* \"#utility.yul\":1068:1070   */\n          0x20\n            /* \"#utility.yul\":1094:1147   */\n          tag_42\n            /* \"#utility.yul\":1139:1146   */\n          dup6\n            /* \"#utility.yul\":1130:1136   */\n          dup3\n            /* \"#utility.yul\":1119:1128   */\n          dup7\n            /* \"#utility.yul\":1115:1137   */\n          add\n            /* \"#utility.yul\":1094:1147   */\n          tag_21\n          jump\t// in\n        tag_42:\n            /* \"#utility.yul\":1084:1147   */\n          swap2\n          pop\n            /* \"#utility.yul\":1039:1157   */\n          pop\n            /* \"#utility.yul\":690:1164   */\n          swap3\n          pop\n          swap3\n          swap1\n          pop\n          jump\t// out\n            /* \"#utility.yul\":1170:1288   */\n        tag_22:\n            /* \"#utility.yul\":1257:1281   */\n          tag_44\n            /* \"#utility.yul\":1275:1280   */\n          dup2\n            /* \"#utility.yul\":1257:1281   */\n          tag_19\n          jump\t// in\n        tag_44:\n            /* \"#utility.yul\":1252:1255   */\n          dup3\n            /* \"#utility.yul\":1245:1282   */\n          mstore\n            /* \"#utility.yul\":1170:1288   */\n          pop\n          pop\n          jump\t// out\n            /* \"#utility.yul\":1294:1516   */\n        tag_9:\n            /* \"#utility.yul\":1387:1391   */\n          0x00\n            /* \"#utility.yul\":1425:1427   */\n          0x20\n            /* \"#utility.yul\":1414:1423   */\n          dup3\n            /* \"#utility.yul\":1410:1428   */\n          add\n            /* \"#utility.yul\":1402:1428   */\n          swap1\n          pop\n            /* \"#utility.yul\":1438:1509   */\n          tag_46\n            /* \"#utility.yul\":1506:1507   */\n          0x00\n            /* \"#utility.yul\":1495:1504   */\n          dup4\n            /* \"#utility.yul\":1491:1508   */\n          add\n            /* \"#utility.yul\":1482:1488   */\n          dup5\n            /* \"#utility.yul\":1438:1509   */\n          tag_22\n          jump\t// in\n        tag_46:\n            /* \"#utility.yul\":1294:1516   */\n          swap3\n          swap2\n          pop\n          pop\n          jump\t// out\n            /* \"#utility.yul\":1522:1691   */\n        tag_23:\n            /* \"#utility.yul\":1606:1617   */\n          0x00\n            /* \"#utility.yul\":1640:1646   */\n          dup3\n            /* \"#utility.yul\":1635:1638   */\n          dup3\n            /* \"#utility.yul\":1628:1647   */\n          mstore\n            /* \"#utility.yul\":1680:1684   */\n          0x20\n            /* \"#utility.yul\":1675:1678   */\n          dup3\n            /* \"#utility.yul\":1671:1685   */\n          add\n            /* \"#utility.yul\":1656:1685   */\n          swap1\n          pop\n            /* \"#utility.yul\":1522:1691   */\n          swap3\n          swap2\n          pop\n          pop\n          jump\t// out\n            /* \"#utility.yul\":1697:1877   */\n        tag_24:\n            /* \"#utility.yul\":1837:1869   */\n          0x6e756d312073686f7564206e6f74206265206d6f7265207468616e2031300000\n            /* \"#utility.yul\":1833:1834   */\n          0x00\n            /* \"#utility.yul\":1825:1831   */\n          dup3\n            /* \"#utility.yul\":1821:1835   */\n          add\n            /* \"#utility.yul\":1814:1870   */\n          mstore\n            /* \"#utility.yul\":1697:1877   */\n          pop\n          jump\t// out\n            /* \"#utility.yul\":1883:2249   */\n        tag_25:\n            /* \"#utility.yul\":2025:2028   */\n          0x00\n            /* \"#utility.yul\":2046:2113   */\n          tag_50\n            /* \"#utility.yul\":2110:2112   */\n          0x1e\n            /* \"#utility.yul\":2105:2108   */\n          dup4\n            /* \"#utility.yul\":2046:2113   */\n          tag_23\n          jump\t// in\n        tag_50:\n            /* \"#utility.yul\":2039:2113   */\n          swap2\n          pop\n            /* \"#utility.yul\":2122:2215   */\n          tag_51\n            /* \"#utility.yul\":2211:2214   */\n          dup3\n            /* \"#utility.yul\":2122:2215   */\n          tag_24\n          jump\t// in\n        tag_51:\n            /* \"#utility.yul\":2240:2242   */\n          0x20\n            /* \"#utility.yul\":2235:2238   */\n          dup3\n            /* \"#utility.yul\":2231:2243   */\n          add\n            /* \"#utility.yul\":2224:2243   */\n          swap1\n          pop\n            /* \"#utility.yul\":1883:2249   */\n          swap2\n          swap1\n          pop\n          jump\t// out\n            /* \"#utility.yul\":2255:2674   */\n        tag_13:\n            /* \"#utility.yul\":2421:2425   */\n          0x00\n            /* \"#utility.yul\":2459:2461   */\n          0x20\n            /* \"#utility.yul\":2448:2457   */\n          dup3\n            /* \"#utility.yul\":2444:2462   */\n          add\n            /* \"#utility.yul\":2436:2462   */\n          swap1\n          pop\n            /* \"#utility.yul\":2508:2517   */\n          dup2\n            /* \"#utility.yul\":2502:2506   */\n          dup2\n            /* \"#utility.yul\":2498:2518   */\n          sub\n            /* \"#utility.yul\":2494:2495   */\n          0x00\n            /* \"#utility.yul\":2483:2492   */\n          dup4\n            /* \"#utility.yul\":2479:2496   */\n          add\n            /* \"#utility.yul\":2472:2519   */\n          mstore\n            /* \"#utility.yul\":2536:2667   */\n          tag_53\n            /* \"#utility.yul\":2662:2666   */\n          dup2\n            /* \"#utility.yul\":2536:2667   */\n          tag_25\n          jump\t// in\n        tag_53:\n            /* \"#utility.yul\":2528:2667   */\n          swap1\n          pop\n            /* \"#utility.yul\":2255:2674   */\n          swap2\n          swap1\n          pop\n          jump\t// out\n            /* \"#utility.yul\":2680:2860   */\n        tag_26:\n            /* \"#utility.yul\":2728:2805   */\n          0x4e487b7100000000000000000000000000000000000000000000000000000000\n            /* \"#utility.yul\":2725:2726   */\n          0x00\n            /* \"#utility.yul\":2718:2806   */\n          mstore\n            /* \"#utility.yul\":2825:2829   */\n          0x12\n            /* \"#utility.yul\":2822:2823   */\n          0x04\n            /* \"#utility.yul\":2815:2830   */\n          mstore\n            /* \"#utility.yul\":2849:2853   */\n          0x24\n            /* \"#utility.yul\":2846:2847   */\n          0x00\n            /* \"#utility.yul\":2839:2854   */\n          revert\n            /* \"#utility.yul\":3052:3237   */\n        tag_15:\n            /* \"#utility.yul\":3092:3093   */\n          0x00\n            /* \"#utility.yul\":3109:3129   */\n          tag_57\n            /* \"#utility.yul\":3127:3128   */\n          dup3\n            /* \"#utility.yul\":3109:3129   */\n          tag_19\n          jump\t// in\n        tag_57:\n            /* \"#utility.yul\":3104:3129   */\n          swap2\n          pop\n            /* \"#utility.yul\":3143:3163   */\n          tag_58\n            /* \"#utility.yul\":3161:3162   */\n          dup4\n            /* \"#utility.yul\":3143:3163   */\n          tag_19\n          jump\t// in\n        tag_58:\n            /* \"#utility.yul\":3138:3163   */\n          swap3\n          pop\n            /* \"#utility.yul\":3182:3183   */\n          dup3\n            /* \"#utility.yul\":3172:3207   */\n          tag_59\n          jumpi\n            /* \"#utility.yul\":3187:3205   */\n          tag_60\n          tag_26\n          jump\t// in\n        tag_60:\n            /* \"#utility.yul\":3172:3207   */\n        tag_59:\n            /* \"#utility.yul\":3229:3230   */\n          dup3\n            /* \"#utility.yul\":3226:3227   */\n          dup3\n            /* \"#utility.yul\":3222:3231   */\n          div\n            /* \"#utility.yul\":3217:3231   */\n          swap1\n          pop\n            /* \"#utility.yul\":3052:3237   */\n          swap3\n          swap2\n          pop\n          pop\n          jump\t// out\n\n        auxdata: 0xa26469706673582212204dfc6b16c1b52438d02cf0337949787d08d0d8ccebe77fd10542f6dc08892e6f64736f6c634300081a0033\n    }\n}\n",
				"bytecode": {
					"linkReferences": {},
					"object": "6080604052604051600e906074565b604051809103905ff0801580156026573d5f803e3d5ffd5b505f806101000a81548173ffffffffffffffffffffffffffffffffffffffff021916908373ffffffffffffffffffffffffffffffffffffffff160217905550348015606f575f80fd5b506081565b6102798061088483390190565b6107f68061008e5f395ff3fe608060405234801561000f575f80fd5b5060043610610034575f3560e01c80630fc6b51c146100385780639056061014610069575b5f80fd5b610052600480360381019061004d91906102d1565b610087565b604051610060929190610338565b60405180910390f35b61007161026e565b60405161007e91906103d9565b60405180910390f35b5f805f8054906101000a900473ffffffffffffffffffffffffffffffffffffffff1673ffffffffffffffffffffffffffffffffffffffff1663e006805285856040518363ffffffff1660e01b81526004016100e39291906103f2565b602060405180830381865afa92505050801561011d57506040513d601f19601f8201168201806040525081019061011a919061042d565b60015b61025e57610129610464565b806308c379a00361018b575061013d6104f1565b8061014857506101eb565b7f1a105f82e7a73e98ff8b7e5e0479a23ba4df818edeafeec2e4bdfe52624b3ba181604051610177919061062a565b60405180910390a15f809250925050610267565b634e487b71036101eb5761019d61065d565b906101a857506101eb565b7fa999f44f5ca01f1755a1d8c28c08bdb6b5bff8c080bb72cc38486ebae8c928a6816040516101d791906106c5565b60405180910390a15f809250925050610267565b3d805f8114610215576040519150601f19603f3d011682016040523d82523d5f602084013e61021a565b606091505b507f0a38afcafc8effb8f0fe817fd60b9ca57e0fde5511f65c8ba69a3a39721548318160405161024a919061078d565b60405180910390a15f809250925050610267565b80600192509250505b9250929050565b5f8054906101000a900473ffffffffffffffffffffffffffffffffffffffff1681565b5f604051905090565b5f80fd5b5f819050919050565b6102b08161029e565b81146102ba575f80fd5b50565b5f813590506102cb816102a7565b92915050565b5f80604083850312156102e7576102e661029a565b5b5f6102f4858286016102bd565b9250506020610305858286016102bd565b9150509250929050565b6103188161029e565b82525050565b5f8115159050919050565b6103328161031e565b82525050565b5f60408201905061034b5f83018561030f565b6103586020830184610329565b9392505050565b5f73ffffffffffffffffffffffffffffffffffffffff82169050919050565b5f819050919050565b5f6103a161039c6103978461035f565b61037e565b61035f565b9050919050565b5f6103b282610387565b9050919050565b5f6103c3826103a8565b9050919050565b6103d3816103b9565b82525050565b5f6020820190506103ec5f8301846103ca565b92915050565b5f6040820190506104055f83018561030f565b610412602083018461030f565b9392505050565b5f81519050610427816102a7565b92915050565b5f602082840312156104425761044161029a565b5b5f61044f84828501610419565b91505092915050565b5f8160e01c9050919050565b5f60033d11156104805760045f803e61047d5f51610458565b90505b90565b5f601f19601f8301169050919050565b7f4e487b71000000000000000000000000000000000000000000000000000000005f52604160045260245ffd5b6104c982610483565b810181811067ffffffffffffffff821117156104e8576104e7610493565b5b80604052505050565b5f60443d1061057d57610502610291565b60043d036004823e80513d602482011167ffffffffffffffff8211171561052a57505061057d565b808201805167ffffffffffffffff811115610548575050505061057d565b80602083010160043d03850181111561056557505050505061057d565b610574826020018501866104c0565b82955050505050505b90565b5f82825260208201905092915050565b7f7265766572742f726571756972650000000000000000000000000000000000005f82015250565b5f6105c4600e83610580565b91506105cf82610590565b602082019050919050565b5f81519050919050565b8281835e5f83830152505050565b5f6105fc826105da565b6106068185610580565b93506106168185602086016105e4565b61061f81610483565b840191505092915050565b5f6040820190508181035f830152610641816105b8565b9050818103602083015261065581846105f2565b905092915050565b5f8060233d111561067757602060045f3e600191505f5190505b9091565b7f6173736572744572726f722f50616e69630000000000000000000000000000005f82015250565b5f6106af601183610580565b91506106ba8261067b565b602082019050919050565b5f6040820190508181035f8301526106dc816106a3565b90506106eb602083018461030f565b92915050565b7f4c6f776c6576656c4572726f72000000000000000000000000000000000000005f82015250565b5f610725600d83610580565b9150610730826106f1565b602082019050919050565b5f81519050919050565b5f82825260208201905092915050565b5f61075f8261073b565b6107698185610745565b93506107798185602086016105e4565b61078281610483565b840191505092915050565b5f6040820190508181035f8301526107a481610719565b905081810360208301526107b88184610755565b90509291505056fea2646970667358221220c5dece6052948cd5b347c05e897264f7af03c9969edd26c16dac4ddbf22336c864736f6c634300081a00336080604052348015600e575f80fd5b5061025d8061001c5f395ff3fe608060405234801561000f575f80fd5b5060043610610029575f3560e01c8063e00680521461002d575b5f80fd5b610047600480360381019061004291906100ec565b61005d565b6040516100549190610139565b60405180910390f35b5f600a83106100a1576040517f08c379a0000000000000000000000000000000000000000000000000000000008152600401610098906101ac565b60405180910390fd5b81836100ad91906101f7565b905092915050565b5f80fd5b5f819050919050565b6100cb816100b9565b81146100d5575f80fd5b50565b5f813590506100e6816100c2565b92915050565b5f8060408385031215610102576101016100b5565b5b5f61010f858286016100d8565b9250506020610120858286016100d8565b9150509250929050565b610133816100b9565b82525050565b5f60208201905061014c5f83018461012a565b92915050565b5f82825260208201905092915050565b7f6e756d312073686f7564206e6f74206265206d6f7265207468616e20313000005f82015250565b5f610196601e83610152565b91506101a182610162565b602082019050919050565b5f6020820190508181035f8301526101c38161018a565b9050919050565b7f4e487b71000000000000000000000000000000000000000000000000000000005f52601260045260245ffd5b5f610201826100b9565b915061020c836100b9565b92508261021c5761021b6101ca565b5b82820490509291505056fea26469706673582212204dfc6b16c1b52438d02cf0337949787d08d0d8ccebe77fd10542f6dc08892e6f64736f6c634300081a0033",
					"opcodes": "PUSH1 0x80 PUSH1 0x40 MSTORE PUSH1 0x40 MLOAD PUSH1 0xE SWAP1 PUSH1 0x74 JUMP JUMPDEST PUSH1 0x40 MLOAD DUP1 SWAP2 SUB SWAP1 PUSH0 CREATE DUP1 ISZERO DUP1 ISZERO PUSH1 0x26 JUMPI RETURNDATASIZE PUSH0 DUP1 RETURNDATACOPY RETURNDATASIZE PUSH0 REVERT JUMPDEST POP PUSH0 DUP1 PUSH2 0x100 EXP DUP2 SLOAD DUP2 PUSH20 0xFFFFFFFFFFFFFFFFFFFFFFFFFFFFFFFFFFFFFFFF MUL NOT AND SWAP1 DUP4 PUSH20 0xFFFFFFFFFFFFFFFFFFFFFFFFFFFFFFFFFFFFFFFF AND MUL OR SWAP1 SSTORE POP CALLVALUE DUP1 ISZERO PUSH1 0x6F JUMPI PUSH0 DUP1 REVERT JUMPDEST POP PUSH1 0x81 JUMP JUMPDEST PUSH2 0x279 DUP1 PUSH2 0x884 DUP4 CODECOPY ADD SWAP1 JUMP JUMPDEST PUSH2 0x7F6 DUP1 PUSH2 0x8E PUSH0 CODECOPY PUSH0 RETURN INVALID PUSH1 0x80 PUSH1 0x40 MSTORE CALLVALUE DUP1 ISZERO PUSH2 0xF JUMPI PUSH0 DUP1 REVERT JUMPDEST POP PUSH1 0x4 CALLDATASIZE LT PUSH2 0x34 JUMPI PUSH0 CALLDATALOAD PUSH1 0xE0 SHR DUP1 PUSH4 0xFC6B51C EQ PUSH2 0x38 JUMPI DUP1 PUSH4 0x90560610 EQ PUSH2 0x69 JUMPI JUMPDEST PUSH0 DUP1 REVERT JUMPDEST PUSH2 0x52 PUSH1 0x4 DUP1 CALLDATASIZE SUB DUP2 ADD SWAP1 PUSH2 0x4D SWAP2 SWAP1 PUSH2 0x2D1 JUMP JUMPDEST PUSH2 0x87 JUMP JUMPDEST PUSH1 0x40 MLOAD PUSH2 0x60 SWAP3 SWAP2 SWAP1 PUSH2 0x338 JUMP JUMPDEST PUSH1 0x40 MLOAD DUP1 SWAP2 SUB SWAP1 RETURN JUMPDEST PUSH2 0x71 PUSH2 0x26E JUMP JUMPDEST PUSH1 0x40 MLOAD PUSH2 0x7E SWAP2 SWAP1 PUSH2 0x3D9 JUMP JUMPDEST PUSH1 0x40 MLOAD DUP1 SWAP2 SUB SWAP1 RETURN JUMPDEST PUSH0 DUP1 PUSH0 DUP1 SLOAD SWAP1 PUSH2 0x100 EXP SWAP1 DIV PUSH20 0xFFFFFFFFFFFFFFFFFFFFFFFFFFFFFFFFFFFFFFFF AND PUSH20 0xFFFFFFFFFFFFFFFFFFFFFFFFFFFFFFFFFFFFFFFF AND PUSH4 0xE0068052 DUP6 DUP6 PUSH1 0x40 MLOAD DUP4 PUSH4 0xFFFFFFFF AND PUSH1 0xE0 SHL DUP2 MSTORE PUSH1 0x4 ADD PUSH2 0xE3 SWAP3 SWAP2 SWAP1 PUSH2 0x3F2 JUMP JUMPDEST PUSH1 0x20 PUSH1 0x40 MLOAD DUP1 DUP4 SUB DUP2 DUP7 GAS STATICCALL SWAP3 POP POP POP DUP1 ISZERO PUSH2 0x11D JUMPI POP PUSH1 0x40 MLOAD RETURNDATASIZE PUSH1 0x1F NOT PUSH1 0x1F DUP3 ADD AND DUP3 ADD DUP1 PUSH1 0x40 MSTORE POP DUP2 ADD SWAP1 PUSH2 0x11A SWAP2 SWAP1 PUSH2 0x42D JUMP JUMPDEST PUSH1 0x1 JUMPDEST PUSH2 0x25E JUMPI PUSH2 0x129 PUSH2 0x464 JUMP JUMPDEST DUP1 PUSH4 0x8C379A0 SUB PUSH2 0x18B JUMPI POP PUSH2 0x13D PUSH2 0x4F1 JUMP JUMPDEST DUP1 PUSH2 0x148 JUMPI POP PUSH2 0x1EB JUMP JUMPDEST PUSH32 0x1A105F82E7A73E98FF8B7E5E0479A23BA4DF818EDEAFEEC2E4BDFE52624B3BA1 DUP2 PUSH1 0x40 MLOAD PUSH2 0x177 SWAP2 SWAP1 PUSH2 0x62A JUMP JUMPDEST PUSH1 0x40 MLOAD DUP1 SWAP2 SUB SWAP1 LOG1 PUSH0 DUP1 SWAP3 POP SWAP3 POP POP PUSH2 0x267 JUMP JUMPDEST PUSH4 0x4E487B71 SUB PUSH2 0x1EB JUMPI PUSH2 0x19D PUSH2 0x65D JUMP JUMPDEST SWAP1 PUSH2 0x1A8 JUMPI POP PUSH2 0x1EB JUMP JUMPDEST PUSH32 0xA999F44F5CA01F1755A1D8C28C08BDB6B5BFF8C080BB72CC38486EBAE8C928A6 DUP2 PUSH1 0x40 MLOAD PUSH2 0x1D7 SWAP2 SWAP1 PUSH2 0x6C5 JUMP JUMPDEST PUSH1 0x40 MLOAD DUP1 SWAP2 SUB SWAP1 LOG1 PUSH0 DUP1 SWAP3 POP SWAP3 POP POP PUSH2 0x267 JUMP JUMPDEST RETURNDATASIZE DUP1 PUSH0 DUP2 EQ PUSH2 0x215 JUMPI PUSH1 0x40 MLOAD SWAP2 POP PUSH1 0x1F NOT PUSH1 0x3F RETURNDATASIZE ADD AND DUP3 ADD PUSH1 0x40 MSTORE RETURNDATASIZE DUP3 MSTORE RETURNDATASIZE PUSH0 PUSH1 0x20 DUP5 ADD RETURNDATACOPY PUSH2 0x21A JUMP JUMPDEST PUSH1 0x60 SWAP2 POP JUMPDEST POP PUSH32 0xA38AFCAFC8EFFB8F0FE817FD60B9CA57E0FDE5511F65C8BA69A3A3972154831 DUP2 PUSH1 0x40 MLOAD PUSH2 0x24A SWAP2 SWAP1 PUSH2 0x78D JUMP JUMPDEST PUSH1 0x40 MLOAD DUP1 SWAP2 SUB SWAP1 LOG1 PUSH0 DUP1 SWAP3 POP SWAP3 POP POP PUSH2 0x267 JUMP JUMPDEST DUP1 PUSH1 0x1 SWAP3 POP SWAP3 POP POP JUMPDEST SWAP3 POP SWAP3 SWAP1 POP JUMP JUMPDEST PUSH0 DUP1 SLOAD SWAP1 PUSH2 0x100 EXP SWAP1 DIV PUSH20 0xFFFFFFFFFFFFFFFFFFFFFFFFFFFFFFFFFFFFFFFF AND DUP2 JUMP JUMPDEST PUSH0 PUSH1 0x40 MLOAD SWAP1 POP SWAP1 JUMP JUMPDEST PUSH0 DUP1 REVERT JUMPDEST PUSH0 DUP2 SWAP1 POP SWAP2 SWAP1 POP JUMP JUMPDEST PUSH2 0x2B0 DUP2 PUSH2 0x29E JUMP JUMPDEST DUP2 EQ PUSH2 0x2BA JUMPI PUSH0 DUP1 REVERT JUMPDEST POP JUMP JUMPDEST PUSH0 DUP2 CALLDATALOAD SWAP1 POP PUSH2 0x2CB DUP2 PUSH2 0x2A7 JUMP JUMPDEST SWAP3 SWAP2 POP POP JUMP JUMPDEST PUSH0 DUP1 PUSH1 0x40 DUP4 DUP6 SUB SLT ISZERO PUSH2 0x2E7 JUMPI PUSH2 0x2E6 PUSH2 0x29A JUMP JUMPDEST JUMPDEST PUSH0 PUSH2 0x2F4 DUP6 DUP3 DUP7 ADD PUSH2 0x2BD JUMP JUMPDEST SWAP3 POP POP PUSH1 0x20 PUSH2 0x305 DUP6 DUP3 DUP7 ADD PUSH2 0x2BD JUMP JUMPDEST SWAP2 POP POP SWAP3 POP SWAP3 SWAP1 POP JUMP JUMPDEST PUSH2 0x318 DUP2 PUSH2 0x29E JUMP JUMPDEST DUP3 MSTORE POP POP JUMP JUMPDEST PUSH0 DUP2 ISZERO ISZERO SWAP1 POP SWAP2 SWAP1 POP JUMP JUMPDEST PUSH2 0x332 DUP2 PUSH2 0x31E JUMP JUMPDEST DUP3 MSTORE POP POP JUMP JUMPDEST PUSH0 PUSH1 0x40 DUP3 ADD SWAP1 POP PUSH2 0x34B PUSH0 DUP4 ADD DUP6 PUSH2 0x30F JUMP JUMPDEST PUSH2 0x358 PUSH1 0x20 DUP4 ADD DUP5 PUSH2 0x329 JUMP JUMPDEST SWAP4 SWAP3 POP POP POP JUMP JUMPDEST PUSH0 PUSH20 0xFFFFFFFFFFFFFFFFFFFFFFFFFFFFFFFFFFFFFFFF DUP3 AND SWAP1 POP SWAP2 SWAP1 POP JUMP JUMPDEST PUSH0 DUP2 SWAP1 POP SWAP2 SWAP1 POP JUMP JUMPDEST PUSH0 PUSH2 0x3A1 PUSH2 0x39C PUSH2 0x397 DUP5 PUSH2 0x35F JUMP JUMPDEST PUSH2 0x37E JUMP JUMPDEST PUSH2 0x35F JUMP JUMPDEST SWAP1 POP SWAP2 SWAP1 POP JUMP JUMPDEST PUSH0 PUSH2 0x3B2 DUP3 PUSH2 0x387 JUMP JUMPDEST SWAP1 POP SWAP2 SWAP1 POP JUMP JUMPDEST PUSH0 PUSH2 0x3C3 DUP3 PUSH2 0x3A8 JUMP JUMPDEST SWAP1 POP SWAP2 SWAP1 POP JUMP JUMPDEST PUSH2 0x3D3 DUP2 PUSH2 0x3B9 JUMP JUMPDEST DUP3 MSTORE POP POP JUMP JUMPDEST PUSH0 PUSH1 0x20 DUP3 ADD SWAP1 POP PUSH2 0x3EC PUSH0 DUP4 ADD DUP5 PUSH2 0x3CA JUMP JUMPDEST SWAP3 SWAP2 POP POP JUMP JUMPDEST PUSH0 PUSH1 0x40 DUP3 ADD SWAP1 POP PUSH2 0x405 PUSH0 DUP4 ADD DUP6 PUSH2 0x30F JUMP JUMPDEST PUSH2 0x412 PUSH1 0x20 DUP4 ADD DUP5 PUSH2 0x30F JUMP JUMPDEST SWAP4 SWAP3 POP POP POP JUMP JUMPDEST PUSH0 DUP2 MLOAD SWAP1 POP PUSH2 0x427 DUP2 PUSH2 0x2A7 JUMP JUMPDEST SWAP3 SWAP2 POP POP JUMP JUMPDEST PUSH0 PUSH1 0x20 DUP3 DUP5 SUB SLT ISZERO PUSH2 0x442 JUMPI PUSH2 0x441 PUSH2 0x29A JUMP JUMPDEST JUMPDEST PUSH0 PUSH2 0x44F DUP5 DUP3 DUP6 ADD PUSH2 0x419 JUMP JUMPDEST SWAP2 POP POP SWAP3 SWAP2 POP POP JUMP JUMPDEST PUSH0 DUP2 PUSH1 0xE0 SHR SWAP1 POP SWAP2 SWAP1 POP JUMP JUMPDEST PUSH0 PUSH1 0x3 RETURNDATASIZE GT ISZERO PUSH2 0x480 JUMPI PUSH1 0x4 PUSH0 DUP1 RETURNDATACOPY PUSH2 0x47D PUSH0 MLOAD PUSH2 0x458 JUMP JUMPDEST SWAP1 POP JUMPDEST SWAP1 JUMP JUMPDEST PUSH0 PUSH1 0x1F NOT PUSH1 0x1F DUP4 ADD AND SWAP1 POP SWAP2 SWAP1 POP JUMP JUMPDEST PUSH32 0x4E487B7100000000000000000000000000000000000000000000000000000000 PUSH0 MSTORE PUSH1 0x41 PUSH1 0x4 MSTORE PUSH1 0x24 PUSH0 REVERT JUMPDEST PUSH2 0x4C9 DUP3 PUSH2 0x483 JUMP JUMPDEST DUP2 ADD DUP2 DUP2 LT PUSH8 0xFFFFFFFFFFFFFFFF DUP3 GT OR ISZERO PUSH2 0x4E8 JUMPI PUSH2 0x4E7 PUSH2 0x493 JUMP JUMPDEST JUMPDEST DUP1 PUSH1 0x40 MSTORE POP POP POP JUMP JUMPDEST PUSH0 PUSH1 0x44 RETURNDATASIZE LT PUSH2 0x57D JUMPI PUSH2 0x502 PUSH2 0x291 JUMP JUMPDEST PUSH1 0x4 RETURNDATASIZE SUB PUSH1 0x4 DUP3 RETURNDATACOPY DUP1 MLOAD RETURNDATASIZE PUSH1 0x24 DUP3 ADD GT PUSH8 0xFFFFFFFFFFFFFFFF DUP3 GT OR ISZERO PUSH2 0x52A JUMPI POP POP PUSH2 0x57D JUMP JUMPDEST DUP1 DUP3 ADD DUP1 MLOAD PUSH8 0xFFFFFFFFFFFFFFFF DUP2 GT ISZERO PUSH2 0x548 JUMPI POP POP POP POP PUSH2 0x57D JUMP JUMPDEST DUP1 PUSH1 0x20 DUP4 ADD ADD PUSH1 0x4 RETURNDATASIZE SUB DUP6 ADD DUP2 GT ISZERO PUSH2 0x565 JUMPI POP POP POP POP POP PUSH2 0x57D JUMP JUMPDEST PUSH2 0x574 DUP3 PUSH1 0x20 ADD DUP6 ADD DUP7 PUSH2 0x4C0 JUMP JUMPDEST DUP3 SWAP6 POP POP POP POP POP POP JUMPDEST SWAP1 JUMP JUMPDEST PUSH0 DUP3 DUP3 MSTORE PUSH1 0x20 DUP3 ADD SWAP1 POP SWAP3 SWAP2 POP POP JUMP JUMPDEST PUSH32 0x7265766572742F72657175697265000000000000000000000000000000000000 PUSH0 DUP3 ADD MSTORE POP JUMP JUMPDEST PUSH0 PUSH2 0x5C4 PUSH1 0xE DUP4 PUSH2 0x580 JUMP JUMPDEST SWAP2 POP PUSH2 0x5CF DUP3 PUSH2 0x590 JUMP JUMPDEST PUSH1 0x20 DUP3 ADD SWAP1 POP SWAP2 SWAP1 POP JUMP JUMPDEST PUSH0 DUP2 MLOAD SWAP1 POP SWAP2 SWAP1 POP JUMP JUMPDEST DUP3 DUP2 DUP4 MCOPY PUSH0 DUP4 DUP4 ADD MSTORE POP POP POP JUMP JUMPDEST PUSH0 PUSH2 0x5FC DUP3 PUSH2 0x5DA JUMP JUMPDEST PUSH2 0x606 DUP2 DUP6 PUSH2 0x580 JUMP JUMPDEST SWAP4 POP PUSH2 0x616 DUP2 DUP6 PUSH1 0x20 DUP7 ADD PUSH2 0x5E4 JUMP JUMPDEST PUSH2 0x61F DUP2 PUSH2 0x483 JUMP JUMPDEST DUP5 ADD SWAP2 POP POP SWAP3 SWAP2 POP POP JUMP JUMPDEST PUSH0 PUSH1 0x40 DUP3 ADD SWAP1 POP DUP2 DUP2 SUB PUSH0 DUP4 ADD MSTORE PUSH2 0x641 DUP2 PUSH2 0x5B8 JUMP JUMPDEST SWAP1 POP DUP2 DUP2 SUB PUSH1 0x20 DUP4 ADD MSTORE PUSH2 0x655 DUP2 DUP5 PUSH2 0x5F2 JUMP JUMPDEST SWAP1 POP SWAP3 SWAP2 POP POP JUMP JUMPDEST PUSH0 DUP1 PUSH1 0x23 RETURNDATASIZE GT ISZERO PUSH2 0x677 JUMPI PUSH1 0x20 PUSH1 0x4 PUSH0 RETURNDATACOPY PUSH1 0x1 SWAP2 POP PUSH0 MLOAD SWAP1 POP JUMPDEST SWAP1 SWAP2 JUMP JUMPDEST PUSH32 0x6173736572744572726F722F50616E6963000000000000000000000000000000 PUSH0 DUP3 ADD MSTORE POP JUMP JUMPDEST PUSH0 PUSH2 0x6AF PUSH1 0x11 DUP4 PUSH2 0x580 JUMP JUMPDEST SWAP2 POP PUSH2 0x6BA DUP3 PUSH2 0x67B JUMP JUMPDEST PUSH1 0x20 DUP3 ADD SWAP1 POP SWAP2 SWAP1 POP JUMP JUMPDEST PUSH0 PUSH1 0x40 DUP3 ADD SWAP1 POP DUP2 DUP2 SUB PUSH0 DUP4 ADD MSTORE PUSH2 0x6DC DUP2 PUSH2 0x6A3 JUMP JUMPDEST SWAP1 POP PUSH2 0x6EB PUSH1 0x20 DUP4 ADD DUP5 PUSH2 0x30F JUMP JUMPDEST SWAP3 SWAP2 POP POP JUMP JUMPDEST PUSH32 0x4C6F776C6576656C4572726F7200000000000000000000000000000000000000 PUSH0 DUP3 ADD MSTORE POP JUMP JUMPDEST PUSH0 PUSH2 0x725 PUSH1 0xD DUP4 PUSH2 0x580 JUMP JUMPDEST SWAP2 POP PUSH2 0x730 DUP3 PUSH2 0x6F1 JUMP JUMPDEST PUSH1 0x20 DUP3 ADD SWAP1 POP SWAP2 SWAP1 POP JUMP JUMPDEST PUSH0 DUP2 MLOAD SWAP1 POP SWAP2 SWAP1 POP JUMP JUMPDEST PUSH0 DUP3 DUP3 MSTORE PUSH1 0x20 DUP3 ADD SWAP1 POP SWAP3 SWAP2 POP POP JUMP JUMPDEST PUSH0 PUSH2 0x75F DUP3 PUSH2 0x73B JUMP JUMPDEST PUSH2 0x769 DUP2 DUP6 PUSH2 0x745 JUMP JUMPDEST SWAP4 POP PUSH2 0x779 DUP2 DUP6 PUSH1 0x20 DUP7 ADD PUSH2 0x5E4 JUMP JUMPDEST PUSH2 0x782 DUP2 PUSH2 0x483 JUMP JUMPDEST DUP5 ADD SWAP2 POP POP SWAP3 SWAP2 POP POP JUMP JUMPDEST PUSH0 PUSH1 0x40 DUP3 ADD SWAP1 POP DUP2 DUP2 SUB PUSH0 DUP4 ADD MSTORE PUSH2 0x7A4 DUP2 PUSH2 0x719 JUMP JUMPDEST SWAP1 POP DUP2 DUP2 SUB PUSH1 0x20 DUP4 ADD MSTORE PUSH2 0x7B8 DUP2 DUP5 PUSH2 0x755 JUMP JUMPDEST SWAP1 POP SWAP3 SWAP2 POP POP JUMP INVALID LOG2 PUSH5 0x6970667358 0x22 SLT KECCAK256 0xC5 0xDE 0xCE PUSH1 0x52 SWAP5 DUP13 0xD5 0xB3 SELFBALANCE 0xC0 MCOPY DUP10 PUSH19 0x64F7AF03C9969EDD26C16DAC4DDBF22336C864 PUSH20 0x6F6C634300081A00336080604052348015600E57 PUSH0 DUP1 REVERT JUMPDEST POP PUSH2 0x25D DUP1 PUSH2 0x1C PUSH0 CODECOPY PUSH0 RETURN INVALID PUSH1 0x80 PUSH1 0x40 MSTORE CALLVALUE DUP1 ISZERO PUSH2 0xF JUMPI PUSH0 DUP1 REVERT JUMPDEST POP PUSH1 0x4 CALLDATASIZE LT PUSH2 0x29 JUMPI PUSH0 CALLDATALOAD PUSH1 0xE0 SHR DUP1 PUSH4 0xE0068052 EQ PUSH2 0x2D JUMPI JUMPDEST PUSH0 DUP1 REVERT JUMPDEST PUSH2 0x47 PUSH1 0x4 DUP1 CALLDATASIZE SUB DUP2 ADD SWAP1 PUSH2 0x42 SWAP2 SWAP1 PUSH2 0xEC JUMP JUMPDEST PUSH2 0x5D JUMP JUMPDEST PUSH1 0x40 MLOAD PUSH2 0x54 SWAP2 SWAP1 PUSH2 0x139 JUMP JUMPDEST PUSH1 0x40 MLOAD DUP1 SWAP2 SUB SWAP1 RETURN JUMPDEST PUSH0 PUSH1 0xA DUP4 LT PUSH2 0xA1 JUMPI PUSH1 0x40 MLOAD PUSH32 0x8C379A000000000000000000000000000000000000000000000000000000000 DUP2 MSTORE PUSH1 0x4 ADD PUSH2 0x98 SWAP1 PUSH2 0x1AC JUMP JUMPDEST PUSH1 0x40 MLOAD DUP1 SWAP2 SUB SWAP1 REVERT JUMPDEST DUP2 DUP4 PUSH2 0xAD SWAP2 SWAP1 PUSH2 0x1F7 JUMP JUMPDEST SWAP1 POP SWAP3 SWAP2 POP POP JUMP JUMPDEST PUSH0 DUP1 REVERT JUMPDEST PUSH0 DUP2 SWAP1 POP SWAP2 SWAP1 POP JUMP JUMPDEST PUSH2 0xCB DUP2 PUSH2 0xB9 JUMP JUMPDEST DUP2 EQ PUSH2 0xD5 JUMPI PUSH0 DUP1 REVERT JUMPDEST POP JUMP JUMPDEST PUSH0 DUP2 CALLDATALOAD SWAP1 POP PUSH2 0xE6 DUP2 PUSH2 0xC2 JUMP JUMPDEST SWAP3 SWAP2 POP POP JUMP JUMPDEST PUSH0 DUP1 PUSH1 0x40 DUP4 DUP6 SUB SLT ISZERO PUSH2 0x102 JUMPI PUSH2 0x101 PUSH2 0xB5 JUMP JUMPDEST JUMPDEST PUSH0 PUSH2 0x10F DUP6 DUP3 DUP7 ADD PUSH2 0xD8 JUMP JUMPDEST SWAP3 POP POP PUSH1 0x20 PUSH2 0x120 DUP6 DUP3 DUP7 ADD PUSH2 0xD8 JUMP JUMPDEST SWAP2 POP POP SWAP3 POP SWAP3 SWAP1 POP JUMP JUMPDEST PUSH2 0x133 DUP2 PUSH2 0xB9 JUMP JUMPDEST DUP3 MSTORE POP POP JUMP JUMPDEST PUSH0 PUSH1 0x20 DUP3 ADD SWAP1 POP PUSH2 0x14C PUSH0 DUP4 ADD DUP5 PUSH2 0x12A JUMP JUMPDEST SWAP3 SWAP2 POP POP JUMP JUMPDEST PUSH0 DUP3 DUP3 MSTORE PUSH1 0x20 DUP3 ADD SWAP1 POP SWAP3 SWAP2 POP POP JUMP JUMPDEST PUSH32 0x6E756D312073686F7564206E6F74206265206D6F7265207468616E2031300000 PUSH0 DUP3 ADD MSTORE POP JUMP JUMPDEST PUSH0 PUSH2 0x196 PUSH1 0x1E DUP4 PUSH2 0x152 JUMP JUMPDEST SWAP2 POP PUSH2 0x1A1 DUP3 PUSH2 0x162 JUMP JUMPDEST PUSH1 0x20 DUP3 ADD SWAP1 POP SWAP2 SWAP1 POP JUMP JUMPDEST PUSH0 PUSH1 0x20 DUP3 ADD SWAP1 POP DUP2 DUP2 SUB PUSH0 DUP4 ADD MSTORE PUSH2 0x1C3 DUP2 PUSH2 0x18A JUMP JUMPDEST SWAP1 POP SWAP2 SWAP1 POP JUMP JUMPDEST PUSH32 0x4E487B7100000000000000000000000000000000000000000000000000000000 PUSH0 MSTORE PUSH1 0x12 PUSH1 0x4 MSTORE PUSH1 0x24 PUSH0 REVERT JUMPDEST PUSH0 PUSH2 0x201 DUP3 PUSH2 0xB9 JUMP JUMPDEST SWAP2 POP PUSH2 0x20C DUP4 PUSH2 0xB9 JUMP JUMPDEST SWAP3 POP DUP3 PUSH2 0x21C JUMPI PUSH2 0x21B PUSH2 0x1CA JUMP JUMPDEST JUMPDEST DUP3 DUP3 DIV SWAP1 POP SWAP3 SWAP2 POP POP JUMP INVALID LOG2 PUSH5 0x6970667358 0x22 SLT KECCAK256 0x4D 0xFC PUSH12 0x16C1B52438D02CF033794978 PUSH30 0x8D0D8CCEBE77FD10542F6DC08892E6F64736F6C634300081A0033000000 "
				},
				"gasEstimates": {
					"creation": {
						"codeDepositCost": "407600",
						"executionCost": "infinite",
						"totalCost": "infinite"
					},
					"external": {
						"mathInstance()": "infinite",
						"playTryCatch(uint256,uint256)": "infinite"
					}
				},
				"methodIdentifiers": {
					"mathInstance()": "90560610",
					"playTryCatch(uint256,uint256)": "0fc6b51c"
				}
			},
			"storageLayout": {
				"storage": [
					{
						"astId": 48,
						"contract": "lec27.sol:runner",
						"label": "mathInstance",
						"offset": 0,
						"slot": "0",
						"type": "t_contract(math)23"
					}
				],
				"types": {
					"t_contract(math)23": {
						"encoding": "inplace",
						"label": "contract math",
						"numberOfBytes": "20"
					}
				}
			},
			"userdoc": {
				"kind": "user",
				"methods": {},
				"version": 1
			}
		}
	}
}