{
	"lec27.sol": {
		"math": {
			"abi": [
				{
					"inputs": [
						{
							"internalType": "uint256",
							"name": "_num1",
							"type": "uint256"
						},
						{
							"internalType": "uint256",
							"name": "_num2",
							"type": "uint256"
						}
					],
					"name": "division",
					"outputs": [
						{
							"internalType": "uint256",
							"name": "",
							"type": "uint256"
						}
					],
					"stateMutability": "pure",
					"type": "function"
				}
			],
			"devdoc": {
				"kind": "dev",
				"methods": {},
				"version": 1
			},
			"evm": {
				"assembly": "    /* \"lec27.sol\":2474:2684  contract math{... */\n  mstore(0x40, 0x80)\n  callvalue\n  dup1\n  iszero\n  tag_1\n  jumpi\n  0x00\n  dup1\n  revert\ntag_1:\n  pop\n  dataSize(sub_0)\n  dup1\n  dataOffset(sub_0)\n  0x00\n  codecopy\n  0x00\n  return\nstop\n\nsub_0: assembly {\n        /* \"lec27.sol\":2474:2684  contract math{... */\n      mstore(0x40, 0x80)\n      callvalue\n      dup1\n      iszero\n      tag_1\n      jumpi\n      0x00\n      dup1\n      revert\n    tag_1:\n      pop\n      jumpi(tag_2, lt(calldatasize, 0x04))\n      shr(0xe0, calldataload(0x00))\n      dup1\n      0xe0068052\n      eq\n      tag_3\n      jumpi\n    tag_2:\n      0x00\n      dup1\n      revert\n        /* \"lec27.sol\":2498:2682  function division(uint256 _num1,uint256 _num2) public pure returns (uint256){... */\n    tag_3:\n      tag_4\n      0x04\n      dup1\n      calldatasize\n      sub\n      dup2\n      add\n      swap1\n      tag_5\n      swap2\n      swap1\n      tag_6\n      jump\t// in\n    tag_5:\n      tag_7\n      jump\t// in\n    tag_4:\n      mload(0x40)\n      tag_8\n      swap2\n      swap1\n      tag_9\n      jump\t// in\n    tag_8:\n      mload(0x40)\n      dup1\n      swap2\n      sub\n      swap1\n      return\n    tag_7:\n        /* \"lec27.sol\":2566:2573  uint256 */\n      0x00\n        /* \"lec27.sol\":2598:2600  10 */\n      0x0a\n        /* \"lec27.sol\":2592:2597  _num1 */\n      dup4\n        /* \"lec27.sol\":2592:2600  _num1<10 */\n      lt\n        /* \"lec27.sol\":2584:2634  require(_num1<10,\"num1 shoud not be more than 10\") */\n      tag_11\n      jumpi\n      mload(0x40)\n      0x08c379a000000000000000000000000000000000000000000000000000000000\n      dup2\n      mstore\n      0x04\n      add\n      tag_12\n      swap1\n      tag_13\n      jump\t// in\n    tag_12:\n      mload(0x40)\n      dup1\n      swap2\n      sub\n      swap1\n      revert\n    tag_11:\n        /* \"lec27.sol\":2659:2664  _num2 */\n      dup2\n        /* \"lec27.sol\":2653:2658  _num1 */\n      dup4\n        /* \"lec27.sol\":2653:2664  _num1/_num2 */\n      tag_14\n      swap2\n      swap1\n      tag_15\n      jump\t// in\n    tag_14:\n        /* \"lec27.sol\":2646:2664  return _num1/_num2 */\n      swap1\n      pop\n        /* \"lec27.sol\":2498:2682  function division(uint256 _num1,uint256 _num2) public pure returns (uint256){... */\n      swap3\n      swap2\n      pop\n      pop\n      jump\t// out\n        /* \"#utility.yul\":88:205   */\n    tag_17:\n        /* \"#utility.yul\":197:198   */\n      0x00\n        /* \"#utility.yul\":194:195   */\n      dup1\n        /* \"#utility.yul\":187:199   */\n      revert\n        /* \"#utility.yul\":334:411   */\n    tag_19:\n        /* \"#utility.yul\":371:378   */\n      0x00\n        /* \"#utility.yul\":400:405   */\n      dup2\n        /* \"#utility.yul\":389:405   */\n      swap1\n      pop\n        /* \"#utility.yul\":334:411   */\n      swap2\n      swap1\n      pop\n      jump\t// out\n        /* \"#utility.yul\":417:539   */\n    tag_20:\n        /* \"#utility.yul\":490:514   */\n      tag_34\n        /* \"#utility.yul\":508:513   */\n      dup2\n        /* \"#utility.yul\":490:514   */\n      tag_19\n      jump\t// in\n    tag_34:\n        /* \"#utility.yul\":483:488   */\n      dup2\n        /* \"#utility.yul\":480:515   */\n      eq\n        /* \"#utility.yul\":470:533   */\n      tag_35\n      jumpi\n        /* \"#utility.yul\":529:530   */\n      0x00\n        /* \"#utility.yul\":526:527   */\n      dup1\n        /* \"#utility.yul\":519:531   */\n      revert\n        /* \"#utility.yul\":470:533   */\n    tag_35:\n        /* \"#utility.yul\":417:539   */\n      pop\n      jump\t// out\n        /* \"#utility.yul\":545:684   */\n    tag_21:\n        /* \"#utility.yul\":591:596   */\n      0x00\n        /* \"#utility.yul\":629:635   */\n      dup2\n        /* \"#utility.yul\":616:636   */\n      calldataload\n        /* \"#utility.yul\":607:636   */\n      swap1\n      pop\n        /* \"#utility.yul\":645:678   */\n      tag_37\n        /* \"#utility.yul\":672:677   */\n      dup2\n        /* \"#utility.yul\":645:678   */\n      tag_20\n      jump\t// in\n    tag_37:\n        /* \"#utility.yul\":545:684   */\n      swap3\n      swap2\n      pop\n      pop\n      jump\t// out\n        /* \"#utility.yul\":690:1164   */\n    tag_6:\n        /* \"#utility.yul\":758:764   */\n      0x00\n        /* \"#utility.yul\":766:772   */\n      dup1\n        /* \"#utility.yul\":815:817   */\n      0x40\n        /* \"#utility.yul\":803:812   */\n      dup4\n        /* \"#utility.yul\":794:801   */\n      dup6\n        /* \"#utility.yul\":790:813   */\n      sub\n        /* \"#utility.yul\":786:818   */\n      slt\n        /* \"#utility.yul\":783:902   */\n      iszero\n      tag_39\n      jumpi\n        /* \"#utility.yul\":821:900   */\n      tag_40\n      tag_17\n      jump\t// in\n    tag_40:\n        /* \"#utility.yul\":783:902   */\n    tag_39:\n        /* \"#utility.yul\":941:942   */\n      0x00\n        /* \"#utility.yul\":966:1019   */\n      tag_41\n        /* \"#utility.yul\":1011:1018   */\n      dup6\n        /* \"#utility.yul\":1002:1008   */\n      dup3\n        /* \"#utility.yul\":991:1000   */\n      dup7\n        /* \"#utility.yul\":987:1009   */\n      add\n        /* \"#utility.yul\":966:1019   */\n      tag_21\n      jump\t// in\n    tag_41:\n        /* \"#utility.yul\":956:1019   */\n      swap3\n      pop\n        /* \"#utility.yul\":912:1029   */\n      pop\n        /* \"#utility.yul\":1068:1070   */\n      0x20\n        /* \"#utility.yul\":1094:1147   */\n      tag_42\n        /* \"#utility.yul\":1139:1146   */\n      dup6\n        /* \"#utility.yul\":1130:1136   */\n      dup3\n        /* \"#utility.yul\":1119:1128   */\n      dup7\n        /* \"#utility.yul\":1115:1137   */\n      add\n        /* \"#utility.yul\":1094:1147   */\n      tag_21\n      jump\t// in\n    tag_42:\n        /* \"#utility.yul\":1084:1147   */\n      swap2\n      pop\n        /* \"#utility.yul\":1039:1157   */\n      pop\n        /* \"#utility.yul\":690:1164   */\n      swap3\n      pop\n      swap3\n      swap1\n      pop\n      jump\t// out\n        /* \"#utility.yul\":1170:1288   */\n    tag_22:\n        /* \"#utility.yul\":1257:1281   */\n      tag_44\n        /* \"#utility.yul\":1275:1280   */\n      dup2\n        /* \"#utility.yul\":1257:1281   */\n      tag_19\n      jump\t// in\n    tag_44:\n        /* \"#utility.yul\":1252:1255   */\n      dup3\n        /* \"#utility.yul\":1245:1282   */\n      mstore\n        /* \"#utility.yul\":1170:1288   */\n      pop\n      pop\n      jump\t// out\n        /* \"#utility.yul\":1294:1516   */\n    tag_9:\n        /* \"#utility.yul\":1387:1391   */\n      0x00\n        /* \"#utility.yul\":1425:1427   */\n      0x20\n        /* \"#utility.yul\":1414:1423   */\n      dup3\n        /* \"#utility.yul\":1410:1428   */\n      add\n        /* \"#utility.yul\":1402:1428   */\n      swap1\n      pop\n        /* \"#utility.yul\":1438:1509   */\n      tag_46\n        /* \"#utility.yul\":1506:1507   */\n      0x00\n        /* \"#utility.yul\":1495:1504   */\n      dup4\n        /* \"#utility.yul\":1491:1508   */\n      add\n        /* \"#utility.yul\":1482:1488   */\n      dup5\n        /* \"#utility.yul\":1438:1509   */\n      tag_22\n      jump\t// in\n    tag_46:\n        /* \"#utility.yul\":1294:1516   */\n      swap3\n      swap2\n      pop\n      pop\n      jump\t// out\n        /* \"#utility.yul\":1522:1691   */\n    tag_23:\n        /* \"#utility.yul\":1606:1617   */\n      0x00\n        /* \"#utility.yul\":1640:1646   */\n      dup3\n        /* \"#utility.yul\":1635:1638   */\n      dup3\n        /* \"#utility.yul\":1628:1647   */\n      mstore\n        /* \"#utility.yul\":1680:1684   */\n      0x20\n        /* \"#utility.yul\":1675:1678   */\n      dup3\n        /* \"#utility.yul\":1671:1685   */\n      add\n        /* \"#utility.yul\":1656:1685   */\n      swap1\n      pop\n        /* \"#utility.yul\":1522:1691   */\n      swap3\n      swap2\n      pop\n      pop\n      jump\t// out\n        /* \"#utility.yul\":1697:1877   */\n    tag_24:\n        /* \"#utility.yul\":1837:1869   */\n      0x6e756d312073686f7564206e6f74206265206d6f7265207468616e2031300000\n        /* \"#utility.yul\":1833:1834   */\n      0x00\n        /* \"#utility.yul\":1825:1831   */\n      dup3\n        /* \"#utility.yul\":1821:1835   */\n      add\n        /* \"#utility.yul\":1814:1870   */\n      mstore\n        /* \"#utility.yul\":1697:1877   */\n      pop\n      jump\t// out\n        /* \"#utility.yul\":1883:2249   */\n    tag_25:\n        /* \"#utility.yul\":2025:2028   */\n      0x00\n        /* \"#utility.yul\":2046:2113   */\n      tag_50\n        /* \"#utility.yul\":2110:2112   */\n      0x1e\n        /* \"#utility.yul\":2105:2108   */\n      dup4\n        /* \"#utility.yul\":2046:2113   */\n      tag_23\n      jump\t// in\n    tag_50:\n        /* \"#utility.yul\":2039:2113   */\n      swap2\n      pop\n        /* \"#utility.yul\":2122:2215   */\n      tag_51\n        /* \"#utility.yul\":2211:2214   */\n      dup3\n        /* \"#utility.yul\":2122:2215   */\n      tag_24\n      jump\t// in\n    tag_51:\n        /* \"#utility.yul\":2240:2242   */\n      0x20\n        /* \"#utility.yul\":2235:2238   */\n      dup3\n        /* \"#utility.yul\":2231:2243   */\n      add\n        /* \"#utility.yul\":2224:2243   */\n      swap1\n      pop\n        /* \"#utility.yul\":1883:2249   */\n      swap2\n      swap1\n      pop\n      jump\t// out\n        /* \"#utility.yul\":2255:2674   */\n    tag_13:\n        /* \"#utility.yul\":2421:2425   */\n      0x00\n        /* \"#utility.yul\":2459:2461   */\n      0x20\n        /* \"#utility.yul\":2448:2457   */\n      dup3\n        /* \"#utility.yul\":2444:2462   */\n      add\n        /* \"#utility.yul\":2436:2462   */\n      swap1\n      pop\n        /* \"#utility.yul\":2508:2517   */\n      dup2\n        /* \"#utility.yul\":2502:2506   */\n      dup2\n        /* \"#utility.yul\":2498:2518   */\n      sub\n        /* \"#utility.yul\":2494:2495   */\n      0x00\n        /* \"#utility.yul\":2483:2492   */\n      dup4\n        /* \"#utility.yul\":2479:2496   */\n      add\n        /* \"#utility.yul\":2472:2519   */\n      mstore\n        /* \"#utility.yul\":2536:2667   */\n      tag_53\n        /* \"#utility.yul\":2662:2666   */\n      dup2\n        /* \"#utility.yul\":2536:2667   */\n      tag_25\n      jump\t// in\n    tag_53:\n        /* \"#utility.yul\":2528:2667   */\n      swap1\n      pop\n        /* \"#utility.yul\":2255:2674   */\n      swap2\n      swap1\n      pop\n      jump\t// out\n        /* \"#utility.yul\":2680:2860   */\n    tag_26:\n        /* \"#utility.yul\":2728:2805   */\n      0x4e487b7100000000000000000000000000000000000000000000000000000000\n        /* \"#utility.yul\":2725:2726   */\n      0x00\n        /* \"#utility.yul\":2718:2806   */\n      mstore\n        /* \"#utility.yul\":2825:2829   */\n      0x12\n        /* \"#utility.yul\":2822:2823   */\n      0x04\n        /* \"#utility.yul\":2815:2830   */\n      mstore\n        /* \"#utility.yul\":2849:2853   */\n      0x24\n        /* \"#utility.yul\":2846:2847   */\n      0x00\n        /* \"#utility.yul\":2839:2854   */\n      revert\n        /* \"#utility.yul\":3052:3237   */\n    tag_15:\n        /* \"#utility.yul\":3092:3093   */\n      0x00\n        /* \"#utility.yul\":3109:3129   */\n      tag_57\n        /* \"#utility.yul\":3127:3128   */\n      dup3\n        /* \"#utility.yul\":3109:3129   */\n      tag_19\n      jump\t// in\n    tag_57:\n        /* \"#utility.yul\":3104:3129   */\n      swap2\n      pop\n        /* \"#utility.yul\":3143:3163   */\n      tag_58\n        /* \"#utility.yul\":3161:3162   */\n      dup4\n        /* \"#utility.yul\":3143:3163   */\n      tag_19\n      jump\t// in\n    tag_58:\n        /* \"#utility.yul\":3138:3163   */\n      swap3\n      pop\n        /* \"#utility.yul\":3182:3183   */\n      dup3\n        /* \"#utility.yul\":3172:3207   */\n      tag_59\n      jumpi\n        /* \"#utility.yul\":3187:3205   */\n      tag_60\n      tag_26\n      jump\t// in\n    tag_60:\n        /* \"#utility.yul\":3172:3207   */\n    tag_59:\n        /* \"#utility.yul\":3229:3230   */\n      dup3\n        /* \"#utility.yul\":3226:3227   */\n      dup3\n        /* \"#utility.yul\":3222:3231   */\n      div\n        /* \"#utility.yul\":3217:3231   */\n      swap1\n      pop\n        /* \"#utility.yul\":3052:3237   */\n      swap3\n      swap2\n      pop\n      pop\n      jump\t// out\n\n    auxdata: 0xa26469706673582212204dfc6b16c1b52438d02cf0337949787d08d0d8ccebe77fd10542f6dc08892e6f64736f6c634300081a0033\n}\n",
				"bytecode": {
					"linkReferences": {},
					"object": "6080604052348015600e575f80fd5b5061025d8061001c5f395ff3fe608060405234801561000f575f80fd5b5060043610610029575f3560e01c8063e00680521461002d575b5f80fd5b610047600480360381019061004291906100ec565b61005d565b6040516100549190610139565b60405180910390f35b5f600a83106100a1576040517f08c379a0000000000000000000000000000000000000000000000000000000008152600401610098906101ac565b60405180910390fd5b81836100ad91906101f7565b905092915050565b5f80fd5b5f819050919050565b6100cb816100b9565b81146100d5575f80fd5b50565b5f813590506100e6816100c2565b92915050565b5f8060408385031215610102576101016100b5565b5b5f61010f858286016100d8565b9250506020610120858286016100d8565b9150509250929050565b610133816100b9565b82525050565b5f60208201905061014c5f83018461012a565b92915050565b5f82825260208201905092915050565b7f6e756d312073686f7564206e6f74206265206d6f7265207468616e20313000005f82015250565b5f610196601e83610152565b91506101a182610162565b602082019050919050565b5f6020820190508181035f8301526101c38161018a565b9050919050565b7f4e487b71000000000000000000000000000000000000000000000000000000005f52601260045260245ffd5b5f610201826100b9565b915061020c836100b9565b92508261021c5761021b6101ca565b5b82820490509291505056fea26469706673582212204dfc6b16c1b52438d02cf0337949787d08d0d8ccebe77fd10542f6dc08892e6f64736f6c634300081a0033",
					"opcodes": "PUSH1 0x80 PUSH1 0x40 MSTORE CALLVALUE DUP1 ISZERO PUSH1 0xE JUMPI PUSH0 DUP1 REVERT JUMPDEST POP PUSH2 0x25D DUP1 PUSH2 0x1C PUSH0 CODECOPY PUSH0 RETURN INVALID PUSH1 0x80 PUSH1 0x40 MSTORE CALLVALUE DUP1 ISZERO PUSH2 0xF JUMPI PUSH0 DUP1 REVERT JUMPDEST POP PUSH1 0x4 CALLDATASIZE LT PUSH2 0x29 JUMPI PUSH0 CALLDATALOAD PUSH1 0xE0 SHR DUP1 PUSH4 0xE0068052 EQ PUSH2 0x2D JUMPI JUMPDEST PUSH0 DUP1 REVERT JUMPDEST PUSH2 0x47 PUSH1 0x4 DUP1 CALLDATASIZE SUB DUP2 ADD SWAP1 PUSH2 0x42 SWAP2 SWAP1 PUSH2 0xEC JUMP JUMPDEST PUSH2 0x5D JUMP JUMPDEST PUSH1 0x40 MLOAD PUSH2 0x54 SWAP2 SWAP1 PUSH2 0x139 JUMP JUMPDEST PUSH1 0x40 MLOAD DUP1 SWAP2 SUB SWAP1 RETURN JUMPDEST PUSH0 PUSH1 0xA DUP4 LT PUSH2 0xA1 JUMPI PUSH1 0x40 MLOAD PUSH32 0x8C379A000000000000000000000000000000000000000000000000000000000 DUP2 MSTORE PUSH1 0x4 ADD PUSH2 0x98 SWAP1 PUSH2 0x1AC JUMP JUMPDEST PUSH1 0x40 MLOAD DUP1 SWAP2 SUB SWAP1 REVERT JUMPDEST DUP2 DUP4 PUSH2 0xAD SWAP2 SWAP1 PUSH2 0x1F7 JUMP JUMPDEST SWAP1 POP SWAP3 SWAP2 POP POP JUMP JUMPDEST PUSH0 DUP1 REVERT JUMPDEST PUSH0 DUP2 SWAP1 POP SWAP2 SWAP1 POP JUMP JUMPDEST PUSH2 0xCB DUP2 PUSH2 0xB9 JUMP JUMPDEST DUP2 EQ PUSH2 0xD5 JUMPI PUSH0 DUP1 REVERT JUMPDEST POP JUMP JUMPDEST PUSH0 DUP2 CALLDATALOAD SWAP1 POP PUSH2 0xE6 DUP2 PUSH2 0xC2 JUMP JUMPDEST SWAP3 SWAP2 POP POP JUMP JUMPDEST PUSH0 DUP1 PUSH1 0x40 DUP4 DUP6 SUB SLT ISZERO PUSH2 0x102 JUMPI PUSH2 0x101 PUSH2 0xB5 JUMP JUMPDEST JUMPDEST PUSH0 PUSH2 0x10F DUP6 DUP3 DUP7 ADD PUSH2 0xD8 JUMP JUMPDEST SWAP3 POP POP PUSH1 0x20 PUSH2 0x120 DUP6 DUP3 DUP7 ADD PUSH2 0xD8 JUMP JUMPDEST SWAP2 POP POP SWAP3 POP SWAP3 SWAP1 POP JUMP JUMPDEST PUSH2 0x133 DUP2 PUSH2 0xB9 JUMP JUMPDEST DUP3 MSTORE POP POP JUMP JUMPDEST PUSH0 PUSH1 0x20 DUP3 ADD SWAP1 POP PUSH2 0x14C PUSH0 DUP4 ADD DUP5 PUSH2 0x12A JUMP JUMPDEST SWAP3 SWAP2 POP POP JUMP JUMPDEST PUSH0 DUP3 DUP3 MSTORE PUSH1 0x20 DUP3 ADD SWAP1 POP SWAP3 SWAP2 POP POP JUMP JUMPDEST PUSH32 0x6E756D312073686F7564206E6F74206265206D6F7265207468616E2031300000 PUSH0 DUP3 ADD MSTORE POP JUMP JUMPDEST PUSH0 PUSH2 0x196 PUSH1 0x1E DUP4 PUSH2 0x152 JUMP JUMPDEST SWAP2 POP PUSH2 0x1A1 DUP3 PUSH2 0x162 JUMP JUMPDEST PUSH1 0x20 DUP3 ADD SWAP1 POP SWAP2 SWAP1 POP JUMP JUMPDEST PUSH0 PUSH1 0x20 DUP3 ADD SWAP1 POP DUP2 DUP2 SUB PUSH0 DUP4 ADD MSTORE PUSH2 0x1C3 DUP2 PUSH2 0x18A JUMP JUMPDEST SWAP1 POP SWAP2 SWAP1 POP JUMP JUMPDEST PUSH32 0x4E487B7100000000000000000000000000000000000000000000000000000000 PUSH0 MSTORE PUSH1 0x12 PUSH1 0x4 MSTORE PUSH1 0x24 PUSH0 REVERT JUMPDEST PUSH0 PUSH2 0x201 DUP3 PUSH2 0xB9 JUMP JUMPDEST SWAP2 POP PUSH2 0x20C DUP4 PUSH2 0xB9 JUMP JUMPDEST SWAP3 POP DUP3 PUSH2 0x21C JUMPI PUSH2 0x21B PUSH2 0x1CA JUMP JUMPDEST JUMPDEST DUP3 DUP3 DIV SWAP1 POP SWAP3 SWAP2 POP POP JUMP INVALID LOG2 PUSH5 0x6970667358 0x22 SLT KECCAK256 0x4D 0xFC PUSH12 0x16C1B52438D02CF033794978 PUSH30 0x8D0D8CCEBE77FD10542F6DC08892E6F64736F6C634300081A0033000000 "
				},
				"gasEstimates": {
					"creation": {
						"codeDepositCost": "121000",
						"executionCost": "163",
						"totalCost": "121163"
					},
					"external": {
						"division(uint256,uint256)": "infinite"
					}
				},
				"methodIdentifiers": {
					"division(uint256,uint256)": "e0068052"
				}
			},
			"storageLayout": {
				"storage": [],
				"types": null
			},
			"userdoc": {
				"kind": "user",
				"methods": {},
				"version": 1
			}
		}
	}
}