{
	"lec28.sol": {
		"runner2": {
			"abi": [
				{
					"anonymous": false,
					"inputs": [
						{
							"indexed": false,
							"internalType": "string",
							"name": "_name",
							"type": "string"
						},
						{
							"indexed": false,
							"internalType": "string",
							"name": "_err",
							"type": "string"
						}
					],
					"name": "catchOnly",
					"type": "event"
				},
				{
					"inputs": [],
					"name": "playTryCatch",
					"outputs": [
						{
							"internalType": "uint256",
							"name": "",
							"type": "uint256"
						},
						{
							"internalType": "bool",
							"name": "",
							"type": "bool"
						}
					],
					"stateMutability": "nonpayable",
					"type": "function"
				},
				{
					"inputs": [],
					"name": "simple",
					"outputs": [
						{
							"internalType": "uint256",
							"name": "",
							"type": "uint256"
						}
					],
					"stateMutability": "nonpayable",
					"type": "function"
				}
			],
			"devdoc": {
				"kind": "dev",
				"methods": {},
				"version": 1
			},
			"evm": {
				"assembly": "    /* \"lec28.sol\":1208:1648  contract runner2{... */\n  mstore(0x40, 0x80)\n  callvalue\n  dup1\n  iszero\n  tag_1\n  jumpi\n  0x00\n  dup1\n  revert\ntag_1:\n  pop\n  dataSize(sub_0)\n  dup1\n  dataOffset(sub_0)\n  0x00\n  codecopy\n  0x00\n  return\nstop\n\nsub_0: assembly {\n        /* \"lec28.sol\":1208:1648  contract runner2{... */\n      mstore(0x40, 0x80)\n      callvalue\n      dup1\n      iszero\n      tag_1\n      jumpi\n      0x00\n      dup1\n      revert\n    tag_1:\n      pop\n      jumpi(tag_2, lt(calldatasize, 0x04))\n      shr(0xe0, calldataload(0x00))\n      dup1\n      0xd57f4383\n      eq\n      tag_3\n      jumpi\n      dup1\n      0xdf201a46\n      eq\n      tag_4\n      jumpi\n    tag_2:\n      0x00\n      dup1\n      revert\n        /* \"lec28.sol\":1363:1645  function playTryCatch() public returns(uint256,bool){... */\n    tag_3:\n      tag_5\n      tag_6\n      jump\t// in\n    tag_5:\n      mload(0x40)\n      tag_7\n      swap3\n      swap2\n      swap1\n      tag_8\n      jump\t// in\n    tag_7:\n      mload(0x40)\n      dup1\n      swap2\n      sub\n      swap1\n      return\n        /* \"lec28.sol\":1282:1348  function simple() public returns(uint256){... */\n    tag_4:\n      tag_9\n      tag_10\n      jump\t// in\n    tag_9:\n      mload(0x40)\n      tag_11\n      swap2\n      swap1\n      tag_12\n      jump\t// in\n    tag_11:\n      mload(0x40)\n      dup1\n      swap2\n      sub\n      swap1\n      return\n        /* \"lec28.sol\":1363:1645  function playTryCatch() public returns(uint256,bool){... */\n    tag_6:\n        /* \"lec28.sol\":1402:1409  uint256 */\n      0x00\n        /* \"lec28.sol\":1410:1414  bool */\n      dup1\n        /* \"lec28.sol\":1438:1442  this */\n      address\n        /* \"lec28.sol\":1438:1449  this.simple */\n      0xffffffffffffffffffffffffffffffffffffffff\n      and\n      0xdf201a46\n        /* \"lec28.sol\":1438:1451  this.simple() */\n      mload(0x40)\n      dup2\n      0xffffffff\n      and\n      0xe0\n      shl\n      dup2\n      mstore\n      0x04\n      add\n      0x20\n      mload(0x40)\n      dup1\n      dup4\n      sub\n      dup2\n      0x00\n      dup8\n      gas\n      call\n      swap3\n      pop\n      pop\n      pop\n      dup1\n      iszero\n      tag_14\n      jumpi\n      pop\n      mload(0x40)\n      returndatasize\n      not(0x1f)\n      0x1f\n      dup3\n      add\n      and\n      dup3\n      add\n      dup1\n      0x40\n      mstore\n      pop\n      dup2\n      add\n      swap1\n      tag_15\n      swap2\n      swap1\n      tag_16\n      jump\t// in\n    tag_15:\n      0x01\n    tag_14:\n        /* \"lec28.sol\":1434:1621  try this.simple() returns(uint256 _value){... */\n      tag_17\n      jumpi\n        /* \"lec28.sol\":1552:1581  catchOnly(\"catch\",\"ErrorS!!\") */\n      0xed1339d3b97aca38a4bc95190b93af9130be96b54e1bc34caa04b59819decfa0\n      mload(0x40)\n      tag_21\n      swap1\n      tag_22\n      jump\t// in\n    tag_21:\n      mload(0x40)\n      dup1\n      swap2\n      sub\n      swap1\n      log1\n        /* \"lec28.sol\":1602:1603  0 */\n      0x00\n        /* \"lec28.sol\":1604:1609  false */\n      dup1\n        /* \"lec28.sol\":1595:1610  return(0,false) */\n      swap2\n      pop\n      swap2\n      pop\n      jump(tag_13)\n        /* \"lec28.sol\":1434:1621  try this.simple() returns(uint256 _value){... */\n    tag_17:\n        /* \"lec28.sol\":1496:1502  _value */\n      dup1\n        /* \"lec28.sol\":1503:1507  true */\n      0x01\n        /* \"lec28.sol\":1489:1508  return(_value,true) */\n      swap3\n      pop\n      swap3\n      pop\n      pop\n        /* \"lec28.sol\":1363:1645  function playTryCatch() public returns(uint256,bool){... */\n    tag_13:\n      swap1\n      swap2\n      jump\t// out\n        /* \"lec28.sol\":1282:1348  function simple() public returns(uint256){... */\n    tag_10:\n        /* \"lec28.sol\":1315:1322  uint256 */\n      0x00\n        /* \"lec28.sol\":1340:1341  4 */\n      0x04\n        /* \"lec28.sol\":1333:1341  return 4 */\n      swap1\n      pop\n        /* \"lec28.sol\":1282:1348  function simple() public returns(uint256){... */\n      swap1\n      jump\t// out\n        /* \"#utility.yul\":7:84   */\n    tag_25:\n        /* \"#utility.yul\":44:51   */\n      0x00\n        /* \"#utility.yul\":73:78   */\n      dup2\n        /* \"#utility.yul\":62:78   */\n      swap1\n      pop\n        /* \"#utility.yul\":7:84   */\n      swap2\n      swap1\n      pop\n      jump\t// out\n        /* \"#utility.yul\":90:208   */\n    tag_26:\n        /* \"#utility.yul\":177:201   */\n      tag_42\n        /* \"#utility.yul\":195:200   */\n      dup2\n        /* \"#utility.yul\":177:201   */\n      tag_25\n      jump\t// in\n    tag_42:\n        /* \"#utility.yul\":172:175   */\n      dup3\n        /* \"#utility.yul\":165:202   */\n      mstore\n        /* \"#utility.yul\":90:208   */\n      pop\n      pop\n      jump\t// out\n        /* \"#utility.yul\":214:304   */\n    tag_27:\n        /* \"#utility.yul\":248:255   */\n      0x00\n        /* \"#utility.yul\":291:296   */\n      dup2\n        /* \"#utility.yul\":284:297   */\n      iszero\n        /* \"#utility.yul\":277:298   */\n      iszero\n        /* \"#utility.yul\":266:298   */\n      swap1\n      pop\n        /* \"#utility.yul\":214:304   */\n      swap2\n      swap1\n      pop\n      jump\t// out\n        /* \"#utility.yul\":310:419   */\n    tag_28:\n        /* \"#utility.yul\":391:412   */\n      tag_45\n        /* \"#utility.yul\":406:411   */\n      dup2\n        /* \"#utility.yul\":391:412   */\n      tag_27\n      jump\t// in\n    tag_45:\n        /* \"#utility.yul\":386:389   */\n      dup3\n        /* \"#utility.yul\":379:413   */\n      mstore\n        /* \"#utility.yul\":310:419   */\n      pop\n      pop\n      jump\t// out\n        /* \"#utility.yul\":425:745   */\n    tag_8:\n        /* \"#utility.yul\":540:544   */\n      0x00\n        /* \"#utility.yul\":578:580   */\n      0x40\n        /* \"#utility.yul\":567:576   */\n      dup3\n        /* \"#utility.yul\":563:581   */\n      add\n        /* \"#utility.yul\":555:581   */\n      swap1\n      pop\n        /* \"#utility.yul\":591:662   */\n      tag_47\n        /* \"#utility.yul\":659:660   */\n      0x00\n        /* \"#utility.yul\":648:657   */\n      dup4\n        /* \"#utility.yul\":644:661   */\n      add\n        /* \"#utility.yul\":635:641   */\n      dup6\n        /* \"#utility.yul\":591:662   */\n      tag_26\n      jump\t// in\n    tag_47:\n        /* \"#utility.yul\":672:738   */\n      tag_48\n        /* \"#utility.yul\":734:736   */\n      0x20\n        /* \"#utility.yul\":723:732   */\n      dup4\n        /* \"#utility.yul\":719:737   */\n      add\n        /* \"#utility.yul\":710:716   */\n      dup5\n        /* \"#utility.yul\":672:738   */\n      tag_28\n      jump\t// in\n    tag_48:\n        /* \"#utility.yul\":425:745   */\n      swap4\n      swap3\n      pop\n      pop\n      pop\n      jump\t// out\n        /* \"#utility.yul\":751:973   */\n    tag_12:\n        /* \"#utility.yul\":844:848   */\n      0x00\n        /* \"#utility.yul\":882:884   */\n      0x20\n        /* \"#utility.yul\":871:880   */\n      dup3\n        /* \"#utility.yul\":867:885   */\n      add\n        /* \"#utility.yul\":859:885   */\n      swap1\n      pop\n        /* \"#utility.yul\":895:966   */\n      tag_50\n        /* \"#utility.yul\":963:964   */\n      0x00\n        /* \"#utility.yul\":952:961   */\n      dup4\n        /* \"#utility.yul\":948:965   */\n      add\n        /* \"#utility.yul\":939:945   */\n      dup5\n        /* \"#utility.yul\":895:966   */\n      tag_26\n      jump\t// in\n    tag_50:\n        /* \"#utility.yul\":751:973   */\n      swap3\n      swap2\n      pop\n      pop\n      jump\t// out\n        /* \"#utility.yul\":1060:1177   */\n    tag_30:\n        /* \"#utility.yul\":1169:1170   */\n      0x00\n        /* \"#utility.yul\":1166:1167   */\n      dup1\n        /* \"#utility.yul\":1159:1171   */\n      revert\n        /* \"#utility.yul\":1306:1428   */\n    tag_32:\n        /* \"#utility.yul\":1379:1403   */\n      tag_55\n        /* \"#utility.yul\":1397:1402   */\n      dup2\n        /* \"#utility.yul\":1379:1403   */\n      tag_25\n      jump\t// in\n    tag_55:\n        /* \"#utility.yul\":1372:1377   */\n      dup2\n        /* \"#utility.yul\":1369:1404   */\n      eq\n        /* \"#utility.yul\":1359:1422   */\n      tag_56\n      jumpi\n        /* \"#utility.yul\":1418:1419   */\n      0x00\n        /* \"#utility.yul\":1415:1416   */\n      dup1\n        /* \"#utility.yul\":1408:1420   */\n      revert\n        /* \"#utility.yul\":1359:1422   */\n    tag_56:\n        /* \"#utility.yul\":1306:1428   */\n      pop\n      jump\t// out\n        /* \"#utility.yul\":1434:1577   */\n    tag_33:\n        /* \"#utility.yul\":1491:1496   */\n      0x00\n        /* \"#utility.yul\":1522:1528   */\n      dup2\n        /* \"#utility.yul\":1516:1529   */\n      mload\n        /* \"#utility.yul\":1507:1529   */\n      swap1\n      pop\n        /* \"#utility.yul\":1538:1571   */\n      tag_58\n        /* \"#utility.yul\":1565:1570   */\n      dup2\n        /* \"#utility.yul\":1538:1571   */\n      tag_32\n      jump\t// in\n    tag_58:\n        /* \"#utility.yul\":1434:1577   */\n      swap3\n      swap2\n      pop\n      pop\n      jump\t// out\n        /* \"#utility.yul\":1583:1934   */\n    tag_16:\n        /* \"#utility.yul\":1653:1659   */\n      0x00\n        /* \"#utility.yul\":1702:1704   */\n      0x20\n        /* \"#utility.yul\":1690:1699   */\n      dup3\n        /* \"#utility.yul\":1681:1688   */\n      dup5\n        /* \"#utility.yul\":1677:1700   */\n      sub\n        /* \"#utility.yul\":1673:1705   */\n      slt\n        /* \"#utility.yul\":1670:1789   */\n      iszero\n      tag_60\n      jumpi\n        /* \"#utility.yul\":1708:1787   */\n      tag_61\n      tag_30\n      jump\t// in\n    tag_61:\n        /* \"#utility.yul\":1670:1789   */\n    tag_60:\n        /* \"#utility.yul\":1828:1829   */\n      0x00\n        /* \"#utility.yul\":1853:1917   */\n      tag_62\n        /* \"#utility.yul\":1909:1916   */\n      dup5\n        /* \"#utility.yul\":1900:1906   */\n      dup3\n        /* \"#utility.yul\":1889:1898   */\n      dup6\n        /* \"#utility.yul\":1885:1907   */\n      add\n        /* \"#utility.yul\":1853:1917   */\n      tag_33\n      jump\t// in\n    tag_62:\n        /* \"#utility.yul\":1843:1917   */\n      swap2\n      pop\n        /* \"#utility.yul\":1799:1927   */\n      pop\n        /* \"#utility.yul\":1583:1934   */\n      swap3\n      swap2\n      pop\n      pop\n      jump\t// out\n        /* \"#utility.yul\":1940:2109   */\n    tag_34:\n        /* \"#utility.yul\":2024:2035   */\n      0x00\n        /* \"#utility.yul\":2058:2064   */\n      dup3\n        /* \"#utility.yul\":2053:2056   */\n      dup3\n        /* \"#utility.yul\":2046:2065   */\n      mstore\n        /* \"#utility.yul\":2098:2102   */\n      0x20\n        /* \"#utility.yul\":2093:2096   */\n      dup3\n        /* \"#utility.yul\":2089:2103   */\n      add\n        /* \"#utility.yul\":2074:2103   */\n      swap1\n      pop\n        /* \"#utility.yul\":1940:2109   */\n      swap3\n      swap2\n      pop\n      pop\n      jump\t// out\n        /* \"#utility.yul\":2115:2270   */\n    tag_35:\n        /* \"#utility.yul\":2255:2262   */\n      0x6361746368000000000000000000000000000000000000000000000000000000\n        /* \"#utility.yul\":2251:2252   */\n      0x00\n        /* \"#utility.yul\":2243:2249   */\n      dup3\n        /* \"#utility.yul\":2239:2253   */\n      add\n        /* \"#utility.yul\":2232:2263   */\n      mstore\n        /* \"#utility.yul\":2115:2270   */\n      pop\n      jump\t// out\n        /* \"#utility.yul\":2276:2641   */\n    tag_36:\n        /* \"#utility.yul\":2418:2421   */\n      0x00\n        /* \"#utility.yul\":2439:2505   */\n      tag_66\n        /* \"#utility.yul\":2503:2504   */\n      0x05\n        /* \"#utility.yul\":2498:2501   */\n      dup4\n        /* \"#utility.yul\":2439:2505   */\n      tag_34\n      jump\t// in\n    tag_66:\n        /* \"#utility.yul\":2432:2505   */\n      swap2\n      pop\n        /* \"#utility.yul\":2514:2607   */\n      tag_67\n        /* \"#utility.yul\":2603:2606   */\n      dup3\n        /* \"#utility.yul\":2514:2607   */\n      tag_35\n      jump\t// in\n    tag_67:\n        /* \"#utility.yul\":2632:2634   */\n      0x20\n        /* \"#utility.yul\":2627:2630   */\n      dup3\n        /* \"#utility.yul\":2623:2635   */\n      add\n        /* \"#utility.yul\":2616:2635   */\n      swap1\n      pop\n        /* \"#utility.yul\":2276:2641   */\n      swap2\n      swap1\n      pop\n      jump\t// out\n        /* \"#utility.yul\":2647:2805   */\n    tag_37:\n        /* \"#utility.yul\":2787:2797   */\n      0x4572726f72532121000000000000000000000000000000000000000000000000\n        /* \"#utility.yul\":2783:2784   */\n      0x00\n        /* \"#utility.yul\":2775:2781   */\n      dup3\n        /* \"#utility.yul\":2771:2785   */\n      add\n        /* \"#utility.yul\":2764:2798   */\n      mstore\n        /* \"#utility.yul\":2647:2805   */\n      pop\n      jump\t// out\n        /* \"#utility.yul\":2811:3176   */\n    tag_38:\n        /* \"#utility.yul\":2953:2956   */\n      0x00\n        /* \"#utility.yul\":2974:3040   */\n      tag_70\n        /* \"#utility.yul\":3038:3039   */\n      0x08\n        /* \"#utility.yul\":3033:3036   */\n      dup4\n        /* \"#utility.yul\":2974:3040   */\n      tag_34\n      jump\t// in\n    tag_70:\n        /* \"#utility.yul\":2967:3040   */\n      swap2\n      pop\n        /* \"#utility.yul\":3049:3142   */\n      tag_71\n        /* \"#utility.yul\":3138:3141   */\n      dup3\n        /* \"#utility.yul\":3049:3142   */\n      tag_37\n      jump\t// in\n    tag_71:\n        /* \"#utility.yul\":3167:3169   */\n      0x20\n        /* \"#utility.yul\":3162:3165   */\n      dup3\n        /* \"#utility.yul\":3158:3170   */\n      add\n        /* \"#utility.yul\":3151:3170   */\n      swap1\n      pop\n        /* \"#utility.yul\":2811:3176   */\n      swap2\n      swap1\n      pop\n      jump\t// out\n        /* \"#utility.yul\":3182:3908   */\n    tag_22:\n        /* \"#utility.yul\":3449:3453   */\n      0x00\n        /* \"#utility.yul\":3487:3489   */\n      0x40\n        /* \"#utility.yul\":3476:3485   */\n      dup3\n        /* \"#utility.yul\":3472:3490   */\n      add\n        /* \"#utility.yul\":3464:3490   */\n      swap1\n      pop\n        /* \"#utility.yul\":3536:3545   */\n      dup2\n        /* \"#utility.yul\":3530:3534   */\n      dup2\n        /* \"#utility.yul\":3526:3546   */\n      sub\n        /* \"#utility.yul\":3522:3523   */\n      0x00\n        /* \"#utility.yul\":3511:3520   */\n      dup4\n        /* \"#utility.yul\":3507:3524   */\n      add\n        /* \"#utility.yul\":3500:3547   */\n      mstore\n        /* \"#utility.yul\":3564:3695   */\n      tag_73\n        /* \"#utility.yul\":3690:3694   */\n      dup2\n        /* \"#utility.yul\":3564:3695   */\n      tag_36\n      jump\t// in\n    tag_73:\n        /* \"#utility.yul\":3556:3695   */\n      swap1\n      pop\n        /* \"#utility.yul\":3742:3751   */\n      dup2\n        /* \"#utility.yul\":3736:3740   */\n      dup2\n        /* \"#utility.yul\":3732:3752   */\n      sub\n        /* \"#utility.yul\":3727:3729   */\n      0x20\n        /* \"#utility.yul\":3716:3725   */\n      dup4\n        /* \"#utility.yul\":3712:3730   */\n      add\n        /* \"#utility.yul\":3705:3753   */\n      mstore\n        /* \"#utility.yul\":3770:3901   */\n      tag_74\n        /* \"#utility.yul\":3896:3900   */\n      dup2\n        /* \"#utility.yul\":3770:3901   */\n      tag_38\n      jump\t// in\n    tag_74:\n        /* \"#utility.yul\":3762:3901   */\n      swap1\n      pop\n        /* \"#utility.yul\":3182:3908   */\n      swap2\n      swap1\n      pop\n      jump\t// out\n\n    auxdata: 0xa26469706673582212204f3f96f42a26aec7633551706e8c5e91aac79b51622b31cf7eaade7b4bc9068864736f6c634300081a0033\n}\n",
				"bytecode": {
					"linkReferences": {},
					"object": "6080604052348015600e575f80fd5b5061030f8061001c5f395ff3fe608060405234801561000f575f80fd5b5060043610610034575f3560e01c8063d57f438314610038578063df201a4614610057575b5f80fd5b610040610075565b60405161004e92919061016b565b60405180910390f35b61005f610131565b60405161006c9190610192565b60405180910390f35b5f803073ffffffffffffffffffffffffffffffffffffffff1663df201a466040518163ffffffff1660e01b81526004016020604051808303815f875af19250505080156100e057506040513d601f19601f820116820180604052508101906100dd91906101d9565b60015b610124577fed1339d3b97aca38a4bc95190b93af9130be96b54e1bc34caa04b59819decfa0604051610111906102a8565b60405180910390a15f809150915061012d565b80600192509250505b9091565b5f6004905090565b5f819050919050565b61014b81610139565b82525050565b5f8115159050919050565b61016581610151565b82525050565b5f60408201905061017e5f830185610142565b61018b602083018461015c565b9392505050565b5f6020820190506101a55f830184610142565b92915050565b5f80fd5b6101b881610139565b81146101c2575f80fd5b50565b5f815190506101d3816101af565b92915050565b5f602082840312156101ee576101ed6101ab565b5b5f6101fb848285016101c5565b91505092915050565b5f82825260208201905092915050565b7f63617463680000000000000000000000000000000000000000000000000000005f82015250565b5f610248600583610204565b915061025382610214565b602082019050919050565b7f4572726f725321210000000000000000000000000000000000000000000000005f82015250565b5f610292600883610204565b915061029d8261025e565b602082019050919050565b5f6040820190508181035f8301526102bf8161023c565b905081810360208301526102d281610286565b905091905056fea26469706673582212204f3f96f42a26aec7633551706e8c5e91aac79b51622b31cf7eaade7b4bc9068864736f6c634300081a0033",
					"opcodes": "PUSH1 0x80 PUSH1 0x40 MSTORE CALLVALUE DUP1 ISZERO PUSH1 0xE JUMPI PUSH0 DUP1 REVERT JUMPDEST POP PUSH2 0x30F DUP1 PUSH2 0x1C PUSH0 CODECOPY PUSH0 RETURN INVALID PUSH1 0x80 PUSH1 0x40 MSTORE CALLVALUE DUP1 ISZERO PUSH2 0xF JUMPI PUSH0 DUP1 REVERT JUMPDEST POP PUSH1 0x4 CALLDATASIZE LT PUSH2 0x34 JUMPI PUSH0 CALLDATALOAD PUSH1 0xE0 SHR DUP1 PUSH4 0xD57F4383 EQ PUSH2 0x38 JUMPI DUP1 PUSH4 0xDF201A46 EQ PUSH2 0x57 JUMPI JUMPDEST PUSH0 DUP1 REVERT JUMPDEST PUSH2 0x40 PUSH2 0x75 JUMP JUMPDEST PUSH1 0x40 MLOAD PUSH2 0x4E SWAP3 SWAP2 SWAP1 PUSH2 0x16B JUMP JUMPDEST PUSH1 0x40 MLOAD DUP1 SWAP2 SUB SWAP1 RETURN JUMPDEST PUSH2 0x5F PUSH2 0x131 JUMP JUMPDEST PUSH1 0x40 MLOAD PUSH2 0x6C SWAP2 SWAP1 PUSH2 0x192 JUMP JUMPDEST PUSH1 0x40 MLOAD DUP1 SWAP2 SUB SWAP1 RETURN JUMPDEST PUSH0 DUP1 ADDRESS PUSH20 0xFFFFFFFFFFFFFFFFFFFFFFFFFFFFFFFFFFFFFFFF AND PUSH4 0xDF201A46 PUSH1 0x40 MLOAD DUP2 PUSH4 0xFFFFFFFF AND PUSH1 0xE0 SHL DUP2 MSTORE PUSH1 0x4 ADD PUSH1 0x20 PUSH1 0x40 MLOAD DUP1 DUP4 SUB DUP2 PUSH0 DUP8 GAS CALL SWAP3 POP POP POP DUP1 ISZERO PUSH2 0xE0 JUMPI POP PUSH1 0x40 MLOAD RETURNDATASIZE PUSH1 0x1F NOT PUSH1 0x1F DUP3 ADD AND DUP3 ADD DUP1 PUSH1 0x40 MSTORE POP DUP2 ADD SWAP1 PUSH2 0xDD SWAP2 SWAP1 PUSH2 0x1D9 JUMP JUMPDEST PUSH1 0x1 JUMPDEST PUSH2 0x124 JUMPI PUSH32 0xED1339D3B97ACA38A4BC95190B93AF9130BE96B54E1BC34CAA04B59819DECFA0 PUSH1 0x40 MLOAD PUSH2 0x111 SWAP1 PUSH2 0x2A8 JUMP JUMPDEST PUSH1 0x40 MLOAD DUP1 SWAP2 SUB SWAP1 LOG1 PUSH0 DUP1 SWAP2 POP SWAP2 POP PUSH2 0x12D JUMP JUMPDEST DUP1 PUSH1 0x1 SWAP3 POP SWAP3 POP POP JUMPDEST SWAP1 SWAP2 JUMP JUMPDEST PUSH0 PUSH1 0x4 SWAP1 POP SWAP1 JUMP JUMPDEST PUSH0 DUP2 SWAP1 POP SWAP2 SWAP1 POP JUMP JUMPDEST PUSH2 0x14B DUP2 PUSH2 0x139 JUMP JUMPDEST DUP3 MSTORE POP POP JUMP JUMPDEST PUSH0 DUP2 ISZERO ISZERO SWAP1 POP SWAP2 SWAP1 POP JUMP JUMPDEST PUSH2 0x165 DUP2 PUSH2 0x151 JUMP JUMPDEST DUP3 MSTORE POP POP JUMP JUMPDEST PUSH0 PUSH1 0x40 DUP3 ADD SWAP1 POP PUSH2 0x17E PUSH0 DUP4 ADD DUP6 PUSH2 0x142 JUMP JUMPDEST PUSH2 0x18B PUSH1 0x20 DUP4 ADD DUP5 PUSH2 0x15C JUMP JUMPDEST SWAP4 SWAP3 POP POP POP JUMP JUMPDEST PUSH0 PUSH1 0x20 DUP3 ADD SWAP1 POP PUSH2 0x1A5 PUSH0 DUP4 ADD DUP5 PUSH2 0x142 JUMP JUMPDEST SWAP3 SWAP2 POP POP JUMP JUMPDEST PUSH0 DUP1 REVERT JUMPDEST PUSH2 0x1B8 DUP2 PUSH2 0x139 JUMP JUMPDEST DUP2 EQ PUSH2 0x1C2 JUMPI PUSH0 DUP1 REVERT JUMPDEST POP JUMP JUMPDEST PUSH0 DUP2 MLOAD SWAP1 POP PUSH2 0x1D3 DUP2 PUSH2 0x1AF JUMP JUMPDEST SWAP3 SWAP2 POP POP JUMP JUMPDEST PUSH0 PUSH1 0x20 DUP3 DUP5 SUB SLT ISZERO PUSH2 0x1EE JUMPI PUSH2 0x1ED PUSH2 0x1AB JUMP JUMPDEST JUMPDEST PUSH0 PUSH2 0x1FB DUP5 DUP3 DUP6 ADD PUSH2 0x1C5 JUMP JUMPDEST SWAP2 POP POP SWAP3 SWAP2 POP POP JUMP JUMPDEST PUSH0 DUP3 DUP3 MSTORE PUSH1 0x20 DUP3 ADD SWAP1 POP SWAP3 SWAP2 POP POP JUMP JUMPDEST PUSH32 0x6361746368000000000000000000000000000000000000000000000000000000 PUSH0 DUP3 ADD MSTORE POP JUMP JUMPDEST PUSH0 PUSH2 0x248 PUSH1 0x5 DUP4 PUSH2 0x204 JUMP JUMPDEST SWAP2 POP PUSH2 0x253 DUP3 PUSH2 0x214 JUMP JUMPDEST PUSH1 0x20 DUP3 ADD SWAP1 POP SWAP2 SWAP1 POP JUMP JUMPDEST PUSH32 0x4572726F72532121000000000000000000000000000000000000000000000000 PUSH0 DUP3 ADD MSTORE POP JUMP JUMPDEST PUSH0 PUSH2 0x292 PUSH1 0x8 DUP4 PUSH2 0x204 JUMP JUMPDEST SWAP2 POP PUSH2 0x29D DUP3 PUSH2 0x25E JUMP JUMPDEST PUSH1 0x20 DUP3 ADD SWAP1 POP SWAP2 SWAP1 POP JUMP JUMPDEST PUSH0 PUSH1 0x40 DUP3 ADD SWAP1 POP DUP2 DUP2 SUB PUSH0 DUP4 ADD MSTORE PUSH2 0x2BF DUP2 PUSH2 0x23C JUMP JUMPDEST SWAP1 POP DUP2 DUP2 SUB PUSH1 0x20 DUP4 ADD MSTORE PUSH2 0x2D2 DUP2 PUSH2 0x286 JUMP JUMPDEST SWAP1 POP SWAP2 SWAP1 POP JUMP INVALID LOG2 PUSH5 0x6970667358 0x22 SLT KECCAK256 0x4F EXTCODEHASH SWAP7 DELEGATECALL 0x2A 0x26 0xAE 0xC7 PUSH4 0x3551706E DUP13 MCOPY SWAP2 0xAA 0xC7 SWAP12 MLOAD PUSH3 0x2B31CF PUSH31 0xAADE7B4BC9068864736F6C634300081A003300000000000000000000000000 "
				},
				"gasEstimates": {
					"creation": {
						"codeDepositCost": "156600",
						"executionCost": "200",
						"totalCost": "156800"
					},
					"external": {
						"playTryCatch()": "infinite",
						"simple()": "332"
					}
				},
				"methodIdentifiers": {
					"playTryCatch()": "d57f4383",
					"simple()": "df201a46"
				}
			},
			"storageLayout": {
				"storage": [],
				"types": null
			},
			"userdoc": {
				"kind": "user",
				"methods": {},
				"version": 1
			}
		}
	}
}