{
	"lec26.sol": {
		"lec26": {
			"abi": [
				{
					"inputs": [],
					"name": "assertNow",
					"outputs": [],
					"stateMutability": "pure",
					"type": "function"
				},
				{
					"inputs": [
						{
							"internalType": "uint256",
							"name": "_age",
							"type": "uint256"
						}
					],
					"name": "onlyAdults",
					"outputs": [
						{
							"internalType": "string",
							"name": "",
							"type": "string"
						}
					],
					"stateMutability": "pure",
					"type": "function"
				},
				{
					"inputs": [
						{
							"internalType": "uint256",
							"name": "_age",
							"type": "uint256"
						}
					],
					"name": "onlyAdults2",
					"outputs": [
						{
							"internalType": "string",
							"name": "",
							"type": "string"
						}
					],
					"stateMutability": "pure",
					"type": "function"
				},
				{
					"inputs": [],
					"name": "requireNow",
					"outputs": [],
					"stateMutability": "pure",
					"type": "function"
				},
				{
					"inputs": [],
					"name": "revertNow",
					"outputs": [],
					"stateMutability": "pure",
					"type": "function"
				}
			],
			"devdoc": {
				"kind": "dev",
				"methods": {},
				"version": 1
			},
			"evm": {
				"assembly": "    /* \"lec26.sol\":127:1121  contract lec26{... */\n  mstore(0x40, 0x80)\n  callvalue\n  dup1\n  iszero\n  tag_1\n  jumpi\n  0x00\n  dup1\n  revert\ntag_1:\n  pop\n  dataSize(sub_0)\n  dup1\n  dataOffset(sub_0)\n  0x00\n  codecopy\n  0x00\n  return\nstop\n\nsub_0: assembly {\n        /* \"lec26.sol\":127:1121  contract lec26{... */\n      mstore(0x40, 0x80)\n      callvalue\n      dup1\n      iszero\n      tag_1\n      jumpi\n      0x00\n      dup1\n      revert\n    tag_1:\n      pop\n      jumpi(tag_2, lt(calldatasize, 0x04))\n      shr(0xe0, calldataload(0x00))\n      dup1\n      0x746715\n      eq\n      tag_3\n      jumpi\n      dup1\n      0x2712f519\n      eq\n      tag_4\n      jumpi\n      dup1\n      0x844adfd2\n      eq\n      tag_5\n      jumpi\n      dup1\n      0x9de5b7d2\n      eq\n      tag_6\n      jumpi\n      dup1\n      0xafe26609\n      eq\n      tag_7\n      jumpi\n    tag_2:\n      0x00\n      dup1\n      revert\n        /* \"lec26.sol\":917:1118  function onlyAdults2(uint256 _age) public pure returns(string memory){... */\n    tag_3:\n      tag_8\n      0x04\n      dup1\n      calldatasize\n      sub\n      dup2\n      add\n      swap1\n      tag_9\n      swap2\n      swap1\n      tag_10\n      jump\t// in\n    tag_9:\n      tag_11\n      jump\t// in\n    tag_8:\n      mload(0x40)\n      tag_12\n      swap2\n      swap1\n      tag_13\n      jump\t// in\n    tag_12:\n      mload(0x40)\n      dup1\n      swap2\n      sub\n      swap1\n      return\n        /* \"lec26.sol\":382:453  function assertNow() public pure{... */\n    tag_4:\n      tag_14\n      tag_15\n      jump\t// in\n    tag_14:\n      stop\n        /* \"lec26.sol\":592:666  function requireNow()public pure{... */\n    tag_5:\n      tag_16\n      tag_17\n      jump\t// in\n    tag_16:\n      stop\n        /* \"lec26.sol\":676:906  function onlyAdults(uint256 _age) public pure returns(string memory){... */\n    tag_6:\n      tag_18\n      0x04\n      dup1\n      calldatasize\n      sub\n      dup2\n      add\n      swap1\n      tag_19\n      swap2\n      swap1\n      tag_10\n      jump\t// in\n    tag_19:\n      tag_20\n      jump\t// in\n    tag_18:\n      mload(0x40)\n      tag_21\n      swap2\n      swap1\n      tag_13\n      jump\t// in\n    tag_21:\n      mload(0x40)\n      dup1\n      swap2\n      sub\n      swap1\n      return\n        /* \"lec26.sol\":472:570  function revertNow() public pure{... */\n    tag_7:\n      tag_22\n      tag_23\n      jump\t// in\n    tag_22:\n      stop\n        /* \"lec26.sol\":917:1118  function onlyAdults2(uint256 _age) public pure returns(string memory){... */\n    tag_11:\n        /* \"lec26.sol\":972:985  string memory */\n      0x60\n        /* \"lec26.sol\":1009:1011  19 */\n      0x13\n        /* \"lec26.sol\":1004:1008  _age */\n      dup3\n        /* \"lec26.sol\":1004:1011  _age>19 */\n      gt\n        /* \"lec26.sol\":996:1059  require(_age>19,\"You are not allowed to pay for the cigarette\") */\n      tag_25\n      jumpi\n      mload(0x40)\n      0x08c379a000000000000000000000000000000000000000000000000000000000\n      dup2\n      mstore\n      0x04\n      add\n      tag_26\n      swap1\n      tag_27\n      jump\t// in\n    tag_26:\n      mload(0x40)\n      dup1\n      swap2\n      sub\n      swap1\n      revert\n    tag_25:\n        /* \"lec26.sol\":1069:1102  return \"Your payment is scceeded\" */\n      mload(0x40)\n      dup1\n      0x40\n      add\n      0x40\n      mstore\n      dup1\n      0x18\n      dup2\n      mstore\n      0x20\n      add\n      0x596f7572207061796d656e742069732073636365656465640000000000000000\n      dup2\n      mstore\n      pop\n      swap1\n      pop\n        /* \"lec26.sol\":917:1118  function onlyAdults2(uint256 _age) public pure returns(string memory){... */\n      swap2\n      swap1\n      pop\n      jump\t// out\n        /* \"lec26.sol\":382:453  function assertNow() public pure{... */\n    tag_15:\n        /* \"lec26.sol\":431:436  false */\n      0x00\n        /* \"lec26.sol\":424:437  assert(false) */\n      tag_29\n      jumpi\n      tag_30\n      tag_31\n      jump\t// in\n    tag_30:\n    tag_29:\n        /* \"lec26.sol\":382:453  function assertNow() public pure{... */\n      jump\t// out\n        /* \"lec26.sol\":592:666  function requireNow()public pure{... */\n    tag_17:\n        /* \"lec26.sol\":642:647  false */\n      0x00\n        /* \"lec26.sol\":634:659  require(false,\"occurred\") */\n      tag_33\n      jumpi\n      mload(0x40)\n      0x08c379a000000000000000000000000000000000000000000000000000000000\n      dup2\n      mstore\n      0x04\n      add\n      tag_34\n      swap1\n      tag_35\n      jump\t// in\n    tag_34:\n      mload(0x40)\n      dup1\n      swap2\n      sub\n      swap1\n      revert\n    tag_33:\n        /* \"lec26.sol\":592:666  function requireNow()public pure{... */\n      jump\t// out\n        /* \"lec26.sol\":676:906  function onlyAdults(uint256 _age) public pure returns(string memory){... */\n    tag_20:\n        /* \"lec26.sol\":730:743  string memory */\n      0x60\n        /* \"lec26.sol\":765:767  19 */\n      0x13\n        /* \"lec26.sol\":758:762  _age */\n      dup3\n        /* \"lec26.sol\":758:767  _age < 19 */\n      lt\n        /* \"lec26.sol\":754:847  if( _age < 19){... */\n      iszero\n      tag_37\n      jumpi\n        /* \"lec26.sol\":782:836  revert(\"You are not allowed to pay for the cigarette\") */\n      mload(0x40)\n      0x08c379a000000000000000000000000000000000000000000000000000000000\n      dup2\n      mstore\n      0x04\n      add\n      tag_38\n      swap1\n      tag_27\n      jump\t// in\n    tag_38:\n      mload(0x40)\n      dup1\n      swap2\n      sub\n      swap1\n      revert\n        /* \"lec26.sol\":754:847  if( _age < 19){... */\n    tag_37:\n        /* \"lec26.sol\":856:890  return \"Your payment is succeeded\" */\n      mload(0x40)\n      dup1\n      0x40\n      add\n      0x40\n      mstore\n      dup1\n      0x19\n      dup2\n      mstore\n      0x20\n      add\n      0x596f7572207061796d656e742069732073756363656564656400000000000000\n      dup2\n      mstore\n      pop\n      swap1\n      pop\n        /* \"lec26.sol\":676:906  function onlyAdults(uint256 _age) public pure returns(string memory){... */\n      swap2\n      swap1\n      pop\n      jump\t// out\n        /* \"lec26.sol\":472:570  function revertNow() public pure{... */\n    tag_23:\n        /* \"lec26.sol\":514:531  revert(\"error!!\") */\n      mload(0x40)\n      0x08c379a000000000000000000000000000000000000000000000000000000000\n      dup2\n      mstore\n      0x04\n      add\n      tag_40\n      swap1\n      tag_41\n      jump\t// in\n    tag_40:\n      mload(0x40)\n      dup1\n      swap2\n      sub\n      swap1\n      revert\n        /* \"#utility.yul\":88:205   */\n    tag_43:\n        /* \"#utility.yul\":197:198   */\n      0x00\n        /* \"#utility.yul\":194:195   */\n      dup1\n        /* \"#utility.yul\":187:199   */\n      revert\n        /* \"#utility.yul\":334:411   */\n    tag_45:\n        /* \"#utility.yul\":371:378   */\n      0x00\n        /* \"#utility.yul\":400:405   */\n      dup2\n        /* \"#utility.yul\":389:405   */\n      swap1\n      pop\n        /* \"#utility.yul\":334:411   */\n      swap2\n      swap1\n      pop\n      jump\t// out\n        /* \"#utility.yul\":417:539   */\n    tag_46:\n        /* \"#utility.yul\":490:514   */\n      tag_65\n        /* \"#utility.yul\":508:513   */\n      dup2\n        /* \"#utility.yul\":490:514   */\n      tag_45\n      jump\t// in\n    tag_65:\n        /* \"#utility.yul\":483:488   */\n      dup2\n        /* \"#utility.yul\":480:515   */\n      eq\n        /* \"#utility.yul\":470:533   */\n      tag_66\n      jumpi\n        /* \"#utility.yul\":529:530   */\n      0x00\n        /* \"#utility.yul\":526:527   */\n      dup1\n        /* \"#utility.yul\":519:531   */\n      revert\n        /* \"#utility.yul\":470:533   */\n    tag_66:\n        /* \"#utility.yul\":417:539   */\n      pop\n      jump\t// out\n        /* \"#utility.yul\":545:684   */\n    tag_47:\n        /* \"#utility.yul\":591:596   */\n      0x00\n        /* \"#utility.yul\":629:635   */\n      dup2\n        /* \"#utility.yul\":616:636   */\n      calldataload\n        /* \"#utility.yul\":607:636   */\n      swap1\n      pop\n        /* \"#utility.yul\":645:678   */\n      tag_68\n        /* \"#utility.yul\":672:677   */\n      dup2\n        /* \"#utility.yul\":645:678   */\n      tag_46\n      jump\t// in\n    tag_68:\n        /* \"#utility.yul\":545:684   */\n      swap3\n      swap2\n      pop\n      pop\n      jump\t// out\n        /* \"#utility.yul\":690:1019   */\n    tag_10:\n        /* \"#utility.yul\":749:755   */\n      0x00\n        /* \"#utility.yul\":798:800   */\n      0x20\n        /* \"#utility.yul\":786:795   */\n      dup3\n        /* \"#utility.yul\":777:784   */\n      dup5\n        /* \"#utility.yul\":773:796   */\n      sub\n        /* \"#utility.yul\":769:801   */\n      slt\n        /* \"#utility.yul\":766:885   */\n      iszero\n      tag_70\n      jumpi\n        /* \"#utility.yul\":804:883   */\n      tag_71\n      tag_43\n      jump\t// in\n    tag_71:\n        /* \"#utility.yul\":766:885   */\n    tag_70:\n        /* \"#utility.yul\":924:925   */\n      0x00\n        /* \"#utility.yul\":949:1002   */\n      tag_72\n        /* \"#utility.yul\":994:1001   */\n      dup5\n        /* \"#utility.yul\":985:991   */\n      dup3\n        /* \"#utility.yul\":974:983   */\n      dup6\n        /* \"#utility.yul\":970:992   */\n      add\n        /* \"#utility.yul\":949:1002   */\n      tag_47\n      jump\t// in\n    tag_72:\n        /* \"#utility.yul\":939:1002   */\n      swap2\n      pop\n        /* \"#utility.yul\":895:1012   */\n      pop\n        /* \"#utility.yul\":690:1019   */\n      swap3\n      swap2\n      pop\n      pop\n      jump\t// out\n        /* \"#utility.yul\":1025:1124   */\n    tag_48:\n        /* \"#utility.yul\":1077:1083   */\n      0x00\n        /* \"#utility.yul\":1111:1116   */\n      dup2\n        /* \"#utility.yul\":1105:1117   */\n      mload\n        /* \"#utility.yul\":1095:1117   */\n      swap1\n      pop\n        /* \"#utility.yul\":1025:1124   */\n      swap2\n      swap1\n      pop\n      jump\t// out\n        /* \"#utility.yul\":1130:1299   */\n    tag_49:\n        /* \"#utility.yul\":1214:1225   */\n      0x00\n        /* \"#utility.yul\":1248:1254   */\n      dup3\n        /* \"#utility.yul\":1243:1246   */\n      dup3\n        /* \"#utility.yul\":1236:1255   */\n      mstore\n        /* \"#utility.yul\":1288:1292   */\n      0x20\n        /* \"#utility.yul\":1283:1286   */\n      dup3\n        /* \"#utility.yul\":1279:1293   */\n      add\n        /* \"#utility.yul\":1264:1293   */\n      swap1\n      pop\n        /* \"#utility.yul\":1130:1299   */\n      swap3\n      swap2\n      pop\n      pop\n      jump\t// out\n        /* \"#utility.yul\":1305:1444   */\n    tag_50:\n        /* \"#utility.yul\":1394:1400   */\n      dup3\n        /* \"#utility.yul\":1389:1392   */\n      dup2\n        /* \"#utility.yul\":1384:1387   */\n      dup4\n        /* \"#utility.yul\":1378:1401   */\n      mcopy\n        /* \"#utility.yul\":1435:1436   */\n      0x00\n        /* \"#utility.yul\":1426:1432   */\n      dup4\n        /* \"#utility.yul\":1421:1424   */\n      dup4\n        /* \"#utility.yul\":1417:1433   */\n      add\n        /* \"#utility.yul\":1410:1437   */\n      mstore\n        /* \"#utility.yul\":1305:1444   */\n      pop\n      pop\n      pop\n      jump\t// out\n        /* \"#utility.yul\":1450:1552   */\n    tag_51:\n        /* \"#utility.yul\":1491:1497   */\n      0x00\n        /* \"#utility.yul\":1542:1544   */\n      0x1f\n        /* \"#utility.yul\":1538:1545   */\n      not\n        /* \"#utility.yul\":1533:1535   */\n      0x1f\n        /* \"#utility.yul\":1526:1531   */\n      dup4\n        /* \"#utility.yul\":1522:1536   */\n      add\n        /* \"#utility.yul\":1518:1546   */\n      and\n        /* \"#utility.yul\":1508:1546   */\n      swap1\n      pop\n        /* \"#utility.yul\":1450:1552   */\n      swap2\n      swap1\n      pop\n      jump\t// out\n        /* \"#utility.yul\":1558:1935   */\n    tag_52:\n        /* \"#utility.yul\":1646:1649   */\n      0x00\n        /* \"#utility.yul\":1674:1713   */\n      tag_78\n        /* \"#utility.yul\":1707:1712   */\n      dup3\n        /* \"#utility.yul\":1674:1713   */\n      tag_48\n      jump\t// in\n    tag_78:\n        /* \"#utility.yul\":1729:1800   */\n      tag_79\n        /* \"#utility.yul\":1793:1799   */\n      dup2\n        /* \"#utility.yul\":1788:1791   */\n      dup6\n        /* \"#utility.yul\":1729:1800   */\n      tag_49\n      jump\t// in\n    tag_79:\n        /* \"#utility.yul\":1722:1800   */\n      swap4\n      pop\n        /* \"#utility.yul\":1809:1874   */\n      tag_80\n        /* \"#utility.yul\":1867:1873   */\n      dup2\n        /* \"#utility.yul\":1862:1865   */\n      dup6\n        /* \"#utility.yul\":1855:1859   */\n      0x20\n        /* \"#utility.yul\":1848:1853   */\n      dup7\n        /* \"#utility.yul\":1844:1860   */\n      add\n        /* \"#utility.yul\":1809:1874   */\n      tag_50\n      jump\t// in\n    tag_80:\n        /* \"#utility.yul\":1899:1928   */\n      tag_81\n        /* \"#utility.yul\":1921:1927   */\n      dup2\n        /* \"#utility.yul\":1899:1928   */\n      tag_51\n      jump\t// in\n    tag_81:\n        /* \"#utility.yul\":1894:1897   */\n      dup5\n        /* \"#utility.yul\":1890:1929   */\n      add\n        /* \"#utility.yul\":1883:1929   */\n      swap2\n      pop\n        /* \"#utility.yul\":1650:1935   */\n      pop\n        /* \"#utility.yul\":1558:1935   */\n      swap3\n      swap2\n      pop\n      pop\n      jump\t// out\n        /* \"#utility.yul\":1941:2254   */\n    tag_13:\n        /* \"#utility.yul\":2054:2058   */\n      0x00\n        /* \"#utility.yul\":2092:2094   */\n      0x20\n        /* \"#utility.yul\":2081:2090   */\n      dup3\n        /* \"#utility.yul\":2077:2095   */\n      add\n        /* \"#utility.yul\":2069:2095   */\n      swap1\n      pop\n        /* \"#utility.yul\":2141:2150   */\n      dup2\n        /* \"#utility.yul\":2135:2139   */\n      dup2\n        /* \"#utility.yul\":2131:2151   */\n      sub\n        /* \"#utility.yul\":2127:2128   */\n      0x00\n        /* \"#utility.yul\":2116:2125   */\n      dup4\n        /* \"#utility.yul\":2112:2129   */\n      add\n        /* \"#utility.yul\":2105:2152   */\n      mstore\n        /* \"#utility.yul\":2169:2247   */\n      tag_83\n        /* \"#utility.yul\":2242:2246   */\n      dup2\n        /* \"#utility.yul\":2233:2239   */\n      dup5\n        /* \"#utility.yul\":2169:2247   */\n      tag_52\n      jump\t// in\n    tag_83:\n        /* \"#utility.yul\":2161:2247   */\n      swap1\n      pop\n        /* \"#utility.yul\":1941:2254   */\n      swap3\n      swap2\n      pop\n      pop\n      jump\t// out\n        /* \"#utility.yul\":2260:2491   */\n    tag_53:\n        /* \"#utility.yul\":2400:2434   */\n      0x596f7520617265206e6f7420616c6c6f77656420746f2070617920666f722074\n        /* \"#utility.yul\":2396:2397   */\n      0x00\n        /* \"#utility.yul\":2388:2394   */\n      dup3\n        /* \"#utility.yul\":2384:2398   */\n      add\n        /* \"#utility.yul\":2377:2435   */\n      mstore\n        /* \"#utility.yul\":2469:2483   */\n      0x6865206369676172657474650000000000000000000000000000000000000000\n        /* \"#utility.yul\":2464:2466   */\n      0x20\n        /* \"#utility.yul\":2456:2462   */\n      dup3\n        /* \"#utility.yul\":2452:2467   */\n      add\n        /* \"#utility.yul\":2445:2484   */\n      mstore\n        /* \"#utility.yul\":2260:2491   */\n      pop\n      jump\t// out\n        /* \"#utility.yul\":2497:2863   */\n    tag_54:\n        /* \"#utility.yul\":2639:2642   */\n      0x00\n        /* \"#utility.yul\":2660:2727   */\n      tag_86\n        /* \"#utility.yul\":2724:2726   */\n      0x2c\n        /* \"#utility.yul\":2719:2722   */\n      dup4\n        /* \"#utility.yul\":2660:2727   */\n      tag_49\n      jump\t// in\n    tag_86:\n        /* \"#utility.yul\":2653:2727   */\n      swap2\n      pop\n        /* \"#utility.yul\":2736:2829   */\n      tag_87\n        /* \"#utility.yul\":2825:2828   */\n      dup3\n        /* \"#utility.yul\":2736:2829   */\n      tag_53\n      jump\t// in\n    tag_87:\n        /* \"#utility.yul\":2854:2856   */\n      0x40\n        /* \"#utility.yul\":2849:2852   */\n      dup3\n        /* \"#utility.yul\":2845:2857   */\n      add\n        /* \"#utility.yul\":2838:2857   */\n      swap1\n      pop\n        /* \"#utility.yul\":2497:2863   */\n      swap2\n      swap1\n      pop\n      jump\t// out\n        /* \"#utility.yul\":2869:3288   */\n    tag_27:\n        /* \"#utility.yul\":3035:3039   */\n      0x00\n        /* \"#utility.yul\":3073:3075   */\n      0x20\n        /* \"#utility.yul\":3062:3071   */\n      dup3\n        /* \"#utility.yul\":3058:3076   */\n      add\n        /* \"#utility.yul\":3050:3076   */\n      swap1\n      pop\n        /* \"#utility.yul\":3122:3131   */\n      dup2\n        /* \"#utility.yul\":3116:3120   */\n      dup2\n        /* \"#utility.yul\":3112:3132   */\n      sub\n        /* \"#utility.yul\":3108:3109   */\n      0x00\n        /* \"#utility.yul\":3097:3106   */\n      dup4\n        /* \"#utility.yul\":3093:3110   */\n      add\n        /* \"#utility.yul\":3086:3133   */\n      mstore\n        /* \"#utility.yul\":3150:3281   */\n      tag_89\n        /* \"#utility.yul\":3276:3280   */\n      dup2\n        /* \"#utility.yul\":3150:3281   */\n      tag_54\n      jump\t// in\n    tag_89:\n        /* \"#utility.yul\":3142:3281   */\n      swap1\n      pop\n        /* \"#utility.yul\":2869:3288   */\n      swap2\n      swap1\n      pop\n      jump\t// out\n        /* \"#utility.yul\":3294:3474   */\n    tag_31:\n        /* \"#utility.yul\":3342:3419   */\n      0x4e487b7100000000000000000000000000000000000000000000000000000000\n        /* \"#utility.yul\":3339:3340   */\n      0x00\n        /* \"#utility.yul\":3332:3420   */\n      mstore\n        /* \"#utility.yul\":3439:3443   */\n      0x01\n        /* \"#utility.yul\":3436:3437   */\n      0x04\n        /* \"#utility.yul\":3429:3444   */\n      mstore\n        /* \"#utility.yul\":3463:3467   */\n      0x24\n        /* \"#utility.yul\":3460:3461   */\n      0x00\n        /* \"#utility.yul\":3453:3468   */\n      revert\n        /* \"#utility.yul\":3480:3638   */\n    tag_55:\n        /* \"#utility.yul\":3620:3630   */\n      0x6f63637572726564000000000000000000000000000000000000000000000000\n        /* \"#utility.yul\":3616:3617   */\n      0x00\n        /* \"#utility.yul\":3608:3614   */\n      dup3\n        /* \"#utility.yul\":3604:3618   */\n      add\n        /* \"#utility.yul\":3597:3631   */\n      mstore\n        /* \"#utility.yul\":3480:3638   */\n      pop\n      jump\t// out\n        /* \"#utility.yul\":3644:4009   */\n    tag_56:\n        /* \"#utility.yul\":3786:3789   */\n      0x00\n        /* \"#utility.yul\":3807:3873   */\n      tag_93\n        /* \"#utility.yul\":3871:3872   */\n      0x08\n        /* \"#utility.yul\":3866:3869   */\n      dup4\n        /* \"#utility.yul\":3807:3873   */\n      tag_49\n      jump\t// in\n    tag_93:\n        /* \"#utility.yul\":3800:3873   */\n      swap2\n      pop\n        /* \"#utility.yul\":3882:3975   */\n      tag_94\n        /* \"#utility.yul\":3971:3974   */\n      dup3\n        /* \"#utility.yul\":3882:3975   */\n      tag_55\n      jump\t// in\n    tag_94:\n        /* \"#utility.yul\":4000:4002   */\n      0x20\n        /* \"#utility.yul\":3995:3998   */\n      dup3\n        /* \"#utility.yul\":3991:4003   */\n      add\n        /* \"#utility.yul\":3984:4003   */\n      swap1\n      pop\n        /* \"#utility.yul\":3644:4009   */\n      swap2\n      swap1\n      pop\n      jump\t// out\n        /* \"#utility.yul\":4015:4434   */\n    tag_35:\n        /* \"#utility.yul\":4181:4185   */\n      0x00\n        /* \"#utility.yul\":4219:4221   */\n      0x20\n        /* \"#utility.yul\":4208:4217   */\n      dup3\n        /* \"#utility.yul\":4204:4222   */\n      add\n        /* \"#utility.yul\":4196:4222   */\n      swap1\n      pop\n        /* \"#utility.yul\":4268:4277   */\n      dup2\n        /* \"#utility.yul\":4262:4266   */\n      dup2\n        /* \"#utility.yul\":4258:4278   */\n      sub\n        /* \"#utility.yul\":4254:4255   */\n      0x00\n        /* \"#utility.yul\":4243:4252   */\n      dup4\n        /* \"#utility.yul\":4239:4256   */\n      add\n        /* \"#utility.yul\":4232:4279   */\n      mstore\n        /* \"#utility.yul\":4296:4427   */\n      tag_96\n        /* \"#utility.yul\":4422:4426   */\n      dup2\n        /* \"#utility.yul\":4296:4427   */\n      tag_56\n      jump\t// in\n    tag_96:\n        /* \"#utility.yul\":4288:4427   */\n      swap1\n      pop\n        /* \"#utility.yul\":4015:4434   */\n      swap2\n      swap1\n      pop\n      jump\t// out\n        /* \"#utility.yul\":4440:4597   */\n    tag_57:\n        /* \"#utility.yul\":4580:4589   */\n      0x6572726f72212100000000000000000000000000000000000000000000000000\n        /* \"#utility.yul\":4576:4577   */\n      0x00\n        /* \"#utility.yul\":4568:4574   */\n      dup3\n        /* \"#utility.yul\":4564:4578   */\n      add\n        /* \"#utility.yul\":4557:4590   */\n      mstore\n        /* \"#utility.yul\":4440:4597   */\n      pop\n      jump\t// out\n        /* \"#utility.yul\":4603:4968   */\n    tag_58:\n        /* \"#utility.yul\":4745:4748   */\n      0x00\n        /* \"#utility.yul\":4766:4832   */\n      tag_99\n        /* \"#utility.yul\":4830:4831   */\n      0x07\n        /* \"#utility.yul\":4825:4828   */\n      dup4\n        /* \"#utility.yul\":4766:4832   */\n      tag_49\n      jump\t// in\n    tag_99:\n        /* \"#utility.yul\":4759:4832   */\n      swap2\n      pop\n        /* \"#utility.yul\":4841:4934   */\n      tag_100\n        /* \"#utility.yul\":4930:4933   */\n      dup3\n        /* \"#utility.yul\":4841:4934   */\n      tag_57\n      jump\t// in\n    tag_100:\n        /* \"#utility.yul\":4959:4961   */\n      0x20\n        /* \"#utility.yul\":4954:4957   */\n      dup3\n        /* \"#utility.yul\":4950:4962   */\n      add\n        /* \"#utility.yul\":4943:4962   */\n      swap1\n      pop\n        /* \"#utility.yul\":4603:4968   */\n      swap2\n      swap1\n      pop\n      jump\t// out\n        /* \"#utility.yul\":4974:5393   */\n    tag_41:\n        /* \"#utility.yul\":5140:5144   */\n      0x00\n        /* \"#utility.yul\":5178:5180   */\n      0x20\n        /* \"#utility.yul\":5167:5176   */\n      dup3\n        /* \"#utility.yul\":5163:5181   */\n      add\n        /* \"#utility.yul\":5155:5181   */\n      swap1\n      pop\n        /* \"#utility.yul\":5227:5236   */\n      dup2\n        /* \"#utility.yul\":5221:5225   */\n      dup2\n        /* \"#utility.yul\":5217:5237   */\n      sub\n        /* \"#utility.yul\":5213:5214   */\n      0x00\n        /* \"#utility.yul\":5202:5211   */\n      dup4\n        /* \"#utility.yul\":5198:5215   */\n      add\n        /* \"#utility.yul\":5191:5238   */\n      mstore\n        /* \"#utility.yul\":5255:5386   */\n      tag_102\n        /* \"#utility.yul\":5381:5385   */\n      dup2\n        /* \"#utility.yul\":5255:5386   */\n      tag_58\n      jump\t// in\n    tag_102:\n        /* \"#utility.yul\":5247:5386   */\n      swap1\n      pop\n        /* \"#utility.yul\":4974:5393   */\n      swap2\n      swap1\n      pop\n      jump\t// out\n\n    auxdata: 0xa264697066735822122014a8f29be72083965635df2840424fbc8285ba97b41d807dac9561f3abc4c8b064736f6c634300081a0033\n}\n",
				"bytecode": {
					"linkReferences": {},
					"object": "6080604052348015600e575f80fd5b5061051b8061001c5f395ff3fe608060405234801561000f575f80fd5b5060043610610054575f3560e01c8062746715146100585780632712f51914610088578063844adfd2146100925780639de5b7d21461009c578063afe26609146100cc575b5f80fd5b610072600480360381019061006d919061029f565b6100d6565b60405161007f919061033a565b60405180910390f35b610090610158565b005b61009a610168565b005b6100b660048036038101906100b1919061029f565b6101aa565b6040516100c3919061033a565b60405180910390f35b6100d461022d565b005b60606013821161011b576040517f08c379a0000000000000000000000000000000000000000000000000000000008152600401610112906103ca565b60405180910390fd5b6040518060400160405280601881526020017f596f7572207061796d656e7420697320736363656564656400000000000000008152509050919050565b5f610166576101656103e8565b5b565b5f6101a8576040517f08c379a000000000000000000000000000000000000000000000000000000000815260040161019f9061045f565b60405180910390fd5b565b606060138210156101f0576040517f08c379a00000000000000000000000000000000000000000000000000000000081526004016101e7906103ca565b60405180910390fd5b6040518060400160405280601981526020017f596f7572207061796d656e7420697320737563636565646564000000000000008152509050919050565b6040517f08c379a000000000000000000000000000000000000000000000000000000000815260040161025f906104c7565b60405180910390fd5b5f80fd5b5f819050919050565b61027e8161026c565b8114610288575f80fd5b50565b5f8135905061029981610275565b92915050565b5f602082840312156102b4576102b3610268565b5b5f6102c18482850161028b565b91505092915050565b5f81519050919050565b5f82825260208201905092915050565b8281835e5f83830152505050565b5f601f19601f8301169050919050565b5f61030c826102ca565b61031681856102d4565b93506103268185602086016102e4565b61032f816102f2565b840191505092915050565b5f6020820190508181035f8301526103528184610302565b905092915050565b7f596f7520617265206e6f7420616c6c6f77656420746f2070617920666f7220745f8201527f6865206369676172657474650000000000000000000000000000000000000000602082015250565b5f6103b4602c836102d4565b91506103bf8261035a565b604082019050919050565b5f6020820190508181035f8301526103e1816103a8565b9050919050565b7f4e487b71000000000000000000000000000000000000000000000000000000005f52600160045260245ffd5b7f6f636375727265640000000000000000000000000000000000000000000000005f82015250565b5f6104496008836102d4565b915061045482610415565b602082019050919050565b5f6020820190508181035f8301526104768161043d565b9050919050565b7f6572726f722121000000000000000000000000000000000000000000000000005f82015250565b5f6104b16007836102d4565b91506104bc8261047d565b602082019050919050565b5f6020820190508181035f8301526104de816104a5565b905091905056fea264697066735822122014a8f29be72083965635df2840424fbc8285ba97b41d807dac9561f3abc4c8b064736f6c634300081a0033",
					"opcodes": "PUSH1 0x80 PUSH1 0x40 MSTORE CALLVALUE DUP1 ISZERO PUSH1 0xE JUMPI PUSH0 DUP1 REVERT JUMPDEST POP PUSH2 0x51B DUP1 PUSH2 0x1C PUSH0 CODECOPY PUSH0 RETURN INVALID PUSH1 0x80 PUSH1 0x40 MSTORE CALLVALUE DUP1 ISZERO PUSH2 0xF JUMPI PUSH0 DUP1 REVERT JUMPDEST POP PUSH1 0x4 CALLDATASIZE LT PUSH2 0x54 JUMPI PUSH0 CALLDATALOAD PUSH1 0xE0 SHR DUP1 PUSH3 0x746715 EQ PUSH2 0x58 JUMPI DUP1 PUSH4 0x2712F519 EQ PUSH2 0x88 JUMPI DUP1 PUSH4 0x844ADFD2 EQ PUSH2 0x92 JUMPI DUP1 PUSH4 0x9DE5B7D2 EQ PUSH2 0x9C JUMPI DUP1 PUSH4 0xAFE26609 EQ PUSH2 0xCC JUMPI JUMPDEST PUSH0 DUP1 REVERT JUMPDEST PUSH2 0x72 PUSH1 0x4 DUP1 CALLDATASIZE SUB DUP2 ADD SWAP1 PUSH2 0x6D SWAP2 SWAP1 PUSH2 0x29F JUMP JUMPDEST PUSH2 0xD6 JUMP JUMPDEST PUSH1 0x40 MLOAD PUSH2 0x7F SWAP2 SWAP1 PUSH2 0x33A JUMP JUMPDEST PUSH1 0x40 MLOAD DUP1 SWAP2 SUB SWAP1 RETURN JUMPDEST PUSH2 0x90 PUSH2 0x158 JUMP JUMPDEST STOP JUMPDEST PUSH2 0x9A PUSH2 0x168 JUMP JUMPDEST STOP JUMPDEST PUSH2 0xB6 PUSH1 0x4 DUP1 CALLDATASIZE SUB DUP2 ADD SWAP1 PUSH2 0xB1 SWAP2 SWAP1 PUSH2 0x29F JUMP JUMPDEST PUSH2 0x1AA JUMP JUMPDEST PUSH1 0x40 MLOAD PUSH2 0xC3 SWAP2 SWAP1 PUSH2 0x33A JUMP JUMPDEST PUSH1 0x40 MLOAD DUP1 SWAP2 SUB SWAP1 RETURN JUMPDEST PUSH2 0xD4 PUSH2 0x22D JUMP JUMPDEST STOP JUMPDEST PUSH1 0x60 PUSH1 0x13 DUP3 GT PUSH2 0x11B JUMPI PUSH1 0x40 MLOAD PUSH32 0x8C379A000000000000000000000000000000000000000000000000000000000 DUP2 MSTORE PUSH1 0x4 ADD PUSH2 0x112 SWAP1 PUSH2 0x3CA JUMP JUMPDEST PUSH1 0x40 MLOAD DUP1 SWAP2 SUB SWAP1 REVERT JUMPDEST PUSH1 0x40 MLOAD DUP1 PUSH1 0x40 ADD PUSH1 0x40 MSTORE DUP1 PUSH1 0x18 DUP2 MSTORE PUSH1 0x20 ADD PUSH32 0x596F7572207061796D656E742069732073636365656465640000000000000000 DUP2 MSTORE POP SWAP1 POP SWAP2 SWAP1 POP JUMP JUMPDEST PUSH0 PUSH2 0x166 JUMPI PUSH2 0x165 PUSH2 0x3E8 JUMP JUMPDEST JUMPDEST JUMP JUMPDEST PUSH0 PUSH2 0x1A8 JUMPI PUSH1 0x40 MLOAD PUSH32 0x8C379A000000000000000000000000000000000000000000000000000000000 DUP2 MSTORE PUSH1 0x4 ADD PUSH2 0x19F SWAP1 PUSH2 0x45F JUMP JUMPDEST PUSH1 0x40 MLOAD DUP1 SWAP2 SUB SWAP1 REVERT JUMPDEST JUMP JUMPDEST PUSH1 0x60 PUSH1 0x13 DUP3 LT ISZERO PUSH2 0x1F0 JUMPI PUSH1 0x40 MLOAD PUSH32 0x8C379A000000000000000000000000000000000000000000000000000000000 DUP2 MSTORE PUSH1 0x4 ADD PUSH2 0x1E7 SWAP1 PUSH2 0x3CA JUMP JUMPDEST PUSH1 0x40 MLOAD DUP1 SWAP2 SUB SWAP1 REVERT JUMPDEST PUSH1 0x40 MLOAD DUP1 PUSH1 0x40 ADD PUSH1 0x40 MSTORE DUP1 PUSH1 0x19 DUP2 MSTORE PUSH1 0x20 ADD PUSH32 0x596F7572207061796D656E742069732073756363656564656400000000000000 DUP2 MSTORE POP SWAP1 POP SWAP2 SWAP1 POP JUMP JUMPDEST PUSH1 0x40 MLOAD PUSH32 0x8C379A000000000000000000000000000000000000000000000000000000000 DUP2 MSTORE PUSH1 0x4 ADD PUSH2 0x25F SWAP1 PUSH2 0x4C7 JUMP JUMPDEST PUSH1 0x40 MLOAD DUP1 SWAP2 SUB SWAP1 REVERT JUMPDEST PUSH0 DUP1 REVERT JUMPDEST PUSH0 DUP2 SWAP1 POP SWAP2 SWAP1 POP JUMP JUMPDEST PUSH2 0x27E DUP2 PUSH2 0x26C JUMP JUMPDEST DUP2 EQ PUSH2 0x288 JUMPI PUSH0 DUP1 REVERT JUMPDEST POP JUMP JUMPDEST PUSH0 DUP2 CALLDATALOAD SWAP1 POP PUSH2 0x299 DUP2 PUSH2 0x275 JUMP JUMPDEST SWAP3 SWAP2 POP POP JUMP JUMPDEST PUSH0 PUSH1 0x20 DUP3 DUP5 SUB SLT ISZERO PUSH2 0x2B4 JUMPI PUSH2 0x2B3 PUSH2 0x268 JUMP JUMPDEST JUMPDEST PUSH0 PUSH2 0x2C1 DUP5 DUP3 DUP6 ADD PUSH2 0x28B JUMP JUMPDEST SWAP2 POP POP SWAP3 SWAP2 POP POP JUMP JUMPDEST PUSH0 DUP2 MLOAD SWAP1 POP SWAP2 SWAP1 POP JUMP JUMPDEST PUSH0 DUP3 DUP3 MSTORE PUSH1 0x20 DUP3 ADD SWAP1 POP SWAP3 SWAP2 POP POP JUMP JUMPDEST DUP3 DUP2 DUP4 MCOPY PUSH0 DUP4 DUP4 ADD MSTORE POP POP POP JUMP JUMPDEST PUSH0 PUSH1 0x1F NOT PUSH1 0x1F DUP4 ADD AND SWAP1 POP SWAP2 SWAP1 POP JUMP JUMPDEST PUSH0 PUSH2 0x30C DUP3 PUSH2 0x2CA JUMP JUMPDEST PUSH2 0x316 DUP2 DUP6 PUSH2 0x2D4 JUMP JUMPDEST SWAP4 POP PUSH2 0x326 DUP2 DUP6 PUSH1 0x20 DUP7 ADD PUSH2 0x2E4 JUMP JUMPDEST PUSH2 0x32F DUP2 PUSH2 0x2F2 JUMP JUMPDEST DUP5 ADD SWAP2 POP POP SWAP3 SWAP2 POP POP JUMP JUMPDEST PUSH0 PUSH1 0x20 DUP3 ADD SWAP1 POP DUP2 DUP2 SUB PUSH0 DUP4 ADD MSTORE PUSH2 0x352 DUP2 DUP5 PUSH2 0x302 JUMP JUMPDEST SWAP1 POP SWAP3 SWAP2 POP POP JUMP JUMPDEST PUSH32 0x596F7520617265206E6F7420616C6C6F77656420746F2070617920666F722074 PUSH0 DUP3 ADD MSTORE PUSH32 0x6865206369676172657474650000000000000000000000000000000000000000 PUSH1 0x20 DUP3 ADD MSTORE POP JUMP JUMPDEST PUSH0 PUSH2 0x3B4 PUSH1 0x2C DUP4 PUSH2 0x2D4 JUMP JUMPDEST SWAP2 POP PUSH2 0x3BF DUP3 PUSH2 0x35A JUMP JUMPDEST PUSH1 0x40 DUP3 ADD SWAP1 POP SWAP2 SWAP1 POP JUMP JUMPDEST PUSH0 PUSH1 0x20 DUP3 ADD SWAP1 POP DUP2 DUP2 SUB PUSH0 DUP4 ADD MSTORE PUSH2 0x3E1 DUP2 PUSH2 0x3A8 JUMP JUMPDEST SWAP1 POP SWAP2 SWAP1 POP JUMP JUMPDEST PUSH32 0x4E487B7100000000000000000000000000000000000000000000000000000000 PUSH0 MSTORE PUSH1 0x1 PUSH1 0x4 MSTORE PUSH1 0x24 PUSH0 REVERT JUMPDEST PUSH32 0x6F63637572726564000000000000000000000000000000000000000000000000 PUSH0 DUP3 ADD MSTORE POP JUMP JUMPDEST PUSH0 PUSH2 0x449 PUSH1 0x8 DUP4 PUSH2 0x2D4 JUMP JUMPDEST SWAP2 POP PUSH2 0x454 DUP3 PUSH2 0x415 JUMP JUMPDEST PUSH1 0x20 DUP3 ADD SWAP1 POP SWAP2 SWAP1 POP JUMP JUMPDEST PUSH0 PUSH1 0x20 DUP3 ADD SWAP1 POP DUP2 DUP2 SUB PUSH0 DUP4 ADD MSTORE PUSH2 0x476 DUP2 PUSH2 0x43D JUMP JUMPDEST SWAP1 POP SWAP2 SWAP1 POP JUMP JUMPDEST PUSH32 0x6572726F72212100000000000000000000000000000000000000000000000000 PUSH0 DUP3 ADD MSTORE POP JUMP JUMPDEST PUSH0 PUSH2 0x4B1 PUSH1 0x7 DUP4 PUSH2 0x2D4 JUMP JUMPDEST SWAP2 POP PUSH2 0x4BC DUP3 PUSH2 0x47D JUMP JUMPDEST PUSH1 0x20 DUP3 ADD SWAP1 POP SWAP2 SWAP1 POP JUMP JUMPDEST PUSH0 PUSH1 0x20 DUP3 ADD SWAP1 POP DUP2 DUP2 SUB PUSH0 DUP4 ADD MSTORE PUSH2 0x4DE DUP2 PUSH2 0x4A5 JUMP JUMPDEST SWAP1 POP SWAP2 SWAP1 POP JUMP INVALID LOG2 PUSH5 0x6970667358 0x22 SLT KECCAK256 EQ 0xA8 CALLCODE SWAP12 0xE7 KECCAK256 DUP4 SWAP7 JUMP CALLDATALOAD 0xDF 0x28 BLOCKHASH TIMESTAMP 0x4F 0xBC DUP3 DUP6 0xBA SWAP8 0xB4 SAR DUP1 PUSH30 0xAC9561F3ABC4C8B064736F6C634300081A00330000000000000000000000 "
				},
				"gasEstimates": {
					"creation": {
						"codeDepositCost": "261400",
						"executionCost": "298",
						"totalCost": "261698"
					},
					"external": {
						"assertNow()": "186",
						"onlyAdults(uint256)": "infinite",
						"onlyAdults2(uint256)": "infinite",
						"requireNow()": "465",
						"revertNow()": "494"
					}
				},
				"methodIdentifiers": {
					"assertNow()": "2712f519",
					"onlyAdults(uint256)": "9de5b7d2",
					"onlyAdults2(uint256)": "00746715",
					"requireNow()": "844adfd2",
					"revertNow()": "afe26609"
				}
			},
			"storageLayout": {
				"storage": [],
				"types": null
			},
			"userdoc": {
				"kind": "user",
				"methods": {},
				"version": 1
			}
		}
	}
}