{
	"data": {
		"bytecode": {
			"linkReferences": {},
			"object": "6080604052348015600e575f5ffd5b506102f88061001c5f395ff3fe608060405260043610610021575f3560e01c80630f3d0204146100945761005d565b3661005d577fea76936da7e733de51185273d52362d5abc78a41b970e52e5a32d35a187566c26040516100539061013f565b60405180910390a1005b7fa34784e3343c15d43f7dcaa7f7575208ff57743c4f087aade7e1f63d9f87b35c60405161008a906101a7565b60405180910390a1005b34801561009f575f5ffd5b506100ba60048036038101906100b591906101fc565b6100d0565b6040516100c79190610249565b60405180910390f35b5f81836100dd919061028f565b905092915050565b5f82825260208201905092915050565b7f4a757374526563656976652069732063616c6c656400000000000000000000005f82015250565b5f6101296015836100e5565b9150610134826100f5565b602082019050919050565b5f6020820190508181035f8301526101568161011d565b9050919050565b7f4a75737446616c6c6261636b2069732063616c6c6564000000000000000000005f82015250565b5f6101916016836100e5565b915061019c8261015d565b602082019050919050565b5f6020820190508181035f8301526101be81610185565b9050919050565b5f5ffd5b5f819050919050565b6101db816101c9565b81146101e5575f5ffd5b50565b5f813590506101f6816101d2565b92915050565b5f5f60408385031215610212576102116101c5565b5b5f61021f858286016101e8565b9250506020610230858286016101e8565b9150509250929050565b610243816101c9565b82525050565b5f60208201905061025c5f83018461023a565b92915050565b7f4e487b71000000000000000000000000000000000000000000000000000000005f52601160045260245ffd5b5f610299826101c9565b91506102a4836101c9565b92508282019050808211156102bc576102bb610262565b5b9291505056fea2646970667358221220b80b70fa5624d0bc385fca33e3e121c4a1cf40482dbbcd91e57b47dca5dfb0a664736f6c634300081c0033",
			"opcodes": "PUSH1 0x80 PUSH1 0x40 MSTORE CALLVALUE DUP1 ISZERO PUSH1 0xE JUMPI PUSH0 PUSH0 REVERT JUMPDEST POP PUSH2 0x2F8 DUP1 PUSH2 0x1C PUSH0 CODECOPY PUSH0 RETURN INVALID PUSH1 0x80 PUSH1 0x40 MSTORE PUSH1 0x4 CALLDATASIZE LT PUSH2 0x21 JUMPI PUSH0 CALLDATALOAD PUSH1 0xE0 SHR DUP1 PUSH4 0xF3D0204 EQ PUSH2 0x94 JUMPI PUSH2 0x5D JUMP JUMPDEST CALLDATASIZE PUSH2 0x5D JUMPI PUSH32 0xEA76936DA7E733DE51185273D52362D5ABC78A41B970E52E5A32D35A187566C2 PUSH1 0x40 MLOAD PUSH2 0x53 SWAP1 PUSH2 0x13F JUMP JUMPDEST PUSH1 0x40 MLOAD DUP1 SWAP2 SUB SWAP1 LOG1 STOP JUMPDEST PUSH32 0xA34784E3343C15D43F7DCAA7F7575208FF57743C4F087AADE7E1F63D9F87B35C PUSH1 0x40 MLOAD PUSH2 0x8A SWAP1 PUSH2 0x1A7 JUMP JUMPDEST PUSH1 0x40 MLOAD DUP1 SWAP2 SUB SWAP1 LOG1 STOP JUMPDEST CALLVALUE DUP1 ISZERO PUSH2 0x9F JUMPI PUSH0 PUSH0 REVERT JUMPDEST POP PUSH2 0xBA PUSH1 0x4 DUP1 CALLDATASIZE SUB DUP2 ADD SWAP1 PUSH2 0xB5 SWAP2 SWAP1 PUSH2 0x1FC JUMP JUMPDEST PUSH2 0xD0 JUMP JUMPDEST PUSH1 0x40 MLOAD PUSH2 0xC7 SWAP2 SWAP1 PUSH2 0x249 JUMP JUMPDEST PUSH1 0x40 MLOAD DUP1 SWAP2 SUB SWAP1 RETURN JUMPDEST PUSH0 DUP2 DUP4 PUSH2 0xDD SWAP2 SWAP1 PUSH2 0x28F JUMP JUMPDEST SWAP1 POP SWAP3 SWAP2 POP POP JUMP JUMPDEST PUSH0 DUP3 DUP3 MSTORE PUSH1 0x20 DUP3 ADD SWAP1 POP SWAP3 SWAP2 POP POP JUMP JUMPDEST PUSH32 0x4A757374526563656976652069732063616C6C65640000000000000000000000 PUSH0 DUP3 ADD MSTORE POP JUMP JUMPDEST PUSH0 PUSH2 0x129 PUSH1 0x15 DUP4 PUSH2 0xE5 JUMP JUMPDEST SWAP2 POP PUSH2 0x134 DUP3 PUSH2 0xF5 JUMP JUMPDEST PUSH1 0x20 DUP3 ADD SWAP1 POP SWAP2 SWAP1 POP JUMP JUMPDEST PUSH0 PUSH1 0x20 DUP3 ADD SWAP1 POP DUP2 DUP2 SUB PUSH0 DUP4 ADD MSTORE PUSH2 0x156 DUP2 PUSH2 0x11D JUMP JUMPDEST SWAP1 POP SWAP2 SWAP1 POP JUMP JUMPDEST PUSH32 0x4A75737446616C6C6261636B2069732063616C6C656400000000000000000000 PUSH0 DUP3 ADD MSTORE POP JUMP JUMPDEST PUSH0 PUSH2 0x191 PUSH1 0x16 DUP4 PUSH2 0xE5 JUMP JUMPDEST SWAP2 POP PUSH2 0x19C DUP3 PUSH2 0x15D JUMP JUMPDEST PUSH1 0x20 DUP3 ADD SWAP1 POP SWAP2 SWAP1 POP JUMP JUMPDEST PUSH0 PUSH1 0x20 DUP3 ADD SWAP1 POP DUP2 DUP2 SUB PUSH0 DUP4 ADD MSTORE PUSH2 0x1BE DUP2 PUSH2 0x185 JUMP JUMPDEST SWAP1 POP SWAP2 SWAP1 POP JUMP JUMPDEST PUSH0 PUSH0 REVERT JUMPDEST PUSH0 DUP2 SWAP1 POP SWAP2 SWAP1 POP JUMP JUMPDEST PUSH2 0x1DB DUP2 PUSH2 0x1C9 JUMP JUMPDEST DUP2 EQ PUSH2 0x1E5 JUMPI PUSH0 PUSH0 REVERT JUMPDEST POP JUMP JUMPDEST PUSH0 DUP2 CALLDATALOAD SWAP1 POP PUSH2 0x1F6 DUP2 PUSH2 0x1D2 JUMP JUMPDEST SWAP3 SWAP2 POP POP JUMP JUMPDEST PUSH0 PUSH0 PUSH1 0x40 DUP4 DUP6 SUB SLT ISZERO PUSH2 0x212 JUMPI PUSH2 0x211 PUSH2 0x1C5 JUMP JUMPDEST JUMPDEST PUSH0 PUSH2 0x21F DUP6 DUP3 DUP7 ADD PUSH2 0x1E8 JUMP JUMPDEST SWAP3 POP POP PUSH1 0x20 PUSH2 0x230 DUP6 DUP3 DUP7 ADD PUSH2 0x1E8 JUMP JUMPDEST SWAP2 POP POP SWAP3 POP SWAP3 SWAP1 POP JUMP JUMPDEST PUSH2 0x243 DUP2 PUSH2 0x1C9 JUMP JUMPDEST DUP3 MSTORE POP POP JUMP JUMPDEST PUSH0 PUSH1 0x20 DUP3 ADD SWAP1 POP PUSH2 0x25C PUSH0 DUP4 ADD DUP5 PUSH2 0x23A JUMP JUMPDEST SWAP3 SWAP2 POP POP JUMP JUMPDEST PUSH32 0x4E487B7100000000000000000000000000000000000000000000000000000000 PUSH0 MSTORE PUSH1 0x11 PUSH1 0x4 MSTORE PUSH1 0x24 PUSH0 REVERT JUMPDEST PUSH0 PUSH2 0x299 DUP3 PUSH2 0x1C9 JUMP JUMPDEST SWAP2 POP PUSH2 0x2A4 DUP4 PUSH2 0x1C9 JUMP JUMPDEST SWAP3 POP DUP3 DUP3 ADD SWAP1 POP DUP1 DUP3 GT ISZERO PUSH2 0x2BC JUMPI PUSH2 0x2BB PUSH2 0x262 JUMP JUMPDEST JUMPDEST SWAP3 SWAP2 POP POP JUMP INVALID LOG2 PUSH5 0x6970667358 0x22 SLT KECCAK256 0xB8 SIGNEXTEND PUSH17 0xFA5624D0BC385FCA33E3E121C4A1CF4048 0x2D 0xBB 0xCD SWAP2 0xE5 PUSH28 0x47DCA5DFB0A664736F6C634300081C00330000000000000000000000 "
		},
		"gasEstimates": {
			"creation": {
				"codeDepositCost": "152000",
				"executionCost": "194",
				"totalCost": "152194"
			},
			"external": {
				"": "1881",
				"addNumber(uint256,uint256)": "infinite"
			}
		},
		"methodIdentifiers": {
			"addNumber(uint256,uint256)": "0f3d0204"
		}
	},
	"abi": [
		{
			"anonymous": false,
			"inputs": [
				{
					"indexed": false,
					"internalType": "string",
					"name": "_str",
					"type": "string"
				}
			],
			"name": "JustFallback",
			"type": "event"
		},
		{
			"anonymous": false,
			"inputs": [
				{
					"indexed": false,
					"internalType": "string",
					"name": "_str",
					"type": "string"
				}
			],
			"name": "JustReceive",
			"type": "event"
		},
		{
			"stateMutability": "payable",
			"type": "fallback"
		},
		{
			"inputs": [
				{
					"internalType": "uint256",
					"name": "_num1",
					"type": "uint256"
				},
				{
					"internalType": "uint256",
					"name": "_num2",
					"type": "uint256"
				}
			],
			"name": "addNumber",
			"outputs": [
				{
					"internalType": "uint256",
					"name": "",
					"type": "uint256"
				}
			],
			"stateMutability": "pure",
			"type": "function"
		},
		{
			"stateMutability": "payable",
			"type": "receive"
		}
	]
}