{
	"data": {
		"bytecode": {
			"linkReferences": {},
			"object": "60806040525f5f553480156011575f5ffd5b506101e18061001f5f395ff3fe608060405234801561000f575f5ffd5b5060043610610034575f3560e01c80634e70b1dc1461003857806368e5c06614610056575b5f5ffd5b610040610060565b60405161004d91906100cc565b60405180910390f35b61005e610065565b005b5f5481565b60015f546100739190610112565b5f819055507f2e2a4a34dacfe23211d7cd5f2269b17fe50bc4440e8ac080de1026da21e8007d335f546040516100aa929190610184565b60405180910390a1565b5f819050919050565b6100c6816100b4565b82525050565b5f6020820190506100df5f8301846100bd565b92915050565b7f4e487b71000000000000000000000000000000000000000000000000000000005f52601160045260245ffd5b5f61011c826100b4565b9150610127836100b4565b925082820190508082111561013f5761013e6100e5565b5b92915050565b5f73ffffffffffffffffffffffffffffffffffffffff82169050919050565b5f61016e82610145565b9050919050565b61017e81610164565b82525050565b5f6040820190506101975f830185610175565b6101a460208301846100bd565b939250505056fea2646970667358221220f7935be7b587e723143e092bccee39e1ca9632c902bba95486706707e38cfebd64736f6c634300081c0033",
			"opcodes": "PUSH1 0x80 PUSH1 0x40 MSTORE PUSH0 PUSH0 SSTORE CALLVALUE DUP1 ISZERO PUSH1 0x11 JUMPI PUSH0 PUSH0 REVERT JUMPDEST POP PUSH2 0x1E1 DUP1 PUSH2 0x1F PUSH0 CODECOPY PUSH0 RETURN INVALID PUSH1 0x80 PUSH1 0x40 MSTORE CALLVALUE DUP1 ISZERO PUSH2 0xF JUMPI PUSH0 PUSH0 REVERT JUMPDEST POP PUSH1 0x4 CALLDATASIZE LT PUSH2 0x34 JUMPI PUSH0 CALLDATALOAD PUSH1 0xE0 SHR DUP1 PUSH4 0x4E70B1DC EQ PUSH2 0x38 JUMPI DUP1 PUSH4 0x68E5C066 EQ PUSH2 0x56 JUMPI JUMPDEST PUSH0 PUSH0 REVERT JUMPDEST PUSH2 0x40 PUSH2 0x60 JUMP JUMPDEST PUSH1 0x40 MLOAD PUSH2 0x4D SWAP2 SWAP1 PUSH2 0xCC JUMP JUMPDEST PUSH1 0x40 MLOAD DUP1 SWAP2 SUB SWAP1 RETURN JUMPDEST PUSH2 0x5E PUSH2 0x65 JUMP JUMPDEST STOP JUMPDEST PUSH0 SLOAD DUP2 JUMP JUMPDEST PUSH1 0x1 PUSH0 SLOAD PUSH2 0x73 SWAP2 SWAP1 PUSH2 0x112 JUMP JUMPDEST PUSH0 DUP2 SWAP1 SSTORE POP PUSH32 0x2E2A4A34DACFE23211D7CD5F2269B17FE50BC4440E8AC080DE1026DA21E8007D CALLER PUSH0 SLOAD PUSH1 0x40 MLOAD PUSH2 0xAA SWAP3 SWAP2 SWAP1 PUSH2 0x184 JUMP JUMPDEST PUSH1 0x40 MLOAD DUP1 SWAP2 SUB SWAP1 LOG1 JUMP JUMPDEST PUSH0 DUP2 SWAP1 POP SWAP2 SWAP1 POP JUMP JUMPDEST PUSH2 0xC6 DUP2 PUSH2 0xB4 JUMP JUMPDEST DUP3 MSTORE POP POP JUMP JUMPDEST PUSH0 PUSH1 0x20 DUP3 ADD SWAP1 POP PUSH2 0xDF PUSH0 DUP4 ADD DUP5 PUSH2 0xBD JUMP JUMPDEST SWAP3 SWAP2 POP POP JUMP JUMPDEST PUSH32 0x4E487B7100000000000000000000000000000000000000000000000000000000 PUSH0 MSTORE PUSH1 0x11 PUSH1 0x4 MSTORE PUSH1 0x24 PUSH0 REVERT JUMPDEST PUSH0 PUSH2 0x11C DUP3 PUSH2 0xB4 JUMP JUMPDEST SWAP2 POP PUSH2 0x127 DUP4 PUSH2 0xB4 JUMP JUMPDEST SWAP3 POP DUP3 DUP3 ADD SWAP1 POP DUP1 DUP3 GT ISZERO PUSH2 0x13F JUMPI PUSH2 0x13E PUSH2 0xE5 JUMP JUMPDEST JUMPDEST SWAP3 SWAP2 POP POP JUMP JUMPDEST PUSH0 PUSH20 0xFFFFFFFFFFFFFFFFFFFFFFFFFFFFFFFFFFFFFFFF DUP3 AND SWAP1 POP SWAP2 SWAP1 POP JUMP JUMPDEST PUSH0 PUSH2 0x16E DUP3 PUSH2 0x145 JUMP JUMPDEST SWAP1 POP SWAP2 SWAP1 POP JUMP JUMPDEST PUSH2 0x17E DUP2 PUSH2 0x164 JUMP JUMPDEST DUP3 MSTORE POP POP JUMP JUMPDEST PUSH0 PUSH1 0x40 DUP3 ADD SWAP1 POP PUSH2 0x197 PUSH0 DUP4 ADD DUP6 PUSH2 0x175 JUMP JUMPDEST PUSH2 0x1A4 PUSH1 0x20 DUP4 ADD DUP5 PUSH2 0xBD JUMP JUMPDEST SWAP4 SWAP3 POP POP POP JUMP INVALID LOG2 PUSH5 0x6970667358 0x22 SLT KECCAK256 0xF7 SWAP4 JUMPDEST 0xE7 0xB5 DUP8 0xE7 0x23 EQ RETURNDATACOPY MULMOD 0x2B 0xCC 0xEE CODECOPY 0xE1 0xCA SWAP7 ORIGIN 0xC9 MUL 0xBB 0xA9 SLOAD DUP7 PUSH17 0x6707E38CFEBD64736F6C634300081C0033 "
		},
		"gasEstimates": {
			"creation": {
				"codeDepositCost": "96200",
				"executionCost": "5149",
				"totalCost": "101349"
			},
			"external": {
				"num()": "2402",
				"plusOne()": "infinite"
			}
		},
		"methodIdentifiers": {
			"num()": "4e70b1dc",
			"plusOne()": "68e5c066"
		}
	},
	"abi": [
		{
			"anonymous": false,
			"inputs": [
				{
					"indexed": false,
					"internalType": "address",
					"name": "_addr",
					"type": "address"
				},
				{
					"indexed": false,
					"internalType": "uint256",
					"name": "_num",
					"type": "uint256"
				}
			],
			"name": "Info",
			"type": "event"
		},
		{
			"inputs": [],
			"name": "num",
			"outputs": [
				{
					"internalType": "uint256",
					"name": "",
					"type": "uint256"
				}
			],
			"stateMutability": "view",
			"type": "function"
		},
		{
			"inputs": [],
			"name": "plusOne",
			"outputs": [],
			"stateMutability": "nonpayable",
			"type": "function"
		}
	]
}