{
	"data": {
		"bytecode": {
			"linkReferences": {},
			"object": "6080604052348015600e575f5ffd5b506105e58061001c5f395ff3fe608060405260043610610049575f3560e01c80637ea4d6ae1461004d578063ac2a35c814610075578063bc54f7ed14610091578063e1972dbb146100ad578063f97447dd146100c9575b5f5ffd5b348015610058575f5ffd5b50610073600480360381019061006e9190610407565b6100e5565b005b61008f600480360381019061008a919061046d565b61018f565b005b6100ab60048036038101906100a6919061046d565b61023b565b005b6100c760048036038101906100c2919061046d565b6102e7565b005b6100e360048036038101906100de919061046d565b61032e565b005b5f8173ffffffffffffffffffffffffffffffffffffffff16604051610109906104ec565b5f604051808303815f865af19150503d805f8114610142576040519150601f19603f3d011682016040523d82523d5f602084013e610147565b606091505b505090508061018b576040517f08c379a00000000000000000000000000000000000000000000000000000000081526004016101829061055a565b60405180910390fd5b5050565b5f8173ffffffffffffffffffffffffffffffffffffffff16346040516101b4906104ec565b5f6040518083038185875af1925050503d805f81146101ee576040519150601f19603f3d011682016040523d82523d5f602084013e6101f3565b606091505b5050905080610237576040517f08c379a000000000000000000000000000000000000000000000000000000000815260040161022e9061055a565b60405180910390fd5b5050565b5f8173ffffffffffffffffffffffffffffffffffffffff16346040516102609061059b565b5f6040518083038185875af1925050503d805f811461029a576040519150601f19603f3d011682016040523d82523d5f602084013e61029f565b606091505b50509050806102e3576040517f08c379a00000000000000000000000000000000000000000000000000000000081526004016102da9061055a565b60405180910390fd5b5050565b8073ffffffffffffffffffffffffffffffffffffffff166108fc3490811502906040515f60405180830381858888f1935050505015801561032a573d5f5f3e3d5ffd5b5050565b5f8173ffffffffffffffffffffffffffffffffffffffff166108fc3490811502906040515f60405180830381858888f193505050509050806103a5576040517f08c379a000000000000000000000000000000000000000000000000000000000815260040161039c9061055a565b60405180910390fd5b5050565b5f5ffd5b5f73ffffffffffffffffffffffffffffffffffffffff82169050919050565b5f6103d6826103ad565b9050919050565b6103e6816103cc565b81146103f0575f5ffd5b50565b5f81359050610401816103dd565b92915050565b5f6020828403121561041c5761041b6103a9565b5b5f610429848285016103f3565b91505092915050565b5f61043c826103ad565b9050919050565b61044c81610432565b8114610456575f5ffd5b50565b5f8135905061046781610443565b92915050565b5f60208284031215610482576104816103a9565b5b5f61048f84828501610459565b91505092915050565b5f81905092915050565b7f48490000000000000000000000000000000000000000000000000000000000005f82015250565b5f6104d6600283610498565b91506104e1826104a2565b600282019050919050565b5f6104f6826104ca565b9150819050919050565b5f82825260208201905092915050565b7f4661696c6c6564000000000000000000000000000000000000000000000000005f82015250565b5f610544600783610500565b915061054f82610510565b602082019050919050565b5f6020820190508181035f83015261057181610538565b9050919050565b50565b5f6105865f83610498565b915061059182610578565b5f82019050919050565b5f6105a58261057b565b915081905091905056fea264697066735822122085486bfc3e573e0102a0591b0cc65c23f30d75cf05ac309f5140a544e24be85064736f6c634300081c0033",
			"opcodes": "PUSH1 0x80 PUSH1 0x40 MSTORE CALLVALUE DUP1 ISZERO PUSH1 0xE JUMPI PUSH0 PUSH0 REVERT JUMPDEST POP PUSH2 0x5E5 DUP1 PUSH2 0x1C PUSH0 CODECOPY PUSH0 RETURN INVALID PUSH1 0x80 PUSH1 0x40 MSTORE PUSH1 0x4 CALLDATASIZE LT PUSH2 0x49 JUMPI PUSH0 CALLDATALOAD PUSH1 0xE0 SHR DUP1 PUSH4 0x7EA4D6AE EQ PUSH2 0x4D JUMPI DUP1 PUSH4 0xAC2A35C8 EQ PUSH2 0x75 JUMPI DUP1 PUSH4 0xBC54F7ED EQ PUSH2 0x91 JUMPI DUP1 PUSH4 0xE1972DBB EQ PUSH2 0xAD JUMPI DUP1 PUSH4 0xF97447DD EQ PUSH2 0xC9 JUMPI JUMPDEST PUSH0 PUSH0 REVERT JUMPDEST CALLVALUE DUP1 ISZERO PUSH2 0x58 JUMPI PUSH0 PUSH0 REVERT JUMPDEST POP PUSH2 0x73 PUSH1 0x4 DUP1 CALLDATASIZE SUB DUP2 ADD SWAP1 PUSH2 0x6E SWAP2 SWAP1 PUSH2 0x407 JUMP JUMPDEST PUSH2 0xE5 JUMP JUMPDEST STOP JUMPDEST PUSH2 0x8F PUSH1 0x4 DUP1 CALLDATASIZE SUB DUP2 ADD SWAP1 PUSH2 0x8A SWAP2 SWAP1 PUSH2 0x46D JUMP JUMPDEST PUSH2 0x18F JUMP JUMPDEST STOP JUMPDEST PUSH2 0xAB PUSH1 0x4 DUP1 CALLDATASIZE SUB DUP2 ADD SWAP1 PUSH2 0xA6 SWAP2 SWAP1 PUSH2 0x46D JUMP JUMPDEST PUSH2 0x23B JUMP JUMPDEST STOP JUMPDEST PUSH2 0xC7 PUSH1 0x4 DUP1 CALLDATASIZE SUB DUP2 ADD SWAP1 PUSH2 0xC2 SWAP2 SWAP1 PUSH2 0x46D JUMP JUMPDEST PUSH2 0x2E7 JUMP JUMPDEST STOP JUMPDEST PUSH2 0xE3 PUSH1 0x4 DUP1 CALLDATASIZE SUB DUP2 ADD SWAP1 PUSH2 0xDE SWAP2 SWAP1 PUSH2 0x46D JUMP JUMPDEST PUSH2 0x32E JUMP JUMPDEST STOP JUMPDEST PUSH0 DUP2 PUSH20 0xFFFFFFFFFFFFFFFFFFFFFFFFFFFFFFFFFFFFFFFF AND PUSH1 0x40 MLOAD PUSH2 0x109 SWAP1 PUSH2 0x4EC JUMP JUMPDEST PUSH0 PUSH1 0x40 MLOAD DUP1 DUP4 SUB DUP2 PUSH0 DUP7 GAS CALL SWAP2 POP POP RETURNDATASIZE DUP1 PUSH0 DUP2 EQ PUSH2 0x142 JUMPI PUSH1 0x40 MLOAD SWAP2 POP PUSH1 0x1F NOT PUSH1 0x3F RETURNDATASIZE ADD AND DUP3 ADD PUSH1 0x40 MSTORE RETURNDATASIZE DUP3 MSTORE RETURNDATASIZE PUSH0 PUSH1 0x20 DUP5 ADD RETURNDATACOPY PUSH2 0x147 JUMP JUMPDEST PUSH1 0x60 SWAP2 POP JUMPDEST POP POP SWAP1 POP DUP1 PUSH2 0x18B JUMPI PUSH1 0x40 MLOAD PUSH32 0x8C379A000000000000000000000000000000000000000000000000000000000 DUP2 MSTORE PUSH1 0x4 ADD PUSH2 0x182 SWAP1 PUSH2 0x55A JUMP JUMPDEST PUSH1 0x40 MLOAD DUP1 SWAP2 SUB SWAP1 REVERT JUMPDEST POP POP JUMP JUMPDEST PUSH0 DUP2 PUSH20 0xFFFFFFFFFFFFFFFFFFFFFFFFFFFFFFFFFFFFFFFF AND CALLVALUE PUSH1 0x40 MLOAD PUSH2 0x1B4 SWAP1 PUSH2 0x4EC JUMP JUMPDEST PUSH0 PUSH1 0x40 MLOAD DUP1 DUP4 SUB DUP2 DUP6 DUP8 GAS CALL SWAP3 POP POP POP RETURNDATASIZE DUP1 PUSH0 DUP2 EQ PUSH2 0x1EE JUMPI PUSH1 0x40 MLOAD SWAP2 POP PUSH1 0x1F NOT PUSH1 0x3F RETURNDATASIZE ADD AND DUP3 ADD PUSH1 0x40 MSTORE RETURNDATASIZE DUP3 MSTORE RETURNDATASIZE PUSH0 PUSH1 0x20 DUP5 ADD RETURNDATACOPY PUSH2 0x1F3 JUMP JUMPDEST PUSH1 0x60 SWAP2 POP JUMPDEST POP POP SWAP1 POP DUP1 PUSH2 0x237 JUMPI PUSH1 0x40 MLOAD PUSH32 0x8C379A000000000000000000000000000000000000000000000000000000000 DUP2 MSTORE PUSH1 0x4 ADD PUSH2 0x22E SWAP1 PUSH2 0x55A JUMP JUMPDEST PUSH1 0x40 MLOAD DUP1 SWAP2 SUB SWAP1 REVERT JUMPDEST POP POP JUMP JUMPDEST PUSH0 DUP2 PUSH20 0xFFFFFFFFFFFFFFFFFFFFFFFFFFFFFFFFFFFFFFFF AND CALLVALUE PUSH1 0x40 MLOAD PUSH2 0x260 SWAP1 PUSH2 0x59B JUMP JUMPDEST PUSH0 PUSH1 0x40 MLOAD DUP1 DUP4 SUB DUP2 DUP6 DUP8 GAS CALL SWAP3 POP POP POP RETURNDATASIZE DUP1 PUSH0 DUP2 EQ PUSH2 0x29A JUMPI PUSH1 0x40 MLOAD SWAP2 POP PUSH1 0x1F NOT PUSH1 0x3F RETURNDATASIZE ADD AND DUP3 ADD PUSH1 0x40 MSTORE RETURNDATASIZE DUP3 MSTORE RETURNDATASIZE PUSH0 PUSH1 0x20 DUP5 ADD RETURNDATACOPY PUSH2 0x29F JUMP JUMPDEST PUSH1 0x60 SWAP2 POP JUMPDEST POP POP SWAP1 POP DUP1 PUSH2 0x2E3 JUMPI PUSH1 0x40 MLOAD PUSH32 0x8C379A000000000000000000000000000000000000000000000000000000000 DUP2 MSTORE PUSH1 0x4 ADD PUSH2 0x2DA SWAP1 PUSH2 0x55A JUMP JUMPDEST PUSH1 0x40 MLOAD DUP1 SWAP2 SUB SWAP1 REVERT JUMPDEST POP POP JUMP JUMPDEST DUP1 PUSH20 0xFFFFFFFFFFFFFFFFFFFFFFFFFFFFFFFFFFFFFFFF AND PUSH2 0x8FC CALLVALUE SWAP1 DUP2 ISZERO MUL SWAP1 PUSH1 0x40 MLOAD PUSH0 PUSH1 0x40 MLOAD DUP1 DUP4 SUB DUP2 DUP6 DUP9 DUP9 CALL SWAP4 POP POP POP POP ISZERO DUP1 ISZERO PUSH2 0x32A JUMPI RETURNDATASIZE PUSH0 PUSH0 RETURNDATACOPY RETURNDATASIZE PUSH0 REVERT JUMPDEST POP POP JUMP JUMPDEST PUSH0 DUP2 PUSH20 0xFFFFFFFFFFFFFFFFFFFFFFFFFFFFFFFFFFFFFFFF AND PUSH2 0x8FC CALLVALUE SWAP1 DUP2 ISZERO MUL SWAP1 PUSH1 0x40 MLOAD PUSH0 PUSH1 0x40 MLOAD DUP1 DUP4 SUB DUP2 DUP6 DUP9 DUP9 CALL SWAP4 POP POP POP POP SWAP1 POP DUP1 PUSH2 0x3A5 JUMPI PUSH1 0x40 MLOAD PUSH32 0x8C379A000000000000000000000000000000000000000000000000000000000 DUP2 MSTORE PUSH1 0x4 ADD PUSH2 0x39C SWAP1 PUSH2 0x55A JUMP JUMPDEST PUSH1 0x40 MLOAD DUP1 SWAP2 SUB SWAP1 REVERT JUMPDEST POP POP JUMP JUMPDEST PUSH0 PUSH0 REVERT JUMPDEST PUSH0 PUSH20 0xFFFFFFFFFFFFFFFFFFFFFFFFFFFFFFFFFFFFFFFF DUP3 AND SWAP1 POP SWAP2 SWAP1 POP JUMP JUMPDEST PUSH0 PUSH2 0x3D6 DUP3 PUSH2 0x3AD JUMP JUMPDEST SWAP1 POP SWAP2 SWAP1 POP JUMP JUMPDEST PUSH2 0x3E6 DUP2 PUSH2 0x3CC JUMP JUMPDEST DUP2 EQ PUSH2 0x3F0 JUMPI PUSH0 PUSH0 REVERT JUMPDEST POP JUMP JUMPDEST PUSH0 DUP2 CALLDATALOAD SWAP1 POP PUSH2 0x401 DUP2 PUSH2 0x3DD JUMP JUMPDEST SWAP3 SWAP2 POP POP JUMP JUMPDEST PUSH0 PUSH1 0x20 DUP3 DUP5 SUB SLT ISZERO PUSH2 0x41C JUMPI PUSH2 0x41B PUSH2 0x3A9 JUMP JUMPDEST JUMPDEST PUSH0 PUSH2 0x429 DUP5 DUP3 DUP6 ADD PUSH2 0x3F3 JUMP JUMPDEST SWAP2 POP POP SWAP3 SWAP2 POP POP JUMP JUMPDEST PUSH0 PUSH2 0x43C DUP3 PUSH2 0x3AD JUMP JUMPDEST SWAP1 POP SWAP2 SWAP1 POP JUMP JUMPDEST PUSH2 0x44C DUP2 PUSH2 0x432 JUMP JUMPDEST DUP2 EQ PUSH2 0x456 JUMPI PUSH0 PUSH0 REVERT JUMPDEST POP JUMP JUMPDEST PUSH0 DUP2 CALLDATALOAD SWAP1 POP PUSH2 0x467 DUP2 PUSH2 0x443 JUMP JUMPDEST SWAP3 SWAP2 POP POP JUMP JUMPDEST PUSH0 PUSH1 0x20 DUP3 DUP5 SUB SLT ISZERO PUSH2 0x482 JUMPI PUSH2 0x481 PUSH2 0x3A9 JUMP JUMPDEST JUMPDEST PUSH0 PUSH2 0x48F DUP5 DUP3 DUP6 ADD PUSH2 0x459 JUMP JUMPDEST SWAP2 POP POP SWAP3 SWAP2 POP POP JUMP JUMPDEST PUSH0 DUP2 SWAP1 POP SWAP3 SWAP2 POP POP JUMP JUMPDEST PUSH32 0x4849000000000000000000000000000000000000000000000000000000000000 PUSH0 DUP3 ADD MSTORE POP JUMP JUMPDEST PUSH0 PUSH2 0x4D6 PUSH1 0x2 DUP4 PUSH2 0x498 JUMP JUMPDEST SWAP2 POP PUSH2 0x4E1 DUP3 PUSH2 0x4A2 JUMP JUMPDEST PUSH1 0x2 DUP3 ADD SWAP1 POP SWAP2 SWAP1 POP JUMP JUMPDEST PUSH0 PUSH2 0x4F6 DUP3 PUSH2 0x4CA JUMP JUMPDEST SWAP2 POP DUP2 SWAP1 POP SWAP2 SWAP1 POP JUMP JUMPDEST PUSH0 DUP3 DUP3 MSTORE PUSH1 0x20 DUP3 ADD SWAP1 POP SWAP3 SWAP2 POP POP JUMP JUMPDEST PUSH32 0x4661696C6C656400000000000000000000000000000000000000000000000000 PUSH0 DUP3 ADD MSTORE POP JUMP JUMPDEST PUSH0 PUSH2 0x544 PUSH1 0x7 DUP4 PUSH2 0x500 JUMP JUMPDEST SWAP2 POP PUSH2 0x54F DUP3 PUSH2 0x510 JUMP JUMPDEST PUSH1 0x20 DUP3 ADD SWAP1 POP SWAP2 SWAP1 POP JUMP JUMPDEST PUSH0 PUSH1 0x20 DUP3 ADD SWAP1 POP DUP2 DUP2 SUB PUSH0 DUP4 ADD MSTORE PUSH2 0x571 DUP2 PUSH2 0x538 JUMP JUMPDEST SWAP1 POP SWAP2 SWAP1 POP JUMP JUMPDEST POP JUMP JUMPDEST PUSH0 PUSH2 0x586 PUSH0 DUP4 PUSH2 0x498 JUMP JUMPDEST SWAP2 POP PUSH2 0x591 DUP3 PUSH2 0x578 JUMP JUMPDEST PUSH0 DUP3 ADD SWAP1 POP SWAP2 SWAP1 POP JUMP JUMPDEST PUSH0 PUSH2 0x5A5 DUP3 PUSH2 0x57B JUMP JUMPDEST SWAP2 POP DUP2 SWAP1 POP SWAP2 SWAP1 POP JUMP INVALID LOG2 PUSH5 0x6970667358 0x22 SLT KECCAK256 DUP6 BASEFEE PUSH12 0xFC3E573E0102A0591B0CC65C 0x23 RETURN 0xD PUSH22 0xCF05AC309F5140A544E24BE85064736F6C634300081C STOP CALLER "
		},
		"gasEstimates": {
			"creation": {
				"codeDepositCost": "301800",
				"executionCost": "341",
				"totalCost": "302141"
			},
			"external": {
				"DepositWithCall(address)": "infinite",
				"DepositWithSend(address)": "infinite",
				"DepositWithTransfer(address)": "infinite",
				"JustGiveMessage(address)": "infinite",
				"JustGiveMessageWithFunds(address)": "infinite"
			}
		},
		"methodIdentifiers": {
			"DepositWithCall(address)": "bc54f7ed",
			"DepositWithSend(address)": "f97447dd",
			"DepositWithTransfer(address)": "e1972dbb",
			"JustGiveMessage(address)": "7ea4d6ae",
			"JustGiveMessageWithFunds(address)": "ac2a35c8"
		}
	},
	"abi": [
		{
			"inputs": [
				{
					"internalType": "address payable",
					"name": "_to",
					"type": "address"
				}
			],
			"name": "DepositWithCall",
			"outputs": [],
			"stateMutability": "payable",
			"type": "function"
		},
		{
			"inputs": [
				{
					"internalType": "address payable",
					"name": "_to",
					"type": "address"
				}
			],
			"name": "DepositWithSend",
			"outputs": [],
			"stateMutability": "payable",
			"type": "function"
		},
		{
			"inputs": [
				{
					"internalType": "address payable",
					"name": "_to",
					"type": "address"
				}
			],
			"name": "DepositWithTransfer",
			"outputs": [],
			"stateMutability": "payable",
			"type": "function"
		},
		{
			"inputs": [
				{
					"internalType": "address",
					"name": "_to",
					"type": "address"
				}
			],
			"name": "JustGiveMessage",
			"outputs": [],
			"stateMutability": "nonpayable",
			"type": "function"
		},
		{
			"inputs": [
				{
					"internalType": "address payable",
					"name": "_to",
					"type": "address"
				}
			],
			"name": "JustGiveMessageWithFunds",
			"outputs": [],
			"stateMutability": "payable",
			"type": "function"
		}
	]
}